:020000040800F2
:10000000000002207D3E0008C53E0008C53E0008F5
:10001000C53E0008C53E0008C53E000800000000BF
:10002000000000000000000000000000C53E0008C5
:10003000C53E000800000000C53E0008C53E00089F
:10004000C53E0008C53E0008C53E0008C53E000884
:10005000C53E0008C53E0008C53E0008C53E000874
:10006000C53E0008C53E0008C53E0008C53E000864
:10007000C53E0008C53E0008C53E0008C53E000854
:10008000C53E0008C53E0008C53E0008C53E000844
:10009000C53E0008C53E0008C53E0008C53E000834
:1000A000C53E0008C53E0008C53E0008C53E000824
:1000B000C53E0008C53E0008C53E0008C53E000814
:1000C000C53E0008C53E0008C53E0008C53E000804
:1000D000C53E0008C53E0008C53E0008C53E0008F4
:1000E000C53E0008C53E0008C53E0008C53E0008E4
:1000F000C53E0008C53E0008C53E0008C53E0008D4
:10010000C53E0008C53E0008C53E0008C53E0008C3
:10011000C53E0008C53E0008C53E0008C53E0008B3
:10012000C53E0008C53E0008C53E0008C53E0008A3
:10013000C53E0008C53E0008C53E0008C53E000893
:10014000C53E0008C53E0008C53E0008C53E000883
:10015000C53E0008C53E0008C53E0008C53E000873
:10016000C53E0008C53E0008C53E0008C53E000863
:10017000C53E0008C53E0008C53E0008C53E000853
:08018000C53E0008C53E000861
:1001880010B5054C237833B9044B13B10448AFF3C9
:1001980000800123237010BD5C04002000000000D3
:1001A8005043000808B5034B1BB103490348AFF39C
:1001B800008008BD000000006004002050430008D3
:1001C800154B002B08BF134B9D46A3F5803A002121
:1001D8008B460F461348144A121A03F0A5FE0F4B1C
:1001E800002B00D098470E4B002B00D098470020DA
:1001F800002104000D000D48002802D00C4803F02F
:100208005BFF03F06DFE2000290003F051FD03F0B1
:1002180057FE00BF000008000000000000000000BA
:10022800000000005C040020B4040020C140000865
:10023800CD40000890F84030DFED117A30B49DB21F
:1002480000EB830383ED000A00F120012B4600F147
:10025800400403F00702F1EC016A00EB820292ED20
:10026800007A0133A1429BB2E6EE877AF1D10135DB
:1002780005F0070580F84050B0EE670A30BC7047BB
:100288000000000070B400230C4D0D4C0D490E4ABF
:100298000562002680F84060C56344628463036099
:1002A80043608360C360036143618361C3618162AA
:1002B8004163C262026370BC704700BF0AD7233C27
:1002C800CDCC4C3D8FC2F53D0AD7A33EFEE700BF1B
:1002D8003849394BD1F88820384842F47002C1F8BF
:1002E80088201A68002142F001021A6099601A6891
:1002F80022F0847222F480321A6058601A6882B040
:1003080022F480221A60D960009101911A6842F49F
:1003180080321A601A4603E0009BB3F5A06F09D03B
:10032800136803F400330193009B01330093019B8E
:10033800002BF1D0204B1B6813F4003318BF0123A6
:100348000193019B012B05D01A4B4FF000629A6074
:1003580002B07047184B1A491A6C1A4842F080527A
:100368001A640A6842F480420A609A689A609A6835
:1003780042F400429A609A6842F4A0529A60586027
:100388001A6842F080721A601A689201FCD50E4908
:10039800094A40F205600860996821F003019960F4
:1003A800996841F002019960936803F00C03082BE7
:1003B800FAD1C9E700ED00E000380240103000240F
:1003C8000070004019544007003C0240154A9368E9
:1003D80003F00C03042B23D0082B09D0124B114A2D
:1003E80012499268C2F303128A5CD3400B617047CA
:1003F8005068516852684302C2F3881201F03F0105
:100408004CBF0B4B084BB3FBF1F303FB02F3054A5C
:100418005268C2F3014201325200B3FBF2F3DEE745
:10042800034BDCE7003802400024F40004000020FD
:1004380000127A002DE9F0478AB001246846DFF8F7
:100448003CA1DFF83C91484E01F0C8F8022700258E
:100458004FF0100821460B208DF804408DF80770E6
:100468008DF80570CDF800808DF8065000F0A8FCD6
:100478006946504601F012F84FF410736946484631
:1004880000938DF804708DF806408DF805708DF88E
:10049800075001F003F848460422062101F05EFBEC
:1004A80004224846092101F059FB21464FF4021065
:1004B80000F0FAFC2D4F204600F0C8FA4FF4A45380
:1004C8006946304600938DF8065000F0E7FF69460C
:1004D8003846CDF8008000F0E1FF384606220421B6
:1004E80001F03CFB30460622072101F037FB30467D
:1004F80006220A2101F032FB062230460C2101F0C7
:100508002DFBA9F5E4394146504601F019FA484651
:1005180002F022FAA7F5D6374FF000724BF6803377
:1005280002A948464FF40076CDE902620493ADF87B
:10053800145002F0E1FA384601F064FB0C4A0D4B06
:10054800069321460C4C4FF480433846CDE90742C8
:10055800ADF8243001F064FC384606A901F08CFBA4
:100568000AB0BDE8F08700BF000802400000024062
:1005780033000004A08601000000FFBF000C024009
:1005880000040240F8B5224C06460F464FF40031ED
:10059800204602F0BFF80028F8D11D481D4D012162
:1005A800044601F069FC2946204602F0B3F8002809
:1005B800F9D0002294211648174D154C01F0B4FCCF
:1005C8002946204602F024F80028F9D097B1013FC7
:1005D8000F4C124D56FA87F7013E16F8011F2046B8
:1005E80001F082FE2946204602F012F80028F9D0D0
:1005F800BE42F2D10A4D064C2946204602F08AF83E
:100608000028F9D001210248BDE8F84001F060BC9B
:10061800005400400100001082000700800007001D
:100628000400001038B505464FF400312F4802F099
:1006380071F80028F8D101212C482D4C01F01CFC40
:1006480021462A4802F066F80028F9D000229421B1
:100658002648284C01F068FC2146244801F0D8FFC0
:100668000028F9D029462148234C01F03DFE2146B7
:100678001E4801F0CDFF0028F9D001211B4801F0E8
:1006880027FC4FF40031194802F044F80028F8D14B
:1006980001461648164C01F071FC0121134801F07F
:1006A800EBFB2146114802F035F80028F9D00F4835
:1006B800124D01229421044601F036FC29462046B9
:1006C80001F0A6FF0028F9D00D4C0848214601F09A
:1006D8009FFF0028F9D0054801F020FE01210446BB
:1006E800024801F0F5FB204638BD00BF0054004029
:1006F80001000010820007008000070002000300CC
:100708004000030030B583B002AC1021434801F02B
:10071800DFF840F20D1324F8083D02212046FFF7C8
:1007280031FF20464FF419430221ADF80030FFF79E
:1007380029FF48F2470320460221ADF80030FFF7B1
:1007480021FF3220FFF76EFF322560F07F03022180
:1007580020468DF801308DF80050FFF713FF28462A
:10076800FFF760FF022100F07F0320468DF801307B
:100778008DF80050FFF706FF204600230221ADF850
:100788000030FFF7FFFE20464AF604730221ADF859
:100798000030FFF7F7FE204647F20D030221ADF8BF
:1007A8000030FFF7EFFE204648F205130221ADF8AE
:1007B8000030FFF7E7FE40F2067320460221ADF84D
:1007C80000300A25FFF7DEFE20460221ADF8005072
:1007D800FFF7D8FE204627230221ADF80030FFF7A7
:1007E800D1FE204640F69A230321ADF800308DF85B
:1007F8000250FFF7C7FE204640F61F730221ADF8EE
:100808000030FFF7BFFE49F6026320460221ADF82B
:100818000030FFF7B7FE03B030BD00BF000C024048
:100828000A4B0B481A68002142F001021A609960CD
:100838001A6822F0847222F480321A6058601A68AA
:1008480022F480221A60D960704700BF0038024045
:1008580010300024012810B5044605D9052803D016
:10086800F0210448FFF732FD034B00221A701C7078
:1008780010BD00BFE84100080238024082B00023E2
:10088800094A0193136813F4003F019B03F1010324
:100898000193019B02D1B3F5A06FF3D1024B186805
:1008A800C0F3404002B07047003802401F2810B51E
:1008B800044604D94FF494710548FFF707FD054B2A
:1008C800186820F0F80040EAC400186010BD00BFA6
:1008D800E841000800380240012810B5044604D950
:1008E80040F24B110248FFF7F1FC024B1C6010BDAF
:1008F800E841000800004742012810B504460ED917
:10090800042807D10B4B00221A701A70094B0522D4
:100918001A7010BD4FF4B2710748FFF7D7FC054BAA
:100928000022012C1A701A7002D0042CEED010BDCF
:100938001C7010BD70380240E8410008012810B54D
:10094800044604D94FF4C6710248FFF7BFFC024BB6
:100958001C6010BDE8410008800E47422DE9F041B7
:100968001D4630F4800306460C469046069F04D088
:1009780040F2B7111B48FFF7A9FC3F2C2BD8A8F170
:10098800C003F02B21D8082D19D94FF4DD71154873
:10099800FFF79CFC3B1F0B2B04D940F2BB111148FD
:1009A800FFF794FC44EA88106D0840EA0760013DAF
:1009B80040EA05400C4B30435860BDE8F0814FF4E5
:1009C800AA73EB40DB07E5D4DFE740F2B91105482D
:1009D800FFF77CFCD7E74FF4DC710248FFF776FCA1
:1009E800CDE700BFE841000800380240012810B5F3
:1009F800044604D94FF4E7710248FFF767FC024B3D
:100A08001C6010BDE84100086000474238B5A0F1FD
:100A1800C003F02B05460C460ED8A31E052B04D99F
:100A280040F2E9110748FFF751FC2407064B44EA56
:100A38008514C3F8844038BD4FF4F4710148FFF7BA
:100A480045FCEAE7E841000800380240012810B5F3
:100A5800044604D940F2F7110248FFF737FC024B6D
:100A68001C6010BDE841000868004742012810B525
:100A7800044604D940F209210248FFF727FC024B3B
:100A88001C6010BDE84100084C00474238B530F4FE
:100A9800C00304460D4604D04FF409710D48FFF712
:100AA80015FC35F080630CD025F00073B3F1A06F0E
:100AB80007D0B5F1C06F04D040F225210548FFF7F3
:100AC80005FC054B996821F0EC61294321439960A5
:100AD80038BD00BFE84100080038024038B530F0A2
:100AE800404304460D4604D040F24A210D48FFF722
:100AF800EDFB35F000530CD025F08053B3F1205FA7
:100B080007D0B5F1405F04D040F24B210548FFF70C
:100B1800DDFB054B996821F0784129432143996011
:100B280038BD00BFE841000800380240022810B56F
:100B3800044604D94FF42D710448FFF7C7FB044A53
:100B4800936823F003031C43946010BDE841000838
:100B580000380240024B986800F00C00704700BF54
:100B68000038024030F0800310B5044612D020F05F
:100B78002003902B0ED020F04003A02B0AD020F0A9
:100B88001003C02B06D0F02804D040F2E921054814
:100B9800FFF79CFB044A936823F0F0031C4394601E
:100BA80010BD00BFE84100080038024030F480530F
:100BB80010B504460CD020F40063B3F5A05F07D04D
:100BC800B0F5C05F04D040F209310548FFF77EFB5D
:100BD800044A936823F4E0531C43946010BD00BF9B
:100BE800E84100080038024030F4805310B504464C
:100BF8000CD020F40063B3F5A05F07D0B0F5C05F58
:100C080004D04FF44A710548FFF760FB044B98681D
:100C180020F4604040EAC400986010BDE841000834
:100C2800003802401F4A936803F00C03042B10B4E9
:100C380034D0082B19D01C4B03601A4A1B499468FE
:100C4800C4F303140C5DE34043609468C4F3822446
:100C58000C5D23FA04F4846092685DF8044BC2F3D7
:100C680042328A5CD340C360704754685168526806
:100C78006302C2F3881201F03F014CBF0C4B0A4BD0
:100C8800B3FBF1F303FB02F3064A5268C2F30142D5
:100C980001325200B3FBF2F30360CEE7044B03606A
:100CA800CBE700BF003802400024F4001800002001
:100CB80000127A00B0F5807F10B5044632D0B0F546
:100CC800007F2FD0204B20F4A0229A4220F48031BC
:100CD8002FD01E4B20F410229A422AD01C4A20F40E
:100CE8004033934225D002F5C02220F48810904268
:100CF8001FD002F5003293421BD002F580229342A6
:100D080017D002F58022934213D0124B994210D08B
:100D180040F2D9311048FFF7D9FA04F44073B3F51B
:100D2800407F06D00D4B1A6FC4F30B0414431C67A5
:100D380010BD0A498A6824F0704322F4F81223F49B
:100D4800407313438B60EDE70003020000030400C7
:100D58000003080000031C00E841000800380240B6
:100D6800012810B5044604D940F2F7310248FFF7CC
:100D7800ADFA024B1C6010BDE84100083C0E47422A
:100D8800012810B5044604D94FF481610248FFF7E1
:100D98009DFA024B1C6010BDE8410008400E474216
:100DA800012810B5044604D940F219410248FFF75A
:100DB8008DFA024B1C6010BDE84100085C014742F7
:100DC80038B5104B034004460D464BB940B1012DD0
:100DD8000DD88DB90C4A136B23EA0404146338BD8B
:100DE8004FF488610948FFF771FA012DF1D940F2F3
:100DF80042410648FFF76AFA034A136B1C4314631F
:100E080038BD00BF00EE8B8100380240E841000881
:100E180038B530F0F10304460D4609D140B1012D33
:100E28000DD88DB90B4A536B23EA0404546338BDBB
:100E38004FF48C610848FFF749FA012DF1D940F2C7
:100E480061410548FFF742FA024A536B1C43546359
:100E580038BD00BF00380240E841000838B530F01E
:100E6800010304460D4609D140B1012D0DD88DB9B5
:100E78000B4A936B23EA0404946338BD40F27B4128
:100E88000848FFF723FA012DF1D940F27C410548C3
:100E9800FFF71CFA024A936B1C43946338BD00BFEA
:100EA80000380240E841000838B5104B18420446A3
:100EB8000D4609D140B1012D0DD88DB90C4A136CDE
:100EC80023EA0404146438BD40F2AD410948FFF731
:100ED800FDF9012DF1D940F2AE410648FFF7F6F9C8
:100EE800034A136C1C43146438BD00BF003601C9A3
:100EF80000380240E841000838B5104B034004466A
:100F08000D464BB940B1012D0DD88DB90C4A536C23
:100F180023EA0404546438BD40F2D5410948FFF778
:100F2800D5F9012DF1D940F2D6410648FFF7CEF99F
:100F3800034A536C1C43546438BD00BFCCA0F8FF6F
:100F480000380240E841000838B5104B0340044619
:100F58000D464BB940B1012D0DD88DB90C4A136916
:100F680023EA0404146138BD40F2FC410948FFF744
:100F7800ADF9012DF1D940F2FD410648FFF7A6F978
:100F8800034A13691C43146138BD00BF00EE9FDD9E
:100F980000380240E841000838B530F0F103044653
:100FA8000D4609D140B1012D0DD88DB90B4A5369B1
:100FB80023EA0404546138BD40F219510848FFF788
:100FC80085F9012DF1D940F21A510548FFF77EF94C
:100FD800024A53691C43546138BD00BF00380240BF
:100FE800E841000838B530F0010304460D4609D140
:100FF80040B1012D0DD88DB90B4A936923EA040439
:10100800946138BD40F231510848FFF75FF9012D6E
:10101800F1D940F232510548FFF758F9024A93696D
:101028001C43946138BD00BF00380240E841000805
:1010380038B5104B184204460D4609D140B1012D70
:101048000DD88DB90C4A136A23EA0404146238BD1A
:101058004FF4AC610948FFF739F9012DF1D940F295
:1010680061510648FFF732F9034A136A1C431462B8
:1010780038BD00BF003601C900380240E841000809
:1010880038B5104B034004460D464BB940B1012D0D
:101098000DD88DB90C4A536A23EA0404546238BD4A
:1010A80040F284510948FFF711F9012DF1D940F2B6
:1010B80085510648FFF70AF9034A536A1C435462EC
:1010C80038BD00BFCCA6F8FF00380240E841000850
:1010D80038B5104B034004460D464BB940B1012DBD
:1010E8000DD88DB90C4A136D23EA0404146538BD74
:1010F80040F2B2510948FFF7E9F8012DF1D940F261
:10110800B3510648FFF7E2F8034A136D1C43146510
:1011180038BD00BF006E988100380240E8410008E1
:1011280038B530F0F10304460D4609D140B1012D20
:101138000DD88DB90B4A536D23EA0404546538BDA4
:1011480040F2D2510848FFF7C1F8012DF1D940F219
:10115800D3510548FFF7BAF8024A536D1C4354654A
:1011680038BD00BF00380240E841000838B530F00B
:10117800010304460D4609D140B1012D0DD88DB9A2
:101188000B4A936D23EA0404946538BD40F2ED518F
:101198000848FFF79BF8012DF1D940F2EE510548B8
:1011A800FFF794F8024A936D1C43946538BD00BF5D
:1011B80000380240E841000838B5104B1842044690
:1011C8000D4609D140B1012D0DD88DB90C4A136EC9
:1011D80023EA0404146638BD40F21F610948FFF78A
:1011E80075F8012DF1D94FF4C4610648FFF76EF880
:1011F800034A136E1C43146638BD00BF003601C98C
:1012080000380240E841000838B5104B0340044656
:101218000D464BB940B1012D0DD88DB90C4A536E0E
:1012280023EA0404546638BD40F247610948FFF7D1
:101238004DF8012DF1D94FF4C9610648FFF746F87A
:10124800034A536E1C43546638BD00BFCCA0F8FF58
:1012580000380240E841000810F0C00F38B50446D5
:101268000D4609D140B1012D0DD88DB90B4A13781F
:1012780023EA0404147038BD40F274610848FFF78B
:1012880025F8012DF1D940F275610548FFF71EF8E0
:10129800024A13781C43147038BD00BF0D38024051
:1012A800E841000800F0EF03212B10B504460BD0ED
:1012B800392809D0412819D061281FD0A0F1790315
:1012C800062B1BD93B2807D1104B186804F01F04C4
:1012D800E04000F0010010BD40F29C610C48FEF7B0
:1012E800F5FF6309012BEFD0022B07D1074B186FCD
:1012F80004F01F04E04000F0010010BD034B586FDC
:1013080004F01F04E04000F0010010BD0038024066
:10131800E8410008024A536F43F0807353677047EF
:1013280000380240431EDBB21F2B10B5044607D914
:1013380080280AD040F2DA610748FEF7C7FF04E0C8
:10134800064A22FA03F3DB07F4D5054BDB681C4297
:1013580014BF0120002010BDE84100088B800080E8
:1013680000380240430610B5044600D420B940F2C4
:10137800F9610348FEF7AAFF024B1C7010BD00BFBD
:10138800E84100080E38024008B5424B98422FD079
:1013980003F58063984221D003F58063984247D0D3
:1013A80003F5806398424DD003F58063984229D0B5
:1013B80003F5806398424FD003F58063984255D077
:1013C80003F5806398425BD003F58063984223D08D
:1013D8007B213148BDE80840FEF778BF0121022093
:1013E800FFF7B2FD00210220BDE80840FFF7ACBDC1
:1013F80001210846FFF7A8FD00210120BDE80840AB
:10140800FFF7A2BD01211020FFF79EFD002110204B
:10141800BDE80840FFF798BD01214FF48070FFF741
:1014280093FD00214FF48070BDE80840FFF78CBDA4
:1014380001210420FFF788FD00210420BDE80840B1
:10144800FFF782BD01210820FFF77EFD002108205B
:10145800BDE80840FFF778BD01212020FFF774FDA3
:1014680000212020BDE80840FFF76EBD0121402083
:10147800FFF76AFD00214020BDE80840FFF764BD82
:1014880001218020FFF760FD00218020BDE8084091
:10149800FFF75ABD00000240404200082DE9F84F0E
:1014A8004C4B984205460E4623D003F5806398427C
:1014B8001FD003F5806398421BD003F580639842E0
:1014C80017D003F58063984213D003F580639842E0
:1014D8000FD003F5806398420BD003F580639842E0
:1014E80007D003F58063984203D0BB213A48FEF742
:1014F800EDFE3368002B68D03379032B60D8F3797D
:10150800022B58D8344F00244FF001084FF003093C
:1015180002E00134102C26D0326808FA04F3934311
:10152800F7D14FEA440A2A68337909FA0AFB6FEAC5
:101538000B0B02EA0B022A60296803FA0AF2013B44
:101548000A43012B2A6010D9EA68F37909FA0AF1EB
:1015580022EA0102EA60EA6803FA0AF30134134353
:10156800102CEB60D8D1BDE8F88F717903291CD80D
:10157800AA68B3790BEA0202AA60AA6801FA0AF11A
:101588001143012BA96004D9D7213846FEF79EFEE6
:10159800B3796A6808FA04F122EA01026A606A68A3
:1015A800A3409BB213436B60CEE7D0213846FEF7C9
:1015B8008DFE7179DCE7BE210748FEF787FEA1E7BB
:1015C800BD210548FEF782FE99E7BC210248FEF7D7
:1015D8007DFE91E7000002404042000800234FF6DC
:1015E800FF720260037143718371C371704700BF5A
:1015F80030B5214B83B04FF48032984204460D46F3
:10160800019224D003F58063984220D003F58063CB
:1016180098421CD003F58063984218D003F5806384
:10162800984214D003F58063984210D003F5806384
:1016380098420CD003F58063984208D003F5806384
:10164800984204D04FF482710C48FEF73FFE25B94A
:1016580040F205110948FEF739FE019B2B4301931F
:10166800019BE361E561019BE361E3690193E36940
:10167800019303B030BD00BF0000024040420008A3
:1016880038B52D4B984204460D4624D003F58063A7
:10169800984220D003F5806398421CD003F58063FC
:1016A800984218D003F58063984214D003F58063FC
:1016B800984210D003F5806398420CD003F58063FC
:1016C800984208D003F58063984204D04FF498718B
:1016D8001A48FEF7FBFD6B1E9BB21F2B21D9402D2C
:1016E80024D0802D22D0B5F5807F1FD0B5F5007F9E
:1016F8001CD0B5F5806F19D0B5F5006F16D0B5F5CB
:10170800805F13D0B5F5005F10D0B5F5804F0DD0D0
:10171800B5F5004F0AD040F231110848FEF7D6FD62
:1017280004E0074A22FA03F3DB07DAD523691D42EE
:1017380014BF0120002038BD0000024040420008CC
:101748008B800080164B984210B5044624D003F5D0
:101758008063984220D003F5806398421CD003F53B
:101768008063984218D003F58063984214D003F53B
:101778008063984210D003F5806398420CD003F53B
:101788008063984208D003F58063984204D04FF4F0
:10179800A3710448FEF79AFD206980B210BD00BF0E
:1017A800000002404042000838B52D4B98420446DC
:1017B8000D4624D003F58063984220D003F580635A
:1017C80098421CD003F58063984218D003F58063D3
:1017D800984214D003F58063984210D003F58063D3
:1017E80098420CD003F58063984208D003F58063D3
:1017F800984204D040F257111A48FEF767FD6B1E55
:101808009BB21F2B21D9402D24D0802D22D0B5F595
:10181800807F1FD0B5F5007F1CD0B5F5806F19D03B
:10182800B5F5006F16D0B5F5805F13D0B5F5005F3C
:1018380010D0B5F5804F0DD0B5F5004F0AD04FF454
:10184800AC710848FEF742FD04E0074A22FA03F3A8
:10185800DB07DAD563691D4214BF0120002038BDBB
:1018680000000240404200088B800080164B9842DE
:1018780010B5044624D003F58063984220D003F5C0
:10188800806398421CD003F58063984218D003F512
:101898008063984214D003F58063984210D003F512
:1018A800806398420CD003F58063984208D003F512
:1018B8008063984204D040F26D110448FEF706FD9B
:1018C800606980B210BD00BF0000024040420008BD
:1018D80038B5194B984204460D4624D003F5806369
:1018E800984220D003F5806398421CD003F58063AA
:1018F800984218D003F58063984214D003F58063AA
:10190800984210D003F5806398420CD003F58063A9
:10191800984208D003F58063984204D040F27F11C2
:101928000648FEF7D3FC25B94FF4C0710348FEF70B
:10193800CDFC258338BD00BF0000024040420008AE
:1019480038B5194B984204460D4624D003F58063F8
:10195800984220D003F5806398421CD003F5806339
:10196800984218D003F58063984214D003F5806339
:10197800984210D003F5806398420CD003F5806339
:10198800984208D003F58063984204D04FF4C97197
:101998000648FEF79BFC25B940F293110348FEF771
:1019A80095FC658338BD00BF000002404042000836
:1019B80030B5344B984283B004460D4626D003F523
:1019C8008063984222D003F5806398421ED003F5C5
:1019D800806398421AD003F58063984216D003F5C5
:1019E8008063984212D003F5806398420ED003F5C5
:1019F800806398420AD003F58063984206D04FF47A
:101A0800D37121480192FEF761FC019A6B1E9BB2CB
:101A18001F2B23D9402D26D0802D24D0B5F5807FCB
:101A280021D0B5F5007F1ED0B5F5806F1BD0B5F578
:101A3800006F18D0B5F5805F15D0B5F5005F12D0EE
:101A4800B5F5804F0FD0B5F5004F0CD040F2A71177
:101A58000D480192FEF73AFC019A04E00B4921FA7D
:101A680003F3DB07D8D5012A03D83AB9658303B055
:101A780030BD4FF4D4710448FEF728FC258303B029
:101A880030BD00BF00000240404200088B8000804B
:101A980038B5164B984204460D4624D003F58063AA
:101AA800984220D003F5806398421CD003F58063E8
:101AB800984218D003F58063984214D003F58063E8
:101AC800984210D003F5806398420CD003F58063E8
:101AD800984208D003F58063984204D040F2BD11C3
:101AE8000348FEF7F3FB656138BD00BF0000024004
:101AF8004042000838B5174B984204460D4624D09A
:101B080003F58063984220D003F5806398421CD087
:101B180003F58063984218D003F58063984214D087
:101B280003F58063984210D003F5806398420CD087
:101B380003F58063984208D003F58063984204D087
:101B480040F2CB110448FEF7C1FB63695D40656153
:101B580038BD00BF0000024040420008274B9842B1
:101B680070B504460D46164624D003F580639842A6
:101B780020D003F5806398421CD003F58063984217
:101B880018D003F58063984214D003F58063984217
:101B980010D003F5806398420CD003F58063984217
:101BA80008D003F58063984204D040F21721144806
:101BB800FEF78CFB0F2D1AD80D2E06D90F2E04D048
:101BC80040F219210E48FEF781FBEB0804EB830471
:101BD80005F00705236AAD000F22AA4023EA020395
:101BE8002362226A06FA05F51543256270BD4FF493
:101BF80006710348FEF76AFBDEE700BF00000240FB
:101C08004042000808B51A4B984219D003F5806382
:101C1800984209D003F5806398421DD08721154862
:101C2800BDE80840FEF752BB01214FF48000FFF7E2
:101C3800FFF900214FF48000BDE80840FFF7F8B92C
:101C480001214FF40010FFF7F3F900214FF40010C1
:101C5800BDE80840FFF7ECB901214FF40000FFF799
:101C6800E7F900214FF40000BDE80840FFF7E0B9AC
:101C7800005400409C420008F0B55B4B984285B088
:101C880004460E460BD003F58063984207D003F54F
:101C98008063984203D0B6215448FEF717FB336897
:101CA800534A013B934200F28F80B38823F002022B
:101CB80012B10A2B40F09380F388B3F5804F03D01C
:101CC8004BF6FF72934269D13389B3F5806F6DD2B9
:101CD800738923F48063002B71D1B389C3F30E0396
:101CE800B3F5804F03D0BC214048FEF7EFFA6846B1
:101CF800A588FEF797FF02983E493368DFF800C1D0
:101D0800A1FB002125F03F052D04890C2D0C8FB275
:101D18003D43A580228822F001021204120C63457B
:101D280022801BD85B00B0FBF3F39BB20137042B76
:101D380038BF04232784A3832288B18875892E4B52
:101D4800308942F0010222802788B2893B4029432A
:101D58000B4302432380228105B0F0BDF5884BF682
:101D6800FF72954235D003EB830303EB8303B0FB8B
:101D7800F3F39BB243F48043C3F30B020AB943F075
:101D880001034FF496721D4802FB01F1A0FB0121EB
:101D98008909013143F400432184CCE7B921134870
:101DA800FEF794FA3389B3F5806F91D3BA210F48BF
:101DB800FEF78CFA738923F48063002B8DD0BB2146
:101DC8000A48FEF783FA88E7B7210848FEF77EFA43
:101DD8006BE703EB4303B0FBF3F39BB2CCE7B8210B
:101DE8000248FEF773FA67E7005400409C42000877
:101DF8007F1A060083DE1B43F5FBFFFFD34D6210FD
:101E0800A086010041F288330449036000224FF4A0
:101E18008043C0E901128381704700BF0000FFBF03
:101E280038B5134B984204460D460CD003F5806331
:101E3800984208D003F58063984204D040F23711E5
:101E48000C48FEF743FA012D07D85DB9238823F023
:101E580001031B041B0C238038BD4FF49C710548FB
:101E6800FEF734FA238843F00103238038BD00BF0E
:101E7800005400409C42000838B5134B9842044671
:101E88000D460CD003F58063984208D003F58063B3
:101E9800984204D040F24F110C48FEF717FA012D72
:101EA80007D85DB9238823F480731B041B0C238097
:101EB80038BD4FF4A8710548FEF708FA238843F4A3
:101EC8008073238038BD00BF005400409C42000846
:101ED80038B5134B984204460D460CD003F5806381
:101EE800984208D003F58063984204D040F2671105
:101EF8000C48FEF7EBF9012D07D85DB9238823F4C8
:101F080000731B041B0C238038BD4FF4B4710548C3
:101F1800FEF7DCF9238843F40073238038BD00BF43
:101F2800005400409C420008124B984270B5054688
:101F38000C4616460CD003F58063984208D003F58A
:101F48008063984204D040F283110B48FEF7BEF933
:101F5800012E05D84EB904F0FE04A4B22C8270BD3F
:101F68004FF4C2710448FEF7B1F944F00104A4B279
:101F78002C8270BD005400409C42000838B5134BB9
:101F8800984204460D460CD003F58063984208D069
:101F980003F58063984204D04FF4CF710C48FEF7E4
:101FA80095F9012D07D85DB9238823F480631B04B4
:101FB8001B0C238038BD40F29F110548FEF786F9B7
:101FC800238843F48063238038BD00BF0054004059
:101FD8009C42000838B50D4B984205460C460CD07B
:101FE80003F58063984208D003F58063984204D0D3
:101FF80040F2B7110648FEF769F9AB899BB204F0C5
:10200800FE0423F0FE031C43AC8138BD005400409D
:102018009C42000838B5134B984204460D460CD034
:1020280003F58063984208D003F58063984204D092
:102038004FF4E8710C48FEF749F9012D07D85DB94E
:10204800A38923F001031B041B0CA38138BD40F2B4
:10205800D1110548FEF73AF9A38943F00103A3819A
:1020680038BD00BF005400409C42000838B5134BEF
:10207800984204460D460CD003F58063984208D078
:1020880003F58063984204D04FF4F4710C48FEF7CE
:102098001DF9012D07D85DB9238823F040031B04DF
:1020A8001B0C238038BD40F2E9110548FEF70EF9F4
:1020B800238843F04003238038BD00BF005400400C
:1020C8009C42000838B5124B984204460D460CD085
:1020D80003F58063984208D003F58063984204D0E2
:1020E80040F202210B48FEF7F1F8012D05D84DB951
:1020F8002388C3F30E03238038BD40F2032105482B
:10210800FEF7E4F8238843F40043238038BD00BF7A
:10211800005400409C42000838B5134B98420446CE
:102128000D460CD003F58063984208D003F5806310
:10213800984204D040F21A210C48FEF7C7F8012D46
:1021480005D84DB9238843F08003238038BD40F279
:102158001B210648FEF7BAF8238823F080031B04E6
:102168001B0C238038BD00BF005400409C4200086F
:1021780038B5154B984204460D460CD003F58063DC
:10218800984208D003F58063984204D04FF40D714B
:102198000E48FEF79BF8B5F5804F10D04BF6FF734D
:1021A8009D4206D1A38B23F480431B041B0CA383FD
:1021B80038BD40F235210548FEF788F8F2E7A38BD1
:1021C80043F48043A38338BD005400409C42000878
:1021D80038B5154B984204460D460CD003F580637C
:1021E800984208D003F58063984204D040F25A21FF
:1021F8000E48FEF76BF8B5F5006F10D04FF2FF737D
:102208009D4206D1238823F400631B041B0C238002
:1022180038BD40F25B210548FEF758F8F2E72388FD
:1022280043F40063238038BD005400409C420008FA
:1022380038B5154B984204460D460CD003F580631B
:10224800984208D003F58063984204D040F2762182
:102258000E48FEF73BF8B5F5005F10D04DF6FF735A
:102268009D4206D1238823F400531B041B0C2380B2
:1022780038BD40F277210548FEF728F8F2E72388B1
:1022880043F40053238038BD005400409C420008AA
:1022980038B5134B984204460D460CD003F58063BD
:1022A800984208D003F58063984204D040F28E210A
:1022B8000C48FEF70BF8012D07D85DB9238823F0E9
:1022C80010031B041B0C238038BD40F28F210548E6
:1022D800FDF7FCFF238843F01003238038BD00BFBF
:1022E800005400409C42000838B50A4B9842044606
:1022F8000D460CD003F58063984208D003F580633F
:10230800984204D04FF42D710348FDF7DFFFADB2BA
:10231800258238BD005400409C4200080A4B984270
:1023280010B504460CD003F58063984208D003F535
:102338008063984204D040F2C1210448FDF7C6FFEB
:10234800208AC0B210BD00BF005400409C42000863
:1023580038B5134B984204460D460CD003F58063FC
:10236800984208D003F58063984204D04FF438713E
:102378000C48FDF7ABFF012D07D85DB9238823F47E
:1023880080531B041B0C238038BD40F2E121054813
:10239800FDF79CFF238843F48053238038BD00BF9A
:1023A800005400409C42000838B5154B984204463A
:1023B8000D460CD003F58063984208D003F580637E
:1023C800984204D040F2FF210E48FDF77FFFB5F593
:1023D800006F10D04FF2FF739D4206D1238823F47B
:1023E80000631B041B0C238038BD4FF44071054863
:1023F800FDF76CFFF2E7238843F40063238038BDC0
:10240800005400409C42000838B5134B98420446DB
:102418000D460CD003F58063984208D003F580631D
:10242800984204D040F217310C48FDF74FFF012DB8
:1024380007D85DB9238823F020031B041B0C2380D5
:1024480038BD4FF446710548FDF740FF238843F037
:102458002003238038BD00BF005400409C42000880
:102468000A4B984210B504460CD003F58063984295
:1024780008D003F58063984204D040F22D31044817
:10248800FDF724FF208B000A10BD00BF0054004058
:102498009C42000838B5134B984204460D460CD0B0
:1024A80003F58063984208D003F58063984204D00E
:1024B80040F24E310C48FDF709FF012D07D85DB9F0
:1024C800A38823F400631B041B0CA38038BD40F2CF
:1024D8004F310548FDF7FAFEA38843F40063A38053
:1024E80038BD00BF005400409C42000838B5134B6B
:1024F800984204460D460CD003F58063984208D0F4
:1025080003F58063984204D040F266310C48FDF729
:10251800DDFE012D07D85DB9A38823F480531B0481
:102528001B0CA38038BD40F267310548FDF7CEFE8D
:10253800A38843F48053A38038BD00BF00540040F3
:102548009C42000830B5164B83B0002298420546DD
:102558000C4601920CD003F58063984208D003F52D
:102568008063984204D040F2F2310E48FDF7AEFE87
:102578001C2C09D9202C0CD10195019B1C440194D9
:10258800019B188803B030BD4FF01133E340DB07DF
:10259800F2D440F2F3310348FDF798FEECE700BFB0
:1025A800005400409C420008174B984270B50446FE
:1025B8000D4616460CD003F58063984208D003F503
:1025C8008063984204D040F20B411048FDF77EFE2C
:1025D800012E04D940F20C410C48FDF777FE25F492
:1025E800E06333B92DB1A3885EB923EA0505A58058
:1025F80070BD40F20D410548FDF768FEA388002E26
:10260800F3D01D43A58070BD005400409C420008D3
:1026180038B5284B984205460C460CD003F5806324
:10262800984208D003F58063984204D040F24A41AA
:102638002148FDF74BFE214A24F4803393422DD0E4
:10264800B4F1021F2AD01E4A24F00401914225D079
:1026580024F04002B2F5020F20D0B2F5901F1DD031
:10266800184A93421AD0184A934217D0174B9C42E3
:1026780014D0102C12D0A4F54033013B012B0DD9F6
:10268800134B9C420AD0134B9C4207D0B4F5806F81
:1026980004D040F24B410848FDF718FEA88A2A8B5F
:1026A80024F07F4340EA02401840001BB0FA80F053
:1026B800400938BD005400409C42000882000600D2
:1026C8008000860040000200840006008400160096
:1026D80080000700080003000C4B984210B5044620
:1026E8000CD003F58063984208D003F580639842C4
:1026F80004D040F279410648FDF7E8FDA08A238B13
:1027080040EA034020F07F4010BD00BF0054004065
:102718009C42000830B5394A83B0002390420093A8
:1027280005460C4601930BD0354B984208D003F56B
:102738008063984204D04FF496613248FDF7C6FD95
:10274800B4F5000F3BD0B4F5800F38D0B4F5001FB6
:1027580035D0B4F5801F32D0B4F5802F2FD0B4F522
:10276800003F2CD0B4F5803F29D0274B9C4226D07F
:10277800A3F580439C4222D0B4F1102F1FD0A3F5BB
:1027880060539C421BD0A3F580639C4217D0A3F5ED
:1027980000739C4213D0A3F580739C420FD0803BFA
:1027A8009C420CD0403B9C4209D004F17043013B51
:1027B8000F2B1BD940F2B1411248FDF787FD230FBB
:1027C80001950093009B24F07F4453B1019B14337F
:1027D8000193019B1B68234214BF0120002003B012
:1027E80030BD019B1833240C0193F2E748F28B02A9
:1027F80022FA03F3DB07E2D4DCE700BF0054004011
:10280800005800409C4200080080001038B5104B6A
:10281800984205460C460CD003F58063984208D0D0
:1028280003F58063984204D040F2FB410948FDF764
:102838004DFD42F2FF031C4200D124B940F2FC4195
:102848000448FDF743FDE443A4B2AC8238BD00BFA1
:10285800005400409C42000838B5284B9842054671
:102868000C460CD003F58063984208D003F58063CA
:10287800984204D040F21F512148FDF727FD214B13
:102888009C4226D0A3F580439C4222D0A3F5405316
:102898009C421ED0A3F500639C421AD0A3F5806326
:1028A8009C4216D0A3F500739C4212D0B4F1012FBC
:1028B8000FD0154B9C420CD0403B9C4209D004F1F0
:1028C8007E43013B0F2B11D94FF4A4610C48FDF74F
:1028D800FDFCAB88A88A20409BB206D003EA1443CB
:1028E80013F4E06F14BF0120002038BD48F28B02BA
:1028F80022FA03F3DB07ECD4E6E700BF00540040FC
:102908009C420008008000018000000638B5104B8A
:10291800984205460C460CD003F58063984208D0CF
:1029280003F58063984204D040F259510948FDF7F5
:10293800CDFC42F2FF031C4200D124B940F25A51A7
:102948000448FDF7C3FCE443A4B2AC8238BD00BF21
:10295800005400409C42000808B51A4B984219D010
:10296800A3F57843984209D003F5806398421DD0B7
:10297800DD211548BDE80840FDF7A8BC01214FF44A
:102988008040FEF755FB00214FF48040BDE8084029
:10299800FEF74EBB01214FF48050FEF771FB00217A
:1029A8004FF48050BDE80840FEF76ABB01214FF4A0
:1029B8000040FEF73DFB00214FF40040BDE8084011
:1029C800FEF736BB00300140F4420008484B9842FD
:1029D80070B505460C460CD0A3F57843984208D04C
:1029E80003F58063984204D04FF483714148FDF7A2
:1029F8006DFC238823F480624AB123F48043B3F545
:102A0800004F04D040F209113A48FDF75FFC638893
:102A1800B3F5827F01D0002B53D1A38823F4006340
:102A2800002B58D1E38823F0020323B14FF48671B9
:102A38003048FDF74BFC2389012B04D940F20D11D6
:102A48002C48FDF743FC638923F40073002B48D11D
:102A5800A38923F018039BB233B1202B04D040F292
:102A68000F112448FDF732FCE38923F0800323B1DA
:102A78004FF488711F48FDF729FC228A2AB940F2D1
:102A880011111C48FDF722FC228A61882388A0883E
:102A9800A6890B43E188034320890B4361890343DB
:102AA8000B43E08929883343034301F441510B4325
:102AB8002B80AB8B23F400631B041B0CAB832A8293
:102AC80070BD4FF485710B48FDF700FCA38823F413
:102AD8000063002BA6D040F20B110648FDF7F6FB69
:102AE800A0E74FF487710348FDF7F0FBB0E700BF9C
:102AF80000300140F44200085D4B98422DE9F04750
:102B080005460C4608D003F58063984204D04FF47C
:102B1800A5715848FDF7DAFB238823F4407323B1E5
:102B280040F24B115348FDF7D1FB638823F0300284
:102B380012B1B02B40F09280A288052A72D940F2D7
:102B48004D114C48FDF7C2FBE38823F40073002BBA
:102B580071D1A368484AA3F5FA51914201D9022BD1
:102B680076D1A08920F008032BB142484FF4A87110
:102B7800FDF7ACFBA089A98B404BA768A288E68823
:102B88000B400221AB832984A98B022F89B23BD049
:102B98003B4BD3F808C0002A0CBF4FF001084FF098
:102BA80002081CF4000F4CD1354BDFF8DCE0D3F8F9
:102BB80084A0D3F884C0D3F80490B6F5007FCAF394
:102BC8008813CCF3027C09F03F09BEFBF9FE03FB36
:102BD8000EF3B3FBFCF30EBF1B0A4FEA4818B3FB16
:102BE800F8F303EB83035B00B3FBF7F3254F0533DF
:102BF8009BB2A7FB0373DB085F08A7F1020CBCF1CB
:102C0800FD0F03F001032FD90223278864883A4374
:102C180042F40062224311431E4308432E84A883D2
:102C2800BDE8F0872B23D340DB0788D5E38823F45E
:102C38000073002B8DD04FF4A7710E48FDF746FBAB
:102C480087E7D3F808C02CF4000CC3F808C0ABE73A
:102C580040F24F110748FDF739FB82E74FF4A671A0
:102C68000448FDF733FB67E747EA0323CDE700BFD6
:102C780000380040F4420008C0CE020040F0FFFFD8
:102C880000380240CDCCCCCC00127A0000230722B9
:102C98000282038043808380C380038143818381D0
:102CA800C3817047002302228260C0E90033838118
:102CB800704700BF38B5134B984204460D460CD0F8
:102CC800A3F57843984208D003F58063984204D06E
:102CD80040F201210C48FDF7F9FA012D07D85DB93A
:102CE800238823F040031B041B0C238038BD40F2CB
:102CF80002210548FDF7EAFA238843F040032380C0
:102D080038BD00BF00300140F442000838B5144B0C
:102D1800984204460D460FD003F5806398420BD0C5
:102D2800A3F50063984207D0B0F1402F04D040F2D9
:102D38001A210C48FDF7CAFA012D07D85DB9A38BF3
:102D480023F480631B041B0CA38338BD40F21B21B2
:102D58000448FDF7BBFAA38B43F48063A38338BD13
:102D680000380040F442000838B5124B9842044637
:102D78000D460CD0A3F57843984208D003F580633C
:102D8800984204D040F235210B48FDF79FFA25F40C
:102D980000634BB9238823F400631B041B0C2380B6
:102DA80023881D43258038BD40F236210248FDF7AF
:102DB8008DFAEFE700300140F442000838B5154BB2
:102DC800984204460D460CD0A3F57843984208D0A3
:102DD80003F58063984204D040F249210E48FDF77C
:102DE80075FA4BF6FF739D420CD0B5F5804F04D1B0
:102DF800238843F48043238038BD40F24A210648A3
:102E0800FDF764FA238823F480431B041B0C2380FA
:102E180038BD00BF00300140F442000838B5154BFA
:102E2800984204460D460CD0A3F57843984208D042
:102E380003F58063984204D040F263210E48FDF701
:102E480045FAB5F5807F0FD04FF6FF639D4206D156
:102E5800238823F480731B041B0C238038BD4FF494
:102E680019710548FDF732FA238843F480732380EB
:102E780038BD00BF00300140F442000838B5134B9C
:102E8800984204460D460CD0A3F57843984208D0E2
:102E980003F58063984204D040F27B210C48FDF78B
:102EA80015FA012D07D85DB9A38823F004031B0484
:102EB8001B0CA38038BD4FF41F710548FDF706FAB7
:102EC800A38843F00403A38038BD00BF003001404D
:102ED800F442000838B5134B984204460D460CD00E
:102EE800A3F57843984208D003F58063984204D04C
:102EF80040F29A210C48FDF7E9F9012D07D85DB990
:102F0800A38823F010031B041B0CA38038BD40F2D8
:102F18009B210548FDF7DAF9A38843F01003A38045
:102F280038BD00BF00300140F4420008F8B52A4B14
:102F3800984205460C4607D0B0F1402F04D040F225
:102F4800C1212648FDF7C2F9238823F4407323B131
:102F580040F2C2212148FDF7B9F9638823F0300215
:102F68000AB1B02B31D1A288052A29D94FF4317181
:102F78001A48FDF7ABF9A28922F008032BB140F2F9
:102F8800C5211648FDF7A2F9A289AF8B14486388BA
:102F9800A688218838400224A8832C84A88B334330
:102FA80043F4006321F40071002943EA000343EA73
:102FB800020314BF00224FF480721343AB83F8BDA1
:102FC8002B23D340DB07D6D4D0E740F2C3210348F4
:102FD800FDF77CF9C7E700BF00340040F442000861
:102FE80040F0FFFF0D4B984210B5044613D0A3F5EF
:102FF800784398420FD003F5806398420BD0A3F52D
:103008000063984207D0B0F1402F04D040F20A3153
:103018000348FDF75BF9A08910BD00BF00300140EF
:10302800F442000838B50D4B984204460D4613D0BB
:10303800A3F5784398420FD003F5806398420BD0EC
:10304800A3F50063984207D0B0F1402F04D040F2B6
:103058001A310348FDF73AF9A58138BD003001401F
:10306800F442000838B5134B984204460D460CD07C
:10307800A3F57843984208D003F58063984204D0BA
:1030880040F273310C48FDF721F9012D07D85DB9DD
:10309800238823F400531B041B0C238038BD4FF4F2
:1030A8005D710548FDF712F9238843F40053238026
:1030B80038BD00BF00300140F44200080B4B984275
:1030C80010B504460CD0A3F57843984208D003F510
:1030D8008063984204D040F289310548FDF7F6F83C
:1030E800238843F48053238010BD00BF0030014083
:1030F800F442000838B5104B984204460D460CD0EF
:10310800A3F57843984208D003F58063984204D029
:103118004FF467710948FDF7D9F8012D03D807D195
:10312800A08A80B238BD40F29D310448FDF7CEF840
:10313800208B80B238BD00BF00300140F442000847
:10314800094B984210B504460CD0A3F57843984231
:1031580008D003F58063984204D04FF46D7103489A
:10316800FDF7B4F8208A10BD00300140F442000891
:103178001B4B984270B504460D46164613D0A3F56E
:10318800784398420FD003F5806398420BD0A3F59B
:103198000063984207D0B0F1402F04D040F2D931F3
:1031A8001048FDF793F8012E04D940F2DA310D48A2
:1031B800FDF78CF825F0030333B92DB1A3885EB968
:1031C80023EA0505A58070BD40F2DB310548FDF70F
:1031D8007DF8A388002EF3D01D43A58070BD00BFE5
:1031E80000300140F44200081C4B984270B5054677
:1031F8000C46164613D0A3F5784398420FD003F532
:10320800806398420BD0A3F50063984207D0B0F1D1
:10321800402F04D04FF489611148FDF757F8012E6B
:1032280004D940F249410E48FDF750F8712C08D0F6
:10323800602C06D0502C04D040F24A410848FDF7D3
:1032480045F824090121A14089B2AB881EB923EAB7
:103258000101A98070BD1943A98070BD00300140EB
:10326800F442000838B51A4B984204460D4613D06C
:10327800A3F5784398420FD003F5806398420BD0AA
:10328800A3F50063984207D0B0F1402F04D040F274
:1032980073411048FDF71AF8802D0DD0402D0BD042
:1032A8006B1E9BB21F2B0DD9B5F5807F04D040F261
:1032B80074410848FDF70AF823891D4214BF01200C
:1032C800002038BD044A22FA03F3DB07F4D4EEE702
:1032D80000300140F44200088B80008038B5124B62
:1032E800984205460C4613D0A3F5784398420FD070
:1032F80003F5806398420BD0A3F50063984207D08A
:10330800B0F1402F04D040F29B410848FCF7DEFFA3
:10331800102C04D040F29C410448FCF7D7FFE4434A
:10332800A4B22C8138BD00BF00300140F44200082F
:1033380038B51D4B984204460D4613D0A3F5784383
:1033480098420FD003F5806398420BD0A3F5006331
:10335800984207D0B0F1402F04D040F2B74113484B
:10336800FCF7B4FFA5F15303DBB21E2B16D94FF4BB
:1033780097610E48FCF7AAFFA288218905F00F0083
:10338800012303FA00F0084092B206D02D0903FA8F
:1033980005F52A4214BF1846002038BD044A22FA0F
:1033A80003F3DB07E8D4E2E700300140F442000809
:1033B8002F20004038B5144B984205460C4613D0D0
:1033C800A3F5784398420FD003F5806398420BD059
:1033D800A3F50063984207D0B0F1402F04D040F223
:1033E800EC410A48FCF772FF542C04D040F2ED413E
:1033F8000648FCF76BFF04F00F040123A340DB43EE
:103408009BB22B8138BD00BF00300140F442000858
:1034180080430008000000205C0400205C040020B9
:10342800B404002081F0004102E000BF83F00043B3
:1034380030B54FEA41044FEA430594EA050F08BF47
:1034480090EA020F1FBF54EA000C55EA020C7FEA0B
:10345800645C7FEA655C00F0E2804FEA5454D4EB88
:103468005555B8BF6D420CDD2C4480EA020281EA52
:10347800030382EA000083EA010180EA020281EA8A
:103488000303362D88BF30BD11F0004F4FEA0131DC
:103498004FF4801C4CEA113102D0404261EB4101EB
:1034A80013F0004F4FEA03334CEA133302D0524271
:1034B80063EB430394EA050F00F0A780A4F101042D
:1034C800D5F1200E0DDB02FA0EFC22FA05F2801867
:1034D80041F1000103FA0EF2801843FA05F359414D
:1034E8000EE0A5F120050EF1200E012A03FA0EFCCC
:1034F80028BF4CF0020C43FA05F3C01851EBE371F6
:1035080001F0004507D54FF0000EDCF1000C7EEB12
:1035180000006EEB0101B1F5801F1BD3B1F5001F50
:103528000CD349085FEA30004FEA3C0C04F101046F
:103538004FEA445212F5800F80F09A80BCF1004F98
:1035480008BF5FEA500C50F1000041EB045141EA1A
:10355800050130BD5FEA4C0C404141EB010111F41B
:10356800801FA4F10104E9D191F0000F04BF0146C6
:103578000020B1FA81F308BF2033A3F10B03B3F1A4
:1035880020020CDA0C3208DD02F1140CC2F10C0234
:1035980001FA0CF021FA02F10CE002F11402D8BF92
:1035A800C2F1200C01FA02F120FA0CFCDCBF41EA5E
:1035B8000C019040E41AA2BF01EB0451294330BD2D
:1035C8006FEA04041F3C1CDA0C340EDC04F114040A
:1035D800C4F1200220FA04F001FA02F340EA0300E1
:1035E80021FA04F345EA030130BDC4F10C04C4F127
:1035F800200220FA02F001FA04F340EA0300294607
:1036080030BD21FA04F0294630BD94F0000F83F450
:10361800801306BF81F480110134013D4EE77FEA33
:10362800645C18BF7FEA655C29D094EA050F08BF7F
:1036380090EA020F05D054EA000C04BF1946104660
:1036480030BD91EA030F1EBF0021002030BD5FEAA4
:10365800545C05D14000494128BF41F0004130BDCC
:1036680014F580043CBF01F5801130BD01F0004520
:1036780045F0FE4141F470014FF0000030BD7FEA93
:10368800645C1ABF194610467FEA655C1CBF0B468E
:10369800024650EA013406BF52EA033591EA030FA5
:1036A80041F4002130BD00BF90F0000F04BF00219D
:1036B800704730B54FF4806404F132044FF00005D0
:1036C8004FF0000150E700BF90F0000F04BF002149
:1036D800704730B54FF4806404F1320410F00045AF
:1036E80048BF40424FF000013EE700BF42004FEAAA
:1036F800E2014FEA31014FEA02701FBF12F07F4327
:1037080093F07F4F81F06051704732F07F4208BFDD
:10371800704793F07F4F04BF41F40021704730B5E4
:103728004FF4607401F0004521F000411CE700BF30
:1037380050EA010208BF704730B54FF000050AE0B3
:1037480050EA010208BF704730B511F0004502D5B4
:10375800404261EB41014FF4806404F132045FEAB6
:10376800915C3FF4D8AE4FF003025FEADC0C18BF5F
:1037780003325FEADC0C18BF033202EBDC02C2F151
:10378800200300FA03FC20FA02F001FA03FE40EAE3
:103798000E0021FA02F11444BDE600BF70B54FF0E7
:1037A800FF0C4CF4E06C1CEA11541DBF1CEA1355C5
:1037B80094EA0C0F95EA0C0F00F0DEF82C4481EA2D
:1037C800030621EA4C5123EA4C5350EA013518BF4D
:1037D80052EA033541F4801143F4801338D0A0FB3A
:1037E80002CE4FF00005E1FB02E506F00042E0FBE7
:1037F80003E54FF00006E1FB03569CF0000F18BFED
:103808004EF0010EA4F1FF04B6F5007F64F5407494
:1038180004D25FEA4E0E6D4146EB060642EAC62127
:1038280041EA55514FEAC52040EA5E504FEACE2E94
:10383800B4F1FD0C88BFBCF5E06F1ED8BEF1004F97
:1038480008BF5FEA500E50F1000041EB045170BD13
:1038580006F0004646EA010140EA020081EA030157
:10386800B4EB5C04C2BFD4EB0C0541EA045170BD53
:1038780041F480114FF0000E013C00F3AB8014F1CD
:10388800360FDEBF002001F0004170BDC4F1000416
:10389800203C35DA0C341BDC04F11404C4F1200597
:1038A80000FA05F320FA04F001FA05F240EA0200F2
:1038B80001F0004221F0004110EBD37021FA04F628
:1038C80042EB06015EEA430E08BF20EAD37070BDE2
:1038D800C4F10C04C4F1200500FA04F320FA05F041
:1038E80001FA04F240EA020001F0004110EBD37043
:1038F80041F100015EEA430E08BF20EAD37070BDB3
:10390800C4F1200500FA05F24EEA020E20FA04F38B
:1039180001FA05F243EA020321FA04F001F000413A
:1039280021FA04F220EA020000EBD3705EEA430EAB
:1039380008BF20EAD37070BD94F0000F0FD101F0DA
:103948000046400041EB010111F4801F08BF013C13
:10395800F7D041EA060195F0000F18BF704703F051
:103968000046520043EB030313F4801F08BF013DD8
:10397800F7D043EA0603704794EA0C0F0CEA135594
:1039880018BF95EA0C0F0CD050EA410618BF52EA4E
:103998004306D1D181EA030101F000414FF0000054
:1039A80070BD50EA410606BF1046194652EA430662
:1039B80019D094EA0C0F02D150EA013613D195EAD6
:1039C8000C0F05D152EA03361CBF104619460AD11E
:1039D80081EA030101F0004141F0FE4141F4700128
:1039E8004FF0000070BD41F0FE4141F4780170BD18
:1039F80070B54FF0FF0C4CF4E06C1CEA11541DBF7D
:103A08001CEA135594EA0C0F95EA0C0F00F0A7F87E
:103A1800A4EB050481EA030E52EA03354FEA0131AB
:103A280000F088804FEA03334FF0805545EA1313BE
:103A380043EA12634FEA022245EA111545EA106586
:103A48004FEA00260EF000419D4208BF964244F11D
:103A5800FD0404F5407402D25B084FEA3202B61A3C
:103A680065EB03055B084FEA32024FF480104FF410
:103A7800002CB6EB020E75EB030E22BFB61A754684
:103A880040EA0C005B084FEA3202B6EB020E75EB17
:103A9800030E22BFB61A754640EA5C005B084FEA7F
:103AA8003202B6EB020E75EB030E22BFB61A75464C
:103AB80040EA9C005B084FEA3202B6EB020E75EB57
:103AC800030E22BFB61A754640EADC0055EA060E18
:103AD80018D04FEA051545EA16754FEA06164FEA5B
:103AE800C30343EA52734FEAC2025FEA1C1CC0D107
:103AF80011F4801F0BD141EA00014FF000004FF094
:103B0800004CB6E711F4801F04BF01430020B4F154
:103B1800FD0C88BFBCF5E06F3FF6AFAEB5EB030C0C
:103B280004BFB6EB020C5FEA500C50F1000041EB09
:103B3800045170BD0EF0004E4EEA113114EB5C04D6
:103B4800C2BFD4EB0C0541EA045170BD41F48011A9
:103B58004FF0000E013C90E645EA060E8DE60CEAB1
:103B6800135594EA0C0F08BF95EA0C0F3FF43BAFCE
:103B780094EA0C0F0AD150EA01347FF434AF95EA85
:103B88000C0F7FF425AF104619462CE795EA0C0F69
:103B980006D152EA03353FF4FDAE1046194622E736
:103BA80050EA410618BF52EA43067FF4C5AE50EA10
:103BB80041047FF40DAF52EA43057FF4EBAE12E700
:103BC8004FEA410212F5001215D211D56FF478733D
:103BD800B3EB625212D94FEAC12343F0004343EAE0
:103BE800505311F0004F23FA02F018BF40427047BB
:103BF8004FF00000704750EA013005D111F0004045
:103C080008BF6FF0004070474FF00000704700BFDA
:103C18004FEA4102B2F1E04324BFB3F5001CDCF1E6
:103C2800FE5C0DD901F0004C4FEAC0024CEA50701E
:103C3800B2F1004F40EB830008BF20F0010070474D
:103C480011F0804F21D113F13872BCBF01F0004050
:103C5800704741F480114FEA5252C2F11802C2F182
:103C6800200C10FA0CF320FA02F018BF40F0010003
:103C78004FEAC1234FEAD32303FA0CFC40EA0C00B5
:103C880023FA02F34FEA4303CCE77FEA625307D1F2
:103C980050EA01331EBF4FF0FE4040F44000704729
:103CA80001F0004040F0FE4040F40000704700BFC3
:103CB80080B592B0FCF70CFB01210820FDF780F8D5
:103CC800614B6248DFF8A8810222194601244FF4AB
:103CD80000454FF0000A1D605A711C7183F806A058
:103CE800FDF7DCFB21460420FDF76AF8FCF7A2FB90
:103CF800FCF708FD21465648564DFFF707F850A730
:103D0800D7E90067DFED547A54485549554ACDED57
:103D1800097A0023B0EE678ACDED107A002401936A
:103D280002930393049305930693079308930A90C9
:103D38000F900B910E910C920D920DF144090221F6
:103D48004348FFF78FFAB8B9D8F804204BF6803308
:103D58009A4225D0D8F80420434B9A42EFD13B4AE7
:103D68003B484FF40041118300230221C8F8043076
:103D7800FFF778FA0028E7D0B8F800103448FFF7C2
:103D880051F9D8F80430DB070FD4D8F804300133E0
:103D9800C8F80430D8F804204BF680339A42D9D1B9
:103DA8002A4B4FF400425A83C9E7D8F80800FFF7B6
:103DB8009DFC3B463246FFF73BFBFFF729FF06EE2B
:103DC800900AF7EE007AF4EEE76AF1EE10FAC4BF53
:103DD800F0EE007A76EEE76A12AB1FFA8AF003EB90
:103DE8008A0AC8ED026AB0EE487ADFED207A4AED19
:103DF800116A03460AA901E0B1EC017A03F007024F
:103E08000DF1480C0CEB820252ED116A0133894521
:103E18009BB2E6EE877AEFD1C8ED037A00F1010A8A
:103E280017EE900AFFF762FC22462B46FFF7B6FC16
:103E3800FFF7C6FE00B20AF0070AA8F80000A4E7D8
:103E4800B81E85EB51B88E3F88040020000C024054
:103E5800003C004000407F400AD7233CCDCC4C3D7D
:103E68008FC2F53D0AD7A33E00770100000000008D
:103E780078040020002103E00B4B5B5843500431C9
:103E88000A480B4B42189A42F6D30A4A02E000232A
:103E980042F8043B084B9A42F9D3FCF719FA00F0B0
:103EA8001FF8FFF705FF7047804300080000002057
:103EB8005C0400205C040020B4040020FEE700003D
:103EC80008B50021044600F083F8044B1868C36B5A
:103ED80003B19847204600F045FA00BF4C4300085C
:103EE80070B50D4E0D4D761BB61006D0002401346A
:103EF80055F8043B9847A642F9D1094E094D761B5F
:103F080000F024FAB61006D00024013455F8043B1A
:103F18009847A642F9D170BD74430008744300085D
:103F28007C43000874430008F0B4860743D0541E4D
:103F3800002A3ED0CAB2034602E014F1FF3438D357
:103F480003F8012B9D07F8D1032C2BD9CDB245EAF4
:103F580005250F2C45EA054516D9A4F110073F0998
:103F680003F1200606EB071603F1100242E9045597
:103F780042E902551032B242F8D104F00F04013779
:103F8800032C03EB07130DD91E462246043A032AD5
:103F980046F8045BFAD8221F22F0030204321344C5
:103FA80004F003042CB1C9B21C4403F8011B9C4261
:103FB800FBD1F0BC704714460346C5E7024B13B16A
:103FC800024800F079B8704700000000CD400008B2
:103FD8002DE9F04F354B85B00F460390186800F077
:103FE80095F8334B1B68019303F5A4730293B94604
:103FF800019BD3F848613EB3DDF808A04FF00108F3
:104008007468651E0FD4013406EB84040027B9F1E7
:10401800000F20D0D4F800314B451CD0013D6B1C5B
:10402800A4F10404F3D1234B73B1D6E90032002A7A
:1040380034D1002B32D03046CAF80030AFF30080BC
:10404800DAF80060002EDBD1184B186805B0BDE81F
:10405800F04F00F063B873682268013BAB420CBFB5
:1040680075602760002AD9D0D6F88811D6F804B030
:1040780008FA05F30B4208D1904773685B45B7D13E
:10408800DAF80030B342C9D0B2E7D6F88C01D4F8D8
:104098008010034207D103989047EEE7B2461E46C8
:1040A800002EADD1D0E708469047E6E75804002037
:1040B8004C43000800000000002301461A46184639
:1040C80000F02EB838B50A4C0A4D641BA4100AD06B
:1040D80004F18043013B05EB8305013C55F80439A5
:1040E8009847002CF9D1BDE8384000F035B900BF39
:1040F800804300087C430008704700BF704700BF3A
:10410800704700BF704700BF704700BF704700BFCF
:104118000120704701207047704700BF704700BFFB
:104128002DE9F8432B4D0646286898460F469146D8
:10413800FFF7ECFF284B1C68D4F84831002B3DD022
:104148005A681F2A0DDC02F1010C16BB0232C3F8B3
:1041580004C0286843F82270FFF7E0FF0020BDE89C
:10416800F8831E4B7BB34FF4C870AFF3008003464F
:1041780048B3D4F848210021C0E900214FF0010CD0
:10418800C4F848010A46C0F88811C0F88C11002EFE
:10419800DCD003EB82010124C1F88890D3F88801B0
:1041A80094402043022EC3F88801C1F80881CDD17C
:1041B800D3F88C110C43C3F88C41C7E704F5A673F8
:1041C800C4F84831BCE72868FFF7A8FF4FF0FF3074
:1041D800C5E700BF580400204C4300080000000059
:1041E8002E2E2F53544D333246342D446973636F4A
:1041F800766572795F46575F56312E312E302F4CD7
:1042080069627261726965732F53544D3332463453
:1042180078785F5374645065726970685F44726936
:104228007665722F7372632F73746D3332663478C8
:10423800785F7263632E63002E2E2F53544D3332F2
:1042480046342D446973636F766572795F46575FAC
:1042580056312E312E302F4C696272617269657346
:104268002F53544D3332463478785F537464506515
:10427800726970685F4472697665722F7372632F12
:1042880073746D3332663478785F6770696F2E6344
:10429800000000002E2E2F53544D333246342D4447
:1042A8006973636F766572795F46575F56312E3151
:1042B8002E302F4C69627261726965732F53544DA9
:1042C8003332463478785F53746450657269706825
:1042D8005F4472697665722F7372632F73746D33DE
:1042E80032663478785F6932632E63002E2E2F533E
:1042F800544D333246342D446973636F7665727951
:104308005F46575F56312E312E302F4C69627261ED
:10431800726965732F53544D3332463478785F533E
:1043280074645065726970685F4472697665722F4B
:104338007372632F73746D3332663478785F737079
:10434800692E63003000002000000000F8B500BFAF
:10435800F8BC08BC9E467047F8B500BFF8BC08BC5E
:044368009E467047B6
:08436C005CBEFF7F01000000B0
:08437400C53F0008AD0100087F
:04437C0089010008AB
:104380000000000000000000000000000102030423
:1043900006070809007A030A00000000010203046E
:1043A0000102030406070809300000200000000095
:1043B000000000001C03002084030020EC03002008
:1043C00000000000000000000000000000000000ED
:1043D00000000000000000000000000000000000DD
:1043E00000000000000000000000000000000000CD
:1043F00000000000000000000000000000000000BD
:1044000000000000000000000000000000000000AC
:10441000000000000000000000000000000000009C
:10442000000000000000000000000000000000008C
:10443000000000000000000000000000000000007C
:10444000000000000000000000000000000000006C
:10445000000000000000000001000000000000005B
:104460000E33CDAB34126DE6ECDE05000B00000020
:10447000000000000000000000000000000000003C
:10448000000000000000000000000000000000002C
:10449000000000000000000000000000000000001C
:1044A000000000000000000000000000000000000C
:0C47D00000000000000000009004002029
:0400000508003E7D34
:00000001FF
