:020000040800F2
:1000000000000220853A0008C5030008C903000863
:10001000CD030008D1030008D5030008000000004C
:10002000000000000000000000000000D9030008EC
:10003000DD03000800000000E1030008E5030008FC
:10004000CD3A0008CD3A0008CD3A0008CD3A000874
:10005000CD3A0008CD3A0008CD3A0008E90300087F
:10006000CD3A0008CD3A0008CD3A000849220008F0
:10007000CD3A0008CD3A0008CD3A0008CD3A000844
:10008000CD3A0008CD3A0008CD3A0008CD3A000834
:10009000CD3A0008CD3A0008CD3A0008CD3A000824
:1000A000CD3A0008CD3A0008CD3A0008CD3A000814
:1000B000CD3A0008CD3A00082D040008CD3A0008DA
:1000C000CD3A0008CD3A0008CD3A0008CD3A0008F4
:1000D000CD3A0008CD3A0008CD3A0008CD3A0008E4
:1000E000CD3A0008CD3A0008CD3A0008CD3A0008D4
:1000F000CD3A0008CD3A0008CD3A00084522000864
:10010000CD3A0008CD3A0008CD3A00084D2200084B
:10011000CD3A0008CD3A0008CD3A0008CD3A0008A3
:10012000CD3A0008CD3A0008CD3A0008CD3A000893
:10013000CD3A0008CD3A0008CD3A0008CD3A000883
:10014000CD3A0008CD3A0008CD3A0008CD3A000873
:10015000CD3A0008CD3A0008CD3A0008CD3A000863
:10016000CD3A0008CD3A0008CD3A0008CD3A000853
:10017000CD3A0008CD3A0008CD3A0008CD3A000843
:08018000CD3A0008CD3A000859
:1001880010B5054C237833B9044B13B10448AFF3C9
:1001980000800123237010BDAC0400200000000083
:1001A800243E000808B5034B1BB103490348AFF3CD
:1001B800008008BD00000000B0040020243E0008B4
:1001C800154B002B08BF134B9D46A3F5803A002121
:1001D8008B460F461348144A121A03F0A9FC0F4B1A
:1001E800002B00D098470E4B002B00D098470020DA
:1001F800002104000D000D48002802D00C4803F02F
:100208005FFD03F071FC2000290003F099FB03F067
:100218005BFC00BF000008000000000000000000B8
:1002280000000000AC040020A8050020C93C00081C
:10023800D53C00084049414BD1F88820404842F459
:100248007002C1F888201A68002142F001021A6081
:1002580099601A6822F0847222F480321A60586019
:100268001A6882B022F480221A60D9600091019144
:100278001A6842F480321A601A4603E0009BB3F50C
:10028800A06F09D0136803F400330193009B013376
:100298000093019B002BF1D0284B1B6813F400330B
:1002A80018BF01230193019B012B14D0234B25492F
:1002B8009A6822F400029A60C3F884101A6842F01F
:1002C80080621A601A681201FCD51B4B4FF000625D
:1002D8009A6002B07047194B1B491A6C1B4842F0D0
:1002E80080521A640A6842F480420A609A689A60E6
:1002F8009A6842F400429A609A6842F4A0529A605E
:1003080058601A6842F080721A601A689101FCD528
:100318000F490A4A40F205600860996821F0030114
:100328009960996841F002019960936803F00C03A1
:10033800082BFAD1BAE700BF00ED00E00038024010
:1003480010300024804000300070004008544007FE
:10035800003C0240154A936803F00C03042B23D099
:10036800082B09D0124B114A12499268C2F30312A2
:100378008A5CD3400B6170475068516852684302E9
:10038800C2F3881201F03F014CBF0B4B084BB3FB83
:10039800F1F303FB02F3054A5268C2F3014201324A
:1003A8005200B3FBF2F3DEE7034BDCE70038024010
:1003B8000024F4000800002000127A00704700BFF3
:1003C800FEE700BFFEE700BFFEE700BFFEE700BF95
:1003D800704700BF704700BF704700BF00F06CB99E
:1003E80008B5022000F07AFB70B10C4A1378DBB232
:1003F800012B0AD00A49002001230870137002203B
:10040800BDE8084000F078BB08BD0548002103702E
:1004180011700220BDE8084000F06EBBCA0400203D
:100428001C00002030B5354B83B01B7800228DF8B6
:10043800072043BB0221324803F01EF908B903B074
:1004480030BD304C2E48022103F022F96578EDB218
:10045800032D24D06378042B2FD06378062B36D055
:10046800637833B36378072B3BD0254803F078F8DB
:10047800254A1188034611FA83F12148638002F066
:100488002BFE03B030BD0DF107000122392101F028
:10049800B7FA062227211D4801F0B2FACAE701205F
:1004A80001F04CF9284601F03BF9002001F038F939
:1004B800DBE7032001F026F9D7E7002001F03EF939
:1004C800032001F02DF9012001F02AF9CDE70120E0
:1004D80001F026F9002001F023F9032001F02EF99C
:1004E800C3E7012001F01CF9002001F019F90220EE
:1004F80001F016F9032001F013F9B6E7D004002043
:1005080000080040CA04002004000020FC04002069
:100518000349044B0120002208701A70704700BF7D
:10052800D0040020C804002001F0ECBD08B501F09B
:100538006BFE002008BD00BF022001F029BE00BFED
:100548002DE9F04387B006AC00258146484B04935B
:1005580004A84FF03F088DF804508DF8145001F0AE
:10056800A9F9202302A84FF482528DF80A30ADF879
:10057800082001F095FA04F8148D01222046222162
:1005880001F06AF920465023012238218DF8043001
:1005980001F062F92046AA2301223B218DF804309C
:1005A80001F05AF920460A2301223C218DF8043033
:1005B80001F052F94C232046012230218DF80430F5
:1005C800032601F049F9204601223D218DF80460F7
:1005D8007F2701F041F9204601223E218DF8047061
:1005E80001F03AF90122414620468DF8047001F0E5
:1005F80033F90121102002F0C9F901214FF480409C
:1006080002F0F4F902A91B4802968DF80C508DF8F7
:100618000F5000F003FB0121042000F05BFD0126D0
:100628000222082304A804928DF815308DF814507E
:100638008DF8166000F0FAF94FF4806003F01CF9A9
:1006480007232046ADF804308DF806508DF8076072
:1006580003F01CF9304601F09BFC074B4A46197819
:10066800042001F08BFE284607B0BDE8F08300BFE8
:1006780040000700001002401D000020FEE700BFF8
:1006880008B5891A01F02CFE002008BD704700BF8C
:10069800704700BFFEE700BF00207047002070478A
:1006A80082B0044A0190019B53605368002BFCD12F
:1006B80002B07047D0040020034B5A6812B15A6840
:1006C800013A5A60704700BFD004002002683649DA
:1006D800002310B422F00102212488420260036042
:1006E80043608360C3600361446131D02F4B9842FB
:1006F80034D02F4B984238D02E4B984240D02E4BB6
:10070800984244D02D4B984236D02D4B984242D037
:100718002C4B984217D02C4B984240D02B4B9842E8
:100728001CD02B4B984220D02A4B984228D02A4BD9
:1007380098422CD0294B98421ED0294B98422AD057
:10074800284B984207D14FF03D5243F8AC2C02E0B9
:10075800254B3D229A605DF8044B70474FF4746254
:1007680043F8202C5DF8044B70474FF4741243F89B
:10077800382C5DF8044B70471C4A43F87C2CEAE798
:100788004FF0746243F8502C5DF8044B7047184AD8
:1007980043F8642CDFE7174A43F8942CDBE73D2243
:1007A80043F8082CD7E700BF1060024028600240D9
:1007B8004060024058600240706002408860024019
:1007C800A0600240B8600240106402402864024001
:1007D80040640240586402407064024088640240E9
:1007E800A0640240B864024000600240400F00204C
:1007F8003D00002000003D200B6870B4D1E90524BD
:10080800CD682B431343D1E9072523431343D1E98B
:1008180009422B43D1E90D652343134304680B4A6E
:10082800334322402B4313430360D1E90B3442691D
:100838000D6922F0070223431343D1E901424361C2
:1008480045608460C26070BC704700BF3F801CF088
:100858000023C0E90033C0E90233C0E90433C0E92A
:100868000633C0E90833C0E90A33C0E90C338363AF
:10087800704700BF036819B923F00103036070478C
:1008880043F0010303607047036819B923F4004378
:100898000360704743F4004303607047036819B965
:1008A80023F020030360704743F020030360704780
:1008B80041607047406880B2704700BF036822B942
:1008C80023F4002303600161704743F400230360AD
:1008D80001617047036819B923F4802303607047E6
:1008E80043F48023036070470AB9C160704701610F
:1008F800704700BF0068C0F3C0407047006800F050
:1009080001007047406900F0380070470B4B0C4AF3
:1009180010B40C4CA04294BF184610468B004CBF34
:10092800436803685DF8044B21F0F02121F082113F
:10093800194214BF01200020704700BF0060024028
:10094800006402400F64024030B4084B084D094C63
:1009580021F0F022A8428CBF1846204622F08212CD
:100968008B004CBFC260826030BC7047006402409C
:100978000F640240006002400B060CD54369AAB11F
:1009880043F08003802943610FD0036801F01E0102
:10099800194301607047802907D0002AF5D1036800
:1009A80001F01E0123EA01010160704723F0800372
:1009B80080294361F3D1704730B4114B114D124A6D
:1009C80021F0F02424F0C314A84298BF1A469CB121
:1009D800006800EAD12000F01E0388004CBF506870
:1009E800106821F0F02121F08211084002D0181C73
:1009F80018BF012030BC7047436903F08003ECE75F
:100A0800006002400F64024000640240FFF79CBF90
:100A1800044B054900221A605A609A60DA605961ED
:100A2800704700BF003C0140FFFF7F0003798279D7
:100A380070B4056803F1804303F59E33EC43F2B1CB
:100A4800154A417916682640166056683440546045
:100A58001C6825431D6000689468C3431C4094606B
:100A6800D468102903EA0403D3600DD001F1804350
:100A780003F59E3370BC1A681043186070471A68F3
:100A880014401C6070BC7047936803439360D3683C
:100A98001843D06070BC7047003C014000230C2212
:100AA8004271036003718371704700BF024A136982
:100AB80018431061704700BF003C0140034B5B695D
:100AC800034214BF01200020704700BF003C0140D2
:100AD800014B5861704700BF003C0140054B1A6844
:100AE8005B69034004D0024214BF01200020704714
:100AF80018467047003C0140014B5861704700BFE1
:100B0800003C014008B53C4B984222D03B4B9842F0
:100B180029D03B4B984230D03A4B984237D03A4B89
:100B280098420CD0394B98423BD0394B984242D02E
:100B3800384B984255D0384B984246D008BD0121D1
:100B4800102001F05FFF00211020BDE8084001F0EF
:100B580059BF0121084601F055FF00210120BDE8D9
:100B6800084001F04FBF0121022001F04BFF002196
:100B78000220BDE8084001F045BF0121042001F032
:100B880041FF00210420BDE8084001F03BBF0121DE
:100B9800082001F037FF00210820BDE8084001F0D7
:100BA80031BF0121202001F02DFF00212020BDE8C8
:100BB800084001F027BF0121402001F023FF002158
:100BC8004020BDE8084001F01DBF01214FF48070AE
:100BD80001F018FF00214FF48070BDE8084001F0D3
:100BE80011BF0121802001F00DFF00218020BDE808
:100BF800084001F007BF00BF0000024000040240A7
:100C080000080240000C024000100240001402409C
:100C180000180240001C0240002002402DE9F04765
:100C2800D1F800C0002301274FF0030E02E0013382
:100C3800102B3FD007FA03F232EA0C04F7D15C001C
:100C4800D0F800800E790EFA04F5ED4308EA05089D
:100C5800C0F80080D0F800A006FA04F9013E49EA7D
:100C68000A09012E0EFA04F8C0F8009016D8D0F838
:100C780008904E7905EA09058560D0F808908D79C5
:100C8800A64046EA09068660466826EA02024260ED
:100C9800466805FA03F292B232434260C568CA79DF
:100CA80025EA0805C560C568A24001332A43102B10
:100CB800C260BFD1BDE8F08700234FF6FF72026023
:100CC800037143718371C371704700BF82B04FF4E1
:100CD80080330193019B0B430193019BC361C16165
:100CE800019BC361C3690193C369019302B0704753
:100CF8000369194214BF012000207047006980B2BF
:100D0800704700BF4369194214BF01200020704793
:100D1800406980B2704700BF0183704741837047C4
:100D28000AB9418370470183704700BF416170472A
:100D38004369594041617047CB0800EB830001F0DB
:100D4800070110B4036A89000F248C4023EA0403C6
:100D58000362036A5DF8044B02FA01F11943016268
:100D6800704700BF08B5174B984206D0164B9842FB
:100D78001BD0164B98420CD008BD01214FF480506F
:100D880001F070FE00214FF48050BDE8084001F0EA
:100D980069BE01214FF4004001F058FE00214FF4D4
:100DA8000040BDE8084001F051BE01214FF48040E9
:100DB80001F04CFE00214FF48040BDE8084001F0EE
:100DC80045BE00BF0030014000380040003C0040F4
:100DD8000B888A8830B44C88CD88234313430C8908
:100DE8004A892B4323438D89CC89098A1343028876
:100DF8002B43234302F4415213430380838B23F490
:100E080000631B041B0C838330BC0182704700BF46
:100E1800828B2F4B134002222DE9F04183838E6889
:100E28000284848B8A88CD88022EA4B238D0294BBC
:100E38009F68002A0CBF4FF0010E4FF0020E3F02D0
:100E48003DD4DFF89080DFF894C0D8F88430D8F823
:100E58008470D8F80480B5F5007FC3F38813C7F30E
:100E6800027708F03F08BCFBF8FC03FB0CF3B3FB6C
:100E7800F7F30EBF1B0A4FEA4E1EB3FBFEF303EB5C
:100E880083035B00B3FBF6F3134E05339BB2A6FB5B
:100E98000363DB085E08B71EFD2F03F0010313D9B7
:100EA80002230E8832434E88898942F40062324315
:100EB8000A431D43144305848483BDE8F0819F6879
:100EC80027F400079F60BCE746EA0323E9E700BF71
:100ED80040F0FFFF00380240CDCCCCCC00127A00A5
:100EE800002307220282038043808380C38003811A
:100EF80043818381C3817047002302228260C0E955
:100F080000338381704700BF038829B923F0400369
:100F18001B041B0C0380704743F040030380704799
:100F2800838B29B923F480631B041B0C83837047CC
:100F380043F4806383837047038823F400631B04AE
:100F48001B0C038003881943018070470388B1F59F
:100F5800804F1BBF23F480431B0443F480431B0CC6
:100F6800038070474FF6FF639942038805BF23F457
:100F780080731B0443F480731B0C0380704700BF0D
:100F8800838829B923F004031B041B0C8380704752
:100F980043F0040383807047838829B923F0100342
:100FA8001B041B0C8380704743F010038380704739
:100FB80030B40E4A858B8C884B882A408283022560
:100FC8000A88058423438C89818B22F4007243F4B8
:100FD80000632343002A43EA01030CBF4FF48072E5
:100FE80000221343838330BC704700BF40F0FFFFEB
:100FF8008089704781817047038829B923F4005399
:101008001B041B0C0380704743F400530380704794
:10101800038843F480530380704700BF012914BF3D
:10102800008B808A80B27047008A704783881AB91B
:1010380023EA01018180704719438180704700BF0E
:101048000123090903FA01F189B283881AB923EA4D
:1010580001018180704719438180704703891942D3
:1010680014BF012000207047C94389B2018170472D
:10107800828810B40123048901F00F0003FA00F0FC
:10108800204006D0090992B28B401A4214BF0120B1
:1010980000205DF8044B704701F00F01012303FAAB
:1010A80001F1C94389B20181704700BF08B5012128
:1010B8004FF4804001F0D6FC00214FF48040BDE899
:1010C800084001F0CFBC00BF014B1860704700BF5B
:1010D8000038014001F0FC0303F1804303F59C3321
:1010E80001F0030110B49A6889000F248C4022EAA9
:1010F80004029A609A685DF8044B00FA01F1114302
:1011080099607047014B1860704700BFDC002742A8
:10111800014B1860704700BF00042742024B186A51
:10112800C0F30020704700BF0038014008B5174BD6
:10113800984206D0164B98421BD0164B98420CD0BA
:1011480008BD01214FF4001001F080FC00214FF48C
:101158000010BDE8084001F079BC01214FF40000FF
:1011680001F074FC00214FF40000BDE8084001F0D4
:101178006DBC01214FF4800001F068FC00214FF4A0
:101188008000BDE8084001F061BC00BF0054004089
:1011980000580040005C0040F0B5054685B0684640
:1011A8000E46AC8801F080FB02982C493368DFF8C2
:1011B800B8C0A1FB002124F03F042404890C240CAE
:1011C8008FB23C43AC802A8822F001021204120C30
:1011D80063452A801BD85B00B0FBF3F39BB2013751
:1011E800042B38BF04232F84AB832A88B1887489E1
:1011F8001B4B308942F001022A802F88B2893B407C
:1012080021430B4302432B802A8105B0F0BDF488AB
:101218004BF6FF7294421AD003EB830303EB83036C
:10122800B0FBF3F39BB243F48043C3F30B020AB958
:1012380043F001034FF496720A4802FB01F1A0FB48
:1012480001218909013143F400432984CCE703EBE8
:101258004303B0FBF3F39BB2E7E700BF83DE1B4316
:10126800F5FBFFFFD34D6210A086010041F28833E1
:101278000449036000224FF48043C0E901128381CE
:10128800704700BF0000FFBF038829B923F001039E
:101298001B041B0C0380704743F001030380704755
:1012A800038829B923F480731B041B0C038070473F
:1012B80043F4807303807047038829B923F40073CB
:1012C8001B041B0C0380704743F4007303807047B2
:1012D80022B901F0FE0189B20182704741F0010193
:1012E80089B20182704700BF038829B923F480635B
:1012F8001B041B0C0380704743F480630380704712
:1013080083899BB201F0FE0123F0FE030B43838126
:10131800704700BF838929B923F001031B041B0C04
:101328008381704743F0010383817047038829B99B
:1013380023F040031B041B0C0380704743F0400359
:1013480003807047038819B9C3F30E0303807047FD
:1013580043F4004303807047038829B123F08003D6
:101368001B041B0C0380704743F080030380704705
:10137800838BB1F5804F1DBF23F480431B041B0CE6
:1013880043F48043838370470388B1F5006F1BBF24
:1013980023F400631B0443F400631B0C03807047B1
:1013A8000388B1F5005F1BBF23F400531B0443F40B
:1013B80000531B0C03807047038829B923F01003DE
:1013C8001B041B0C0380704743F010030380704715
:1013D80001827047008AC0B2704700BF038829B9EC
:1013E80023F480531B041B0C0380704743F4805381
:1013F80003807047FFF7C8BF038829B923F020038B
:101408001B041B0C0380704743F0200303807047C4
:10141800008B000A704700BF838829B923F4006352
:101428001B041B0C8380704743F400638380704760
:10143800838829B923F480531B041B0C83807047CD
:1014480043F480538380704782B000230193019056
:10145800019B19440191019B188802B0704700BF95
:1014680083881AB923EA0101818070471943818072
:10147800704700BF838A028B21F07F4043EA024312
:101488001840401AB0FA80F040097047838A008BF0
:1014980043EA004020F07F40704700BF82B000233D
:1014A8000A0F0093019301900092009B21F07F4165
:1014B80053B1019B14330193019B1B680B4214BF6A
:1014C8000120002002B07047019B1833090C0193DA
:1014D800F2E700BFC94389B2818270478388808A56
:1014E80008409BB206D003F4E06313EA114314BF2B
:1014F80001200020704700BFC94389B2818270472C
:1015080008B501214FF0005001F0A0FA00214FF07A
:101518000050BDE8084001F099BA00BF70B4D1E9A5
:101528000036D1E90225084C3343134340F6FE71D7
:1015380022682B43814003FA00F022EA0103184392
:10154800206070BC704700BF007400400023C0E9F1
:101558000033C0E902337047064A012303FA00F05A
:10156800136819B923EA0000106070471843106027
:10157800704700BF00740040064A0123000903FABF
:1015880000F0536819B923EA000050607047184307
:101598005060704700740040054A536818B923F03A
:1015A80003035360704743F003035360704700BF61
:1015B8000074004081402AB9054A136823EA0101F2
:1015C80011607047024B186801431960704700BFEB
:1015D8000074004082B00022054B01920193019BE8
:1015E800083318440190019B196002B0704700BF8E
:1015F8000074004082B00022054B01920193019BC8
:10160800143318440190019B196002B0704700BF61
:10161800007400400828044B0CBF42EA012242EA49
:101628000142C250704700BF2074004082B00022BF
:10163800064B01920193019B2C3303EB9000019020
:10164800019B186880B202B0704700BF0074004068
:10165800064A4FF4805303FA00F0136819B923EAD5
:101668000000106070471843106070470074004015
:10167800FFF7A0BF034B5B6B8140194214BF0120E9
:101688000020704700740040014B81405963704747
:1016980000740040054B1A685B6B814011EA030037
:1016A80003D00A4214BF0120002070470074004094
:1016B800014B8140596370470074004030B50F4CAE
:1016C800054683B054F82000012104EB450401F0DD
:1016D8005DF90B4A238A52F8250000930222012360
:1016E800002469468DF804308DF807308DF80640DF
:1016F8008DF80520FFF792FA03B030BDF03D0008E1
:1017080020000020044B054A03EB400352F8202038
:101718001B8A1383704700BFF03D0008200000209B
:10172800044B054A03EB400352F820201B8A5383DD
:10173800704700BFF03D000820000020054B064A16
:1017480052F8202003EB40005169038A4B40536153
:10175800704700BFF03D00082000002030B50D465E
:10176800012187B00446084601F010F901214FF421
:10177800804001F03BF9184806A900EB84000123DA
:10178800002441F8103D00698DF80C408DF80F4099
:10179800FFF744FA012D01D007B030BD214620469D
:1017A800FFF798FC082304A88DF8153004958DF8E8
:1017B80014408DF81650FFF739F940F606720F23DA
:1017C80001A88DF80750ADF804208DF8063002F016
:1017D8005DF807B030BD00BF2000002008B5044BFD
:1017E80003EB800001210069FFF782FA08BD00BF02
:1017F8002000002070B5164C164D4FF48053064655
:10180800236003E023685A1E2260EBB102212846B8
:10181800FFF724FC0028F5D00E4831460546FFF7AF
:10182800E9FB4FF48053236003E023685A1E2260CB
:1018380053B101212846FFF711FC0028F5D00548CF
:10184800FFF7D6FBC0B270BDFEF718FFC0B270BD7F
:101858003400002000300140012A70B504460E46CD
:1018680015464FF00801124815D9FFF757FA46F008
:101878004000FFF7BFFF013DADB20135254414F824
:10188800010BFFF7B7FFAC42F9D108210848BDE8C2
:101898007040FFF741BAFFF741FA3046FFF7AAFF59
:1018A800002DE8D108210248BDE87040FFF734BA9E
:1018B800001002402DE9F04F89B000258146012132
:1018C8004FF480508DF8035001F090F8012108463C
:1018D80001F05CF80121102001F058F801211020D6
:1018E800444EDFF814B1DFF814A101F04FF80121DC
:1018F800102001F04BF8052230461146FFF71CFA7C
:1019080030460522062108ACFFF716FA05223046B4
:101918000721FFF711FA202344F81C3D022730461F
:1019280021468DF80A508DF808708DF80B708DF8E7
:101938000970FFF773F92146304680230193FFF7BA
:101948006DF94023214630460193FFF767F9584661
:10195800FFF708FA4FF082724FF0007108265846D8
:10196800CDE903250591072203A9ADF81C200696A9
:10197800FFF72EFA58460121FFF7C6FA4FF0010883
:101988002146504601968DF80A508DF809708DF859
:101998000880FFF743F931465046FFF7BDF9214665
:1019A8005046CDF804808DF808508DF80A508DF80F
:1019B80009708DF80B50FFF731F921465046019711
:1019C800FFF72CF999F8013099F8004099F80300CD
:1019D80099F8041099F80220234303430B4308A8FD
:1019E800134300F81D3D42462021FFF735FF09B09B
:1019F800BDE8F08F000002400030014000100240B6
:101A0800012A70B504460E4615464FF008011348E2
:101A180016D9FFF783F946F0C000FFF7EBFE013D4A
:101A2800ADB2013525440020FFF7E4FE04F8010BB0
:101A3800AC42F8D108210948BDE87040FFF76CB9FD
:101A4800FFF76CF946F08000FFF7D4FE002DE6D1D1
:101A580008210248BDE87040FFF75EB90010024057
:101A680030B583B002AC002304F8013D05460122DD
:101A780020462121FFF7C4FF68789DF807202B78BE
:101A8800A978034322F02F0213430B432046012277
:101A980021218DF80730FFF7DFFE03B030BD00BF0E
:101AA80030B583B002AC002304F8013D054601229D
:101AB80020463821FFF7A4FF69782B78AA780B43D2
:101AC80013432046012238218DF80730FFF7C4FE62
:101AD80003B030BD10B582B0044601220DF10700F5
:101AE8002021FFF78DFF9DF8073023F040031C43AA
:101AF8000DF10700012220218DF80740FFF7ACFE09
:101B080002B010BD10B582B0044601220DF10700E5
:101B18002021FFF775FF9DF8073003F07F031C4372
:101B28000DF10700012220218DF80740FFF794FEF0
:101B380002B010BD10B582B0044601220DF10700B5
:101B48002021FFF75DFF9DF8073023F020031C4399
:101B58000DF10700012220218DF80740FFF77CFED8
:101B680002B010BD00B583B00DF10700012221219C
:101B7800FFF746FF9DF807300DF1070043F04003DB
:101B8800012221218DF80730FFF766FE03B05DF8CA
:101B980004FB00BF10B584B00122202104460DF1DA
:101BA8000700FFF72DFF0622292102A8FFF728FFCB
:101BB8009DF8073013F0200314D08BB19DF908105D
:101BC8009DF90A209DF90C3001EBC10102EBC2021C
:101BD800C900D20003EBC303C4E90012DB00A36011
:101BE80004B010BD9DF908109DF90A209DF90C302C
:101BF80001EBC10102EBC20203EBC303490052002F
:101C08005B00C4E90012A36004B010BD08B500224F
:101C180010210748FFF784F844F6FF73013BFDD114
:101C2800012210210248BDE80840FFF779B800BF3B
:101C3800000C02402DE9F0419B4C9C4D4FF496134B
:101C480006460F46236005E023685A1E2260002BD3
:101C580000F01B814FF400312846FFF71FFC0028D5
:101C6800F2D101219148DFF84C82904DFFF718FB23
:101C78004FF48053236005E023685A1E2260002B2E
:101C880000F0038141462846FFF7F4FB0028F3D013
:101C9800002294218548DFF82882844DFFF718FB3D
:101CA8004FF48053236005E023685A1E2260002BFE
:101CB80000F0EB8041462846FFF7DCFB0028F3D014
:101CC80031467A48DFF8FC81784DFFF781FB4FF405
:101CD8008053236005E023685A1E2260002B00F021
:101CE800D48041462846FFF7C5FB0028F3D0394683
:101CF8006E48DFF8BC816D4DFFF76AFB4FF4961311
:101D0800236005E023685A1E2260002B00F0C9807A
:101D180041462846FFF7C2FB0028F3D0634801215B
:101D28000546FFF7C9FA4FF49613236005E02368C8
:101D38005A1E2260002B00F0AC804FF40031284678
:101D4800FFF7ACFB0028F2D101215848DFF8648185
:101D5800564DFFF7A5FA4FF48053236005E023683A
:101D68005A1E2260002B00F0948041462846FFF757
:101D780081FB0028F3D0002294214C48DFF84081F1
:101D88004A4DFFF7A5FA4FF48053236004E0236817
:101D98005A1E2260002B7CD041462846FFF76AFB7A
:101DA8000028F4D0414831460546FFF711FB4FF4AF
:101DB80080533F4E236004E023685A1E2260002BA4
:101DC80067D031462846FFF769FB0028F4D037482A
:101DD800384E01210546FFF763FA4FF4805323601C
:101DE80004E023685A1E2260002B52D03146284650
:101DF800FFF740FB0028F4D02C482F4D01229421F6
:101E08000646FFF765FA4FF48053236004E0236821
:101E18005A1E2260002B3CD029462448FFF73EFB7F
:101E28000028F4D000212148DFF89C80FFF75CFAF5
:101E38001E48338B01210546FFF73EFA4FF48053C5
:101E4800236003E023685A1E226013B341462846E4
:101E5800FFF724FB0028F5D01448FFF7BBFA4FF42E
:101E6800805305462360114A03E02368591E216008
:101E78007BB113889B05F8D401210C48FFF734FA8D
:101E88000E490A48FFF726FB06E0BDE8F041FEF7D9
:101E980005BCFEF703FC0546781B18BF0120BDE80A
:101EA800F081FEF7FBFB33E73800002000540040C8
:101EB80004000010010003000200001000040010DC
:101EC800820007008000070040000010193038B574
:101ED800C4B221462020FFF7ADFE21460546212049
:101EE800FFF7A8FE284438BD38B5254CD4E90110C1
:101EF800FEF70CFD002842D0D4E9020575B9294641
:101F0800FEF7B8FCD4E90110FEF71EFD1D4B29466B
:101F18001868BDE83840FEF7B9BBA068FEF7EEFCCC
:101F28000028FAD1D4E90110164DFEF70DFD164B25
:101F3800E268296899604FF6FF718A4228BF0A460D
:101F4800A0681A611946FEF757FC0121A068FEF740
:101F580091FCE3682A68A068B3F5803F2CBF0B4961
:101F680059000A444FF6FF718B428CBF5B1ADB1A8B
:101F78002A60E3600121BDE83840FEF77BBC38BD2C
:101F8800380000200805002048050020FEFF010059
:101F98001C4B30B418611A69012A1BD0022801D0E1
:101FA80030BC7047184A19481949986000244FF402
:101FB800001014600B2258619961DA61154D164CB6
:101FC80016481749174A5D60C3E90840C3E90A1271
:101FD80030BC70470C4C144A14499A6000254FF4E1
:101FE80000102F22256058619961DA614FF0205561
:101FF8004FF010544FF001504FF008514FF0045279
:10200800E1E700BF38000020E00400201060024033
:102018000C74004020000010100000100100801017
:102028000800001004008010B86002400C3C00401A
:102038002DE9F0412F4E304DF369DFF8C4802F4F62
:1020480082B0002468468DF800308DF801408DF884
:1020580002408DF8034001F019FC2146B068FEF7F4
:1020680009FCB068FEF732FBFFF7D0FD0121022022
:10207800FFF7E0FD694628464FF4A05300938DF81A
:1020880004408DF805408DF806408DF80740FEF7AE
:10209800C5FD1023694640460093FEF7BFFD224662
:1020A80040460421FEF748FE224628460A21FEF74C
:1020B80043FE224628460C21FEF73EFE8023694651
:1020C80028460093FEF7AAFD062228460721FEF7B8
:1020D80033FE21463846FEF723FF3846FEF742FE18
:1020E80021464FF4004000F075FC204602B0BDE8E0
:1020F800F08100BF3800002000080240003C00408A
:102108000000024038B598B11E4D04202979FFF728
:1021180091FD297904460420FFF78CFD9E21044493
:102128000220FFF787FD241819D00124204638BD66
:10213800FF210420FFF77EFD012104460220FFF75E
:1021480079FD0419F1D1224602210F48FEF76EFFEE
:102158000E4B21469868FEF78DFB204638BD0A4D88
:10216800012228460221FEF761FF084B01219868E9
:10217800FEF780FBAB8B5B05D8D428460121FEF720
:10218800CFFED3E7E0040020003C004038000020E8
:1021980038B5FF2104460420FFF74CFD022C27D058
:1021A8009F210220FFF746FD40F6FF720446013AE0
:1021B800FDD110211148FEF7B3FD14B101242046CA
:1021C80038BD0F4D2146A868FEF754FBD5E9080233
:1021D8006B68A96A034313431943A868FEF7B4FB65
:1021E80021460848FEF79CFE2B6BEB60204638BD65
:1021F80020469F21FFF71EFD0446DEE7000C024043
:1022080038000020003C0040642807D8044BC0EB8D
:102218000020A3FB0030C0F3471057E6642055E6C2
:102228001F85EB51012803D0034B0420197901E5E0
:10223800FF210420FEE400BFE004002054E600BFB4
:1022480052E600BF08B502210B48FEF707FF58B158
:102258000A4B1B69022B08D0FEF71EFABDE808409E
:1022680001460548FEF7C6BE08BDFEF715FA014649
:102278000420FFF7AFF9EFE7003C004038000020EA
:10228800F8B5144C144A2569A768012D06460B4673
:1022980013D03846114696601361FEF7ADFAA06870
:1022A8000121FEF7E7FA0D48838B5B0500D5F8BDE1
:1022B8000121BDE8F840FEF733BE4B083846114609
:1022C80013619660FEF798FA2946A068FEF7D2FADD
:1022D800E9E700BF3800002048050020003C004026
:1022E80070B50F4EB1F5802F0D46316334BF8908A4
:1022F8004FF6FF710446FFF7C3FF306B094B4FF6EB
:10230800FF71814228BF0146B0F5803F2CBF0648C7
:1023180040002044C1EB55011860F160002070BDF9
:102328003800002008050020FEFF010010B501213B
:1023380086B0104800F02AFB01214FF0005000F051
:1023480049FB00241022032369460B4800928DF8AC
:1023580004308DF80740FEF761FC204602A9CDE95C
:1023680002440594FFF7DAF820460121FFF7F4F854
:1023780006B010BD01002000000002402DE9F04722
:10238800642988B0174600F2FF80D14BC1EB0121C8
:10239800A3FB0138C8F347184FF0100A01210820A1
:1023A80000F0F4FA022600244FF001090DEB0A01AF
:1023B800C848CDF810A08DF814908DF815608DF8E8
:1023C80016408DF81740FEF729FC4946072000F013
:1023D800DDFA4FF410730DEB0A01BF4804938DF832
:1023E80014608DF815608DF816908DF81740FEF77B
:1023F80015FC04220621B848B84DFEF79DFC0422BE
:102408000921B548FEF798FC4FF4A0530DEB0A01DB
:10241800B34804938DF814608DF815608DF8164054
:102428008DF81740FEF7FAFB06220421AD48FEF7A7
:1024380083FC06220A21AA48FEF77EFC2B69B342D8
:1024480000F0D5800DEB0A01A648CDF810A0FEF7E4
:10245800E5FB06220C21A248FEF76EFC802302242D
:102468004FF0000904A99E4804938DF814408DF894
:1024780015408DF816908DF81790FEF7CFFB0622C1
:1024880007219748984EFEF757FCFFF7BFFB01213D
:102498004FF4001000F09EFA9448FEF747FE944B64
:1024A8009449954A049305914FF4804301218F483C
:1024B8000692ADF81C30FEF7E7FE04A98B48FEF73C
:1024C8006BFE20460121FFF7B5FBAF21044604202F
:1024D800FFF7B0FBAF230444812105203371FFF7D8
:1024E800A9FB042104440620FFF7A4FB044440464A
:1024F800FFF7ECFC2B69022B00F089809E2102205B
:10250800FFF798FB002104440A20FFF793FB2B698F
:10251800022B044404D004210E20FFF78BFB044453
:1025280000212720FFF786FB0F2104441F20FFF717
:1025380081FB0A2104441A20FFF77CFB0A2104448A
:102548001B20FFF777FB012104444FF4004000F003
:1025580041FA6A48FEF706FC4FF000084FF0007396
:102568004FF400726946654801930297ADF80C80F4
:102578000092FEF74DFC2B69022B08D0D4B1012440
:10258800204608B0BDE8F0874FF0640804E7012151
:102598004FF0005000F01EFA04A94046CDE9048827
:1025A800CDF81C80FEF7BAFF40460121FEF7D4FFA4
:1025B800002CE4D12F69012F4CD02A69012A41D07F
:1025C800FFF7B4FE012271214C48FEF739FD04A83B
:1025D800332100220123ADF810108DF812208DF858
:1025E800133001F053F9204608B0BDE8F08749469A
:1025F800484600F0CBF9032304A93A48CDF810A0C7
:102608008DF817408DF81430FEF708FB26E70121F6
:102618000820FFF70FFB012180460920FFF70AFB7E
:10262800C02180440E20FFF705FB4444494604447A
:102638001420FFF7FFFA494604441520FFF7FAFA79
:1026480004445BE702212D48FEF7F0FC204608B061
:10265800BDE8F0873946686900F098F92146A8680E
:10266800FEF708F9A868FEF731F8254B3168AA6922
:10267800196040215A60D9604FF6FE724FF48061AC
:102688001A6199614FF400624FF40051DA611962DE
:10269800A8689C6019464FF400325C615C62C3E92B
:1026A8000B44C3E90D449A62FEF7A6F8A8683A46B7
:1026B8001021FEF761F9EB698DF8114004A88DF837
:1026C80012408DF813708DF8103001F0DFF874E7C0
:1026D8001F85EB51000C0240000402403800002026
:1026E8000008024000000240E004002000540040BE
:1026F800A08601000000FFBF33000004003C00403A
:10270800480500200A4B0B481A68002142F00102D4
:102718001A6099601A6822F0847222F480321A6072
:1027280058601A6822F480221A60D960704700BF86
:102738000038024010300024024B00221A70187032
:10274800704700BF0238024082B00023094A019353
:10275800136813F4003F019B03F101030193019BEC
:1027680002D1B3F5A06FF3D1024B1868C0F3404013
:1027780002B0704700380240034A136823F0F80398
:1027880043EAC0001060704700380240014B1860EF
:10279800704700BF00004742064B002201281A700C
:1027A8001A7005D0042802D105221A7070477047A4
:1027B8001870704770380240014B1860704700BFAE
:1027C800800E474230B4029C064D40EA04605B0824
:1027D8000843013B40EA821040EA0340686030BC8D
:1027E800704700BF00380240014B1860704700BFB7
:1027F800600047420907034B41EA8011C3F884107F
:10280800704700BF00380240014B1860704700BF96
:1028180068004742014B1860704700BF4C004742B0
:10282800034A936823F0EC631943014391607047AE
:1028380000380240034A936823F078431943014360
:102848009160704700380240034A936823F00303FD
:1028580018439060704700BF00380240024B9868E8
:1028680000F00C00704700BF00380240034A93682C
:1028780023F0F00318439060704700BF003802400F
:10288800034A936823F4E05318439060704700BFED
:1028980000380240034A936823F4604343EAC000C7
:1028A80090607047003802401F4A936803F00C0399
:1028B800042B10B434D0082B19D01C4B03601A4ACF
:1028C8001B499468C4F303140C5DE34043609468A7
:1028D800C4F382240C5D23FA04F4846092685DF8E2
:1028E800044BC2F342328A5CD340C36070475468D9
:1028F800516852686302C2F3881201F03F014CBF6D
:102908000C4B0A4BB3FBF1F303FB02F3064A526884
:10291800C2F3014201325200B3FBF2F30360CEE787
:10292800044B0360CBE700BF003802400024F400EA
:102938006C00002000127A0000F44073B3F5407F69
:1029480009D108498A6820F0704322F4F81223F468
:10295800407313438B60034B1A6FC0F30B00104393
:102968001867704700380240014B1860704700BF75
:102978003C0E4742014B1860704700BF400E47426B
:10298800014B1860704700BF5C014742044A136B53
:1029980019B923EA000010637047184310637047A1
:1029A80000380240044A536B19B923EA0000506307
:1029B800704718435063704700380240044A936BCD
:1029C80019B923EA00009063704718439063704771
:1029D80000380240044A136C19B923EA0000106455
:1029E800704718431064704700380240044A536C1B
:1029F80019B923EA000050647047184350647047BF
:102A080000380240044A136919B923EA000010612A
:102A1800704718431061704700380240044A5369F0
:102A280019B923EA00005061704718435061704794
:102A380000380240044A936919B923EA00009061FA
:102A4800704718439061704700380240044A136A7F
:102A580019B923EA000010627047184310627047E2
:102A680000380240044A536A19B923EA0000506248
:102A7800704718435062704700380240044A136D8B
:102A880019B923EA000010657047184310657047AC
:102A980000380240044A536D19B923EA0000506512
:102AA800704718435065704700380240044A936DD8
:102AB80019B923EA0000906570471843906570477C
:102AC80000380240044A136E19B923EA0000106660
:102AD800704718431066704700380240044A536E26
:102AE80019B923EA000050667047184350667047CA
:102AF80000380240044A137819B923EA000010701C
:102B080070471843107070470D3802404309012B75
:102B18000BD0022B094B0CBF1B6F5B6F00F01F0023
:102B280023FA00F000F001007047044B1B6800F026
:102B38001F0023FA00F000F001007047003802403F
:102B4800024A536F43F0807353677047003802405E
:102B5800034BDB68184214BF01200020704700BFF8
:102B680000380240014B1870704700BF0E38024011
:102B780008B5604B984232D0B0F1804F39D05E4BE7
:102B8800984240D05D4B984247D05D4B98421CD04C
:102B98005C4B98424BD05C4B984252D05B4B98426E
:102BA80065D05B4B98426CD05A4B984253D05A4BE5
:102BB800984272D0594B98427BD0594B984200F0BA
:102BC8008E80584B98427ED008BD01210820FFF71F
:102BD8003DFF00210820BDE80840FFF737BF01216D
:102BE8000846FFF73FFF00210120BDE80840FFF736
:102BF80039BF01210846FFF729FF00210120BDE860
:102C08000840FFF723BF01210220FFF71FFF002123
:102C18000220BDE80840FFF719BF01210420FFF793
:102C280015FF00210420BDE80840FFF70FBF012170
:102C38001020FFF70BFF00211020BDE80840FFF728
:102C480005BF01212020FFF701FF00212020BDE85A
:102C58000840FFF7FBBE01214FF40030FFF702FFE9
:102C680000214FF40030BDE80840FFF7FBBE01210A
:102C78000220FFF7F7FE00210220BDE80840FFF719
:102C8800F1BE01214FF48030FFF7ECFE00214FF434
:102C98008030BDE80840FFF7E5BE01214FF48020F1
:102CA800FFF7E0FE00214FF48020BDE80840FFF761
:102CB800D9BE01214020FFF7C9FE00214020BDE810
:102CC8000840FFF7C3BE01214FF48070FFF7BEFE36
:102CD80000214FF48070BDE80840FFF7B7BE01211E
:102CE8008020FFF7B3FE00218020BDE80840FFF7F1
:102CF800ADBE00BF000001400004004000080040D5
:102D0800000C004000100040001400400004014086
:102D180000400140004401400048014000180040C4
:102D2800001C004000200040214A0388904270B4F3
:102D38009BB212D002F5806290420ED0B0F1804F63
:102D48000BD0A2F58032904207D002F58062904203
:102D580003D002F58062904203D14A8823F07003C1
:102D68001343144D4C680A88A84215D005F58065B0
:102D7800A84211D00E8923F4407305F56C459BB227
:102D88003343A8420380C46202850CD18B7A038640
:102D98000123838270BC70470380C46202850123CB
:102DA800838270BC7047044B9842EFD0F7E700BFAE
:102DB80000000140001000400004014000234FF0D3
:102DC800FF32C0E900320381837270470185828235
:102DD800704700BF038823F070031B041B0C1943C2
:102DE8000180704741627047C1627047406A70470E
:102DF800008D7047038829B923F002031B041B0CBC
:102E08000380704743F0020303807047038829B9A1
:102E180023F004031B041B0C0380704743F00403D6
:102E280003807047038829B923F080031B041B0C17
:102E38000380704743F0800303807047038823F0C2
:102E480008031B041B0C0380038819430180704787
:102E5800038823F440731B041B0C03800388194365
:102E680001807047038829B923F001031B041B0C58
:102E78000380704743F0010303807047F0B4048C6B
:102E88008D89B1F802C00F88194E24F0010424047A
:102E9800240C0484028C8488038B22F0020223F021
:102EA800730312041B04120C45EA0C051B0CB042F8
:102EB80042EA0502A4B243EA070309D00D4DA8422D
:102EC80006D0896884800383F0BC4163028470471C
:102ED800CE890D8A4F8A22F0080232438E8824F464
:102EE800407422F004023D4332432C43E9E700BF1B
:102EF8000000014000040140F0B4048C8E89B1F850
:102F080002C00F881D4D24F010042404240C0484EE
:102F1800038C8488028B23F0200322F4E6421B04EE
:102F280012041B0C46EA0C06120C43EA061342EA8A
:102F38000722A8429BB2A4B292B20AD005F58065D6
:102F4800A84206D0896884800283F0BC8163038428
:102F58007047CD890E8A4F8A23F0800343EA051310
:102F68004FF6BF751D408B8824F440643E4345EA04
:102F7800031344EA86049BB2A4B2E3E700000140CD
:102F8800F0B5048C8D89B1F802E00F881D4E24F449
:102F980080742404240C0484038CB0F804C0828B4D
:102FA80023F400731B0422F0730245EA0E041B0C81
:102FB800120443EA0423120CB0429BB21FFA8CF5A8
:102FC80042EA070208D0104CA04205D089688580E3
:102FD8008283C1630384F0BDCC890E8A4F8A23F4AF
:102FE800006343EA04234FF6FF341C408B8825F422
:102FF80040553E4344EA032345EA06149BB2A5B272
:10300800E4E700BF0000014000040140F0B4048C74
:103018008E89B1F802C00F88164D24F48054240418
:10302800240C0484038C8488828B23F4005322F4B8
:10303800E6421B0412041B0C46EA0C06120C43EA77
:10304800063342EA0722A8429BB2A4B292B20AD03F
:1030580005F58065A84206D0896884808283F0BC23
:103068000164038470470D8A24F4804444EA85147B
:10307800A4B2F1E700000140002303608380C0E9A7
:1030880002330361704700BF038C10B401248C40E5
:1030980023EA040321F00804038418307CB10439BE
:1030A800C1F34E0148F6FF740B5823400B5012022F
:1030B8000B585DF8044B92B21A430A5070474908FE
:1030C8004FF68F740B5823400B500B585DF8044B88
:1030D8001A430A50704700BF4163704781637047C5
:1030E800C163704701647047038B23F070031B04AE
:1030F8001B0C194301837047038B23F4E0431B0423
:103108001B0C43EA012189B201837047838B23F0AA
:1031180070031B041B0C194381837047838B23F4B2
:10312800E0431B041B0C43EA012189B281837047E9
:10313800038B23F008031B041B0C194301837047FE
:10314800038B23F400631B041B0C43EA012189B29F
:1031580001837047838B23F008031B041B0C19435E
:1031680081837047838B23F400631B041B0C43EAA1
:10317800012189B281837047038B23F004031B0468
:103188001B0C194301837047038B23F480631B04D2
:103198001B0C43EA012189B201837047838B23F01A
:1031A80004031B041B0C194381837047838B23F48E
:1031B80080631B041B0C43EA012189B28183704799
:1031C800038B23F080031B041B0C194301837047F6
:1031D800038BC3F30E0343EA012189B201837047CD
:1031E800838B23F080031B041B0C194381837047D6
:1031F800838BC3F30E0343EA012189B281837047AD
:10320800038C23F002031B041B0C19430184704731
:10321800038C23F008031B041B0C1943018470471B
:10322800038C23F020031B041B0C43EA011189B211
:1032380001847047038C23F080031B041B0C43EAB2
:10324800011189B201847047038C23F400731B04B5
:103258001B0C43EA012189B201847047038C23F4D3
:1032680000631B041B0C43EA012189B201847047E7
:10327800038C23F400531B041B0C43EA013189B26D
:1032880001847047038C10B401248C4023EA0403A2
:103298000384038C5DF8044B02FA01F1194389B2E7
:1032A80001847047038C10B404248C4023EA04037F
:1032B8000384038C5DF8044B02FA01F1194389B2C7
:1032C800018470470B88F0B44D888F880E89C988AF
:1032D80053B3042B4AD0082B038C6ED023F48053AD
:1032E8001B041B0C0384828B048C330340F6FF46BB
:1032F800164045F6FF72224043EA072342F4805203
:10330800334342EA05329BB292B283830284838BB1
:1033180023F440631B041B0C8383838B43EA012142
:1033280089B28183F0BC7047048C24F00104240422
:10333800240C0484038B028C9BB223F0F30392B217
:103348003B4322F00A0243EA06132A439BB242F0A7
:10335800010203830284038B23F00C031B041B0C60
:103368000383038B19430183F0BC7047038C23F05C
:1033780010031B041B0C0384048B028C3B0292B2C7
:1033880043EA063622F0A00240F6FF43234042F00B
:103398001002334342EA05129BB292B203830284BD
:1033A800038B23F440631B041B0C0383038B43EA46
:1033B800012189B20183F0BC704723F480731B0498
:1033C8001B0C0384838B028C9BB292B223F0F30311
:1033D80022F420623B4342F4807243EA061342EA35
:1033E80005229BB292B283830284838B23F00C0361
:1033F8001B041B0C8383838B19438183F0BC7047A8
:1034080000230122828003804380C38003817047A8
:10341800B1F802C00A890B882DE9F041B1F804E03F
:10342800CD88BCF1000F4FEA021114BF0026022616
:103438001203BEF1010F4FEA052414BF012702272A
:1034480089B292B2A4B2002B44D0038C23F01003AB
:103458001B041B0C0384B0F81880038C9BB242EA4F
:103468000E2E23F0A00340F6FF4202EA080243F0C2
:10347800100342EA0E0243EA0C1392B29BB2028393
:103488000384038B23F440631B041B0C0383038B0B
:103498001C430483038C23F001031B041B0C0384CB
:1034A800028B038C92B29BB222F0F30223F00A0340
:1034B80043F0010311431E430F4307830684038B24
:1034C80023F00C031B041B0C0383038B1D43058390
:1034D800BDE8F081038C23F001031B041B0C03845B
:1034E800B0F81880038C1FFA88F89BB228F0F3080C
:1034F80023F00A034EEA080E4CEA030341EA0E01E0
:1035080043F0010301830384038B23F00C031B04A2
:103518001B0C0383038B1D430583038C23F01003CB
:103528001B041B0C0384058B038C40F6FF419BB2E4
:10353800294023F0A00343F010030A4343EA061688
:1035480042EA072707830684038B23F440631B049E
:103558001B0C0383038B1C430483BDE8F08100BF6D
:10356800406B7047806B7047C06B7047006C70474A
:10357800038B23F00C031B041B0C0383038B1943DD
:1035880001837047038B23F440631B041B0C0383E4
:10359800038B43EA012189B201837047838B23F0AF
:1035A8000C031B041B0C8383838B19438183704793
:1035B800838B23F440631B041B0C8383838B43EAB4
:1035C800012189B28183704770B40B884C888A883E
:1035D800CE880D89234313434C898A8933432B436F
:1035E80023431343A0F8443070BC70470023038082
:1035F80043808380C380038143818381704700BFF8
:10360800B0F8443021B9C3F30E03A0F84430704732
:1036180043F40043A0F84430704700BF838829B9B9
:1036280023F004031B041B0C8380704743F004033E
:1036380083807047838829B923F001031B041B0C7E
:103648008380704743F001038380704783891AB9E8
:1036580023EA01018181704719438181704700BFC6
:1036680081827047038A194214BF012000207047E5
:10367800C94389B201827047038A828911EA03002B
:1036880092B203D00A4214BF01200020704700BF45
:10369800C94389B2018270470A43A0F8482070479D
:1036A800FFF7D4BF838829B923F008031B041B0C38
:1036B8008380704743F0080383807047038923F0B1
:1036C80007031B041B0C0381704700BF038923F009
:1036D80070031B041B0C19430181038943F0070382
:1036E80003817047602970B426D0068C26F0010645
:1036F8003604360C0684048B058C24F0F304240469
:10370800240C25F00A0544EA03142D0442F00106AE
:1037180044F001042D0CA4B23543048305840389C5
:1037280023F070031B041B0C19430181038943F028
:103738000703038170BC7047048C24F01004240430
:10374800240C0484048B068C26F0A00640F6FF4562
:1037580036042C40360C44EA033446EA021644F494
:10376800807446F01006A4B2B6B204830684D6E785
:1037780010B4048942EA03231943E4B2214389B20D
:10378800018103895DF8044B23F077031B041B0CAC
:1037980043F077030381704710B4048942EA032396
:1037A8001943E4B2214389B2018103895DF8044BCE
:1037B80043F4804303817047038923F070031B049B
:1037C8001B0C194301817047838823F070031B0485
:1037D8001B0C83808388194381807047038923F0F9
:1037E80007031B041B0C03810389194301817047DC
:1037F800038923F080031B041B0C038103891943ED
:103808000181704710B404890A43E4B242EA0323F1
:1038180023439BB203815DF8044B704770B442EABE
:1038280003120589038B048C0A4E24F0220425F028
:10383800070524041E402D04240C2D0C46F4807327
:1038480014432943A4B243F0010301810383048490
:1038580070BC7047FCFCFFFF838829B923F0800304
:103868001B041B0C8380704743F0800383807047E0
:10387800A0F85010704700BF40F0BF60024B40F402
:103888000030D860704700BF00ED00E0F0B4017868
:10389800C378012401F01F0294404D092BB920354B
:1038A8000F4B43F82540F0BC70470E4B4678DB6859
:1038B80082780B4FD843C0F30220C0F10403DBB277
:1038C8009E400F230341F6B21340334339441B0192
:1038D800DBB281F8003347F82540F0BC704700BFE1
:1038E80000E100E000ED00E021F0604121F07F01FF
:1038F800014B01439960704700ED00E0044A1369E9
:1039080019B923EA00001061704718431061704725
:1039180000ED00E0044A136804280CBF43F00403D8
:1039280023F004031360704710E000E0543E0008E1
:1039380000000020AC040020AC040020A8050020F2
:1039480000B501208BB0FDF7B9FE0020FDF7B6FEEB
:103958000220FDF7B3FE0320FDF7B0FE0120FDF7BE
:10396800D1FE0020FDF7CEFE3A4C0220FDF7CAFE3C
:103978000320FDF7C7FE2046FEF796FF6368364A28
:10398800A2FB03235B09B3F1807F0AD2334A344C8C
:10399800013BF02500200721536084F823509060F4
:1039A800116001210420FFF715F84FF4A060FFF71C
:1039B80063FF00241E23012501A8ADF804308DF80B
:1039C80006408DF80750FFF761FF2846FDF776FEA1
:1039D8002046FDF773FE0320FDF770FE214B224AB7
:1039E8001B682248ADF81040A2FB03231B0C013BC7
:1039F8004FF6FF7202A9ADF808300392ADF80A40FD
:103A0800FFF792F929461948FFF70CFA184B17489F
:103A18001A8807924FF4803305A90593ADF8204022
:103A2800FFF72CFA21461148FFF782FB2A460221AC
:103A38000E48FFF70BFE0D482946FFF713FA0D4A0B
:103A48000D4B14704BF6803007221A70FCF760FD9E
:103A5800FEE700BFE80400201F85EB5110E000E0FE
:103A680000ED00E0180000200D08811E000800404D
:103A780004000020C8040020CB040020002103E03B
:103A88000B4B5B58435004310A480B4B42189A427F
:103A9800F6D30A4A02E0002342F8043B084B9A4254
:103AA800F9D3FCF7C7FB00F01FF8FFF749FF704791
:103AB800543E000800000020AC040020AC040020A4
:103AC800A8050020FEE7000008B50021044600F024
:103AD80083F8044B1868C36B03B19847204600F07D
:103AE800ABF900BF203E000870B50D4E0D4D761B9A
:103AF800B61006D00024013455F8043B9847A64276
:103B0800F9D1094E094D761B00F08AF9B61006D096
:103B18000024013455F8043B9847A642F9D170BDFA
:103B2800483E0008483E0008503E0008483E00084D
:103B3800F0B4860743D0541E002A3ED0CAB20346CA
:103B480002E014F1FF3438D303F8012B9D07F8D1B4
:103B5800032C2BD9CDB245EA05250F2C45EA05459E
:103B680016D9A4F110073F0903F1200606EB071642
:103B780003F1100242E9045542E902551032B242FB
:103B8800F8D104F00F040137032C03EB07130DD908
:103B98001E462246043A032A46F8045BFAD8221F36
:103BA80022F003020432134404F003042CB1C9B216
:103BB8001C4403F8011B9C42FBD1F0BC704714461F
:103BC8000346C5E7024B13B1024800F079B87047C5
:103BD80000000000D53C00082DE9F04F354B85B0BA
:103BE8000F460390186800F095F8334B1B68019353
:103BF80003F5A4730293B946019BD3F848613EB319
:103C0800DDF808A04FF001087468651E0FD4013470
:103C180006EB84040027B9F1000F20D0D4F8003156
:103C28004B451CD0013D6B1CA4F10404F3D1234B7C
:103C380073B1D6E90032002A34D1002B32D0304695
:103C4800CAF80030AFF30080DAF80060002EDBD14C
:103C5800184B186805B0BDE8F04F00F063B87368FA
:103C68002268013BAB420CBF75602760002AD9D09F
:103C7800D6F88811D6F804B008FA05F30B4208D133
:103C8800904773685B45B7D1DAF80030B342C9D0C2
:103C9800B2E7D6F88C01D4F88010034207D1039814
:103CA8009047EEE7B2461E46002EADD1D0E7084653
:103CB8009047E6E7A8040020203E00080000000026
:103CC800002301461A46184600F02EB838B50A4CAB
:103CD8000A4D641BA4100AD004F18043013B05EB94
:103CE8008305013C55F804399847002CF9D1BDE803
:103CF800384000F09BB800BF543E0008503E000812
:103D0800704700BF704700BF704700BF704700BFD3
:103D1800704700BF704700BF0120704701207047FF
:103D2800704700BF704700BF2DE9F8432B4D06468A
:103D3800286898460F469146FFF7ECFF284B1C6809
:103D4800D4F84831002B3DD05A681F2A0DDC02F107
:103D5800010C16BB0232C3F804C0286843F822706D
:103D6800FFF7E0FF0020BDE8F8831E4B7BB34FF45C
:103D7800C870AFF30080034648B3D4F84821002147
:103D8800C0E900214FF0010CC4F848010A46C0F808
:103D98008811C0F88C11002EDCD003EB82010124BD
:103DA800C1F88890D3F8880194402043022EC3F8C4
:103DB8008801C1F80881CDD1D3F88C110C43C3F820
:103DC8008C41C7E704F5A673C4F84831BCE72868F6
:103DD800FFF7A8FF4FF0FF30C5E700BFA804002099
:103DE800203E000800000000080000000800000055
:103DF80008000000080000000010002000400080BB
:103E080006000000000000000000000001000000A3
:103E180001000000010000008000002000000000F8
:103E2800F8B500BFF8BC08BC9E467047F8B500BF9F
:083E3800F8BC08BC9E4670476F
:083E400088C3FF7F01000000B0
:083E4800CD3B0008AD010008AC
:043E500089010008DC
:103E540000000000BA410000000000000000000063
:103E64000102030406070809007A030A0246000057
:103E7400000C0240000C0240000C0240000C024006
:103E8400000002400010000000C0120000000028E2
:103E9400B8600240FFFF00000100000000002000A5
:103EA4000C3C00402F0000000000002400004020D3
:103EB4000000002200000021FFFF000000000000BD
:103EC400010203040102030406070809800000201C
:103ED400000000006C030020D40300203C040020F8
:103EE40000000000000000000000000000000000CE
:103EF40000000000000000000000000000000000BE
:103F040000000000000000000000000000000000AD
:103F1400000000000000000000000000000000009D
:103F2400000000000000000000000000000000008D
:103F3400000000000000000000000000000000007D
:103F4400000000000000000000000000000000006D
:103F5400000000000000000000000000000000005D
:103F6400000000000000000000000000000000004D
:103F7400000000000000000001000000000000003C
:103F84000E33CDAB34126DE6ECDE05000B00000001
:103F9400000000000000000000000000000000001D
:103FA400000000000000000000000000000000000D
:103FB40000000000000000000000000000000000FD
:103FC40000000000000000000000000000000000ED
:0C42F40000000000000000008405002015
:0400000508003A8530
:00000001FF
