:020000040800F2
:1000000000000220855A0008CD5A0008CD5A000889
:10001000CD5A0008CD5A0008CD5A00080000000053
:10002000000000000000000000000000CD5A0008A1
:10003000CD5A000800000000CD5A0008CD5A000833
:10004000CD5A0008CD5A0008CD5A0008CD5A0008F4
:10005000CD5A0008CD5A0008CD5A0008CD5A0008E4
:10006000CD5A0008CD5A0008CD5A0008CD5A0008D4
:10007000CD5A0008CD5A0008CD5A0008CD5A0008C4
:10008000CD5A0008CD5A000871020008CD5A000868
:10009000CD5A0008CD5A0008CD5A0008CD5A0008A4
:1000A000CD5A0008CD5A0008CD5A0008CD5A000894
:1000B000CD5A0008CD5A0008CD5A0008CD5A000884
:1000C000CD5A0008CD5A0008CD5A0008CD5A000874
:1000D000CD5A0008CD5A0008CD5A0008CD5A000864
:1000E000CD5A0008CD5A0008CD5A0008CD5A000854
:1000F000CD5A0008CD5A0008CD5A0008CD5A000844
:10010000CD5A0008CD5A0008CD5A0008CD5A000833
:10011000CD5A0008CD5A0008CD5A0008CD5A000823
:10012000CD5A0008CD5A0008CD5A0008CD5A000813
:10013000CD5A0008CD5A0008CD5A0008CD5A000803
:10014000CD5A0008CD5A0008CD5A0008CD5A0008F3
:10015000CD5A0008CD5A0008CD5A0008CD5A0008E3
:10016000CD5A0008CD5A0008CD5A0008CD5A0008D3
:10017000CD5A0008CD5A0008CD5A0008CD5A0008C3
:08018000CD5A0008CD5A000819
:1001880010B5054C237833B9044B13B10448AFF3C9
:1001980000800123237010BD5C04002000000000D3
:1001A8009C60000808B5034B1BB103490348AFF333
:1001B800008008BD00000000600400209C6000086A
:1001C800154B002B08BF134B9D46A3F5803A002121
:1001D8008B460F461348144A121A05F0C7FC0F4BFA
:1001E800002B00D098470E4B002B00D098470020DA
:1001F800002104000D000D48002802D00C4805F02D
:10020800BFFD05F071FC2000290000F049F905F058
:100218005BFC00BF000008000000000000000000B8
:10022800000000005C0400200C050020895D000827
:10023800955D000880B485B000AF0346FB800023BD
:10024800FB6003E000BFFB680133FB60FB8841F201
:10025800537202FB03F3FA689A42F3DB00BF1437C8
:10026800BD465DF8047B704780B500AF40F20521BC
:10027800094801F01FFE0346002B0BD040F2052170
:10028800054801F075FE044801F0F2F803461A46E5
:10029800024B1A8000BF80BD002001407804002076
:1002A80080B500AF0121082003F0EAFA0C4801F0FC
:1002B800A5FE0C4B01221A710A4B00229A71094BB8
:1002C8000022DA71074B02225A71064B4FF4005292
:1002D8001A600449024801F04BFF00BF80BD00BF0F
:1002E800000C0240BC04002080B500AF01210120B1
:1002F80003F0C6FA01214FF4807003F0A5FB2E4BE2
:1003080003221A712C4B02221A602B4B0022DA713D
:1003180029492A4801F02CFF00F02EFA284800F05D
:100328005BFC274B00221A60254B00225A602448A8
:1003380000F06DFB234800F04BFB224B00221A60B3
:10034800204B00221A711F4B00225A711D4B0022AC
:100358009A601C4B4FF06062DA601A4B00221A61F7
:10036800184B01221A751749174800F013FA012192
:10037800154800F047FC012240F20521124801F01F
:10038800B9FC0023012201210F4800F0D3FD4FF4EE
:10039800E06005F033FA0D4B12221A700B4B002265
:1003A8005A700A4B00229A70084B0122DA700748EB
:1003B80005F050FA00BF80BDBC04002000000240D8
:1003C800D80400207C04002000200140D404002030
:1003D80080B500AF0121012003F052FA01214FF44A
:1003E800003003F0F7FA1A4B02221A71184B002258
:1003F8009A71174B04221A60154B02225A7114493C
:10040800144801F0B5FE07220221124802F0D2FB7F
:10041800114803F097FE114B4FF4E1321A600F4B6D
:1004280000229A800D4B0022DA800C4B00221A81A0
:100438000A4B00229A81094B08225A81074906482B
:1004480003F008FF0121044804F01EF900BF80BD35
:10045800BC0400200000024000440040C404002006
:1004680080B582B000AF786010E000BF80210B48F3
:1004780004F08AFF0346002BF8D07B685A1C7A6088
:100488001B789BB21946054804F042FA7B681B7832
:10049800002BEAD100BF0837BD4680BD00440040AC
:1004A80080B584B000AFFFF7FBFE134801F0A6FD4E
:1004B800FFF71AFFFFF78CFF6420FFF7BBFE0F481A
:1004C80000F080FE0E4B1B8818463B1D0A22194679
:1004D80005F04AFB3B1D1846FFF7C2FF0948FFF726
:1004E800BFFF0948FFF7BCFF084B5B69074A83F465
:1004F80000535361E0E700BF0000024000200140C4
:1005080078040020B05E0008B45E0008000C0240C9
:1005180080B483B000AF78603960FEE780B500AF83
:10052800164BD3F88830154A43F47003C2F8883064
:10053800134B1B68124A43F001031360104B00224F
:100548009A600F4B1B680E4A23F0847323F48033A0
:1005580013600B4B0B4A5A60094B1B68084A23F47B
:1005680080231360064B0022DA6000F089F8034B01
:100578004FF000629A6000BF80BD00BF00ED00E050
:10058800003802401030002480B487B000AF002348
:100598003B6100237B610223FB600023BB600223D5
:1005A8007B60324B9B6803F00C033B613B69042B77
:1005B80007D0082B09D0002B3DD12D4B2D4A1A60AE
:1005C8003DE02B4B2C4A1A6039E0284B5B689B0DA9
:1005D80003F00103BB60254B5B6803F03F037B60BE
:1005E800BB68002B0CD0244A7B68B2FBF3F31F4A8C
:1005F80052689209C2F3080202FB03F37B610BE025
:100608001C4A7B68B2FBF3F3184A52689209C2F39A
:10061800080202FB03F37B61144B5B681B0C03F0BD
:10062800030301335B00FB607A69FB68B2FBF3F3F9
:100638000F4A136003E00E4B0E4A1A6000BF0B4BC3
:100648009B681B0903F00F030C4AD35CDBB23B61C8
:10065800074B1A683B6922FA03F3054A136000BF87
:100668001C37BD465DF8047B704700BF0038024068
:10067800040000200024F40000127A000800002082
:1006880080B483B000AF00237B6000233B60364B0F
:100698001B68354A43F480331360334B1B6803F4FB
:1006A80000333B607B6801337B603B68002B03D1E0
:1006B8007B68B3F5A06FF0D12B4B1B6803F40033B4
:1006C800002B02D001233B6001E000233B603B6824
:1006D800012B42D1244B1B6C234A43F080531364F3
:1006E800224B1B68214A43F4804313601E4B1E4A69
:1006F8009B6893601C4B9B681B4A43F400439360C0
:10070800194B9B68184A43F4A0539360164B184A38
:100718005A60154B1B68144A43F08073136000BF7E
:10072800114B1B6803F00073002BF9D0114B40F2FA
:1007380005621A600C4B9B680B4A23F00303936015
:10074800094B9B68084A43F00203936000BF064BBD
:100758009B6803F00C03082BF9D100BF0C37BD468A
:100768005DF8047B704700BF00380240007000400D
:1007780019544007003C024080B500AF01214FF4F6
:10078800807003F07FFA00214FF4807003F07AFA4A
:1007980000BF80BD80B584B000AF786039600023A9
:1007A800FB600023FB727B68844A93420BD07B6812
:1007B800834A934207D07B68824A934203D0E92157
:1007C8008148FFF7A5FE3B681B68002B12D03B68E9
:1007D8001B68B3F1807F0DD03B681B68B3F1007FC5
:1007E80008D03B681B68B3F1407F03D0EA21764804
:1007F800FFF78EFE3B681B79002B07D03B681B79FF
:10080800012B03D0EB217048FFF782FE3B685B7930
:10081800002B07D03B685B79012B03D0EC216A4899
:10082800FFF776FE3B689B68002B12D03B689B68FD
:10083800B3F1805F0DD03B689B68B3F1005F08D0CF
:100848003B689B68B3F1405F03D0ED215E48FFF73A
:100858005FFE3B68DB68002B4ED03B68DB68B3F17A
:10086800807F49D03B68DB68B3F1007F44D03B68A8
:10087800DB68B3F1407F3FD03B68DB68B3F1806F42
:100888003AD03B68DB68B3F1A06F35D03B68DB68D2
:10089800B3F1C06F30D03B68DB68B3F1E06F2BD0A9
:1008A8003B68DB68B3F1006F26D03B68DB68B3F1C7
:1008B800106F21D03B68DB68B3F1206F1CD03B6818
:1008C800DB68B3F1306F17D03B68DB68B3F1406F7A
:1008D80012D03B68DB68B3F1506F0DD03B68DB6822
:1008E800B3F1606F08D03B68DB68B3F1706F03D079
:1008F800EE213548FFF70CFE3B681B69002B08D03A
:100908003B681B69B3F5006F03D0EF212E48FFF752
:10091800FFFD3B681B7D002B03D03B681B7D102B24
:1009280003D9F0212848FFF7F3FD7B685B68FB607B
:10093800FB6823F0407323F48073FB603B681B79EA
:100948001A023B681B681343FA681343FB607B6811
:10095800FA685A607B689B68FB60FA681B4B134017
:10096800FB603B681A693B68DB681A433B689B6815
:100978001A433B685B795B001343FA681343FB60D7
:100988007B68FA689A607B68DB6AFB60FB6823F423
:100998007003FB603B681B7D013BDAB2FB7A1343B3
:1009A800FB72FB7A1B05FA681343FB607B68FA68E5
:1009B800DA6200BF1037BD4680BD00BF002001408D
:1009C8000021014000220140B85E0008FDF7FFC089
:1009D80080B483B000AF78607B6800221A607B68BF
:1009E80000221A717B6800225A717B6800229A6083
:1009F8007B680022DA607B6800221A617B6801222A
:100A08001A7500BF0C37BD465DF8047B704780B58A
:100A180084B000AF78600023FB607B681B68002B04
:100A280034D07B681B68012B30D07B681B68022B95
:100A38002CD07B681B68052B28D07B681B68062B8D
:100A480024D07B681B68072B20D07B681B68092B88
:100A58001CD07B681B68112B18D07B681B68122B75
:100A680014D07B681B68152B10D07B681B68162B6D
:100A78000CD07B681B68172B08D07B681B68192B68
:100A880004D04FF4A9715148FFF742FD7B685B68B9
:100A9800002B13D07B685B68B3F5803F0ED07B6872
:100AA8005B68B3F5003F09D07B685B68B3F5403FEE
:100AB80004D040F253114548FFF72AFD7B689B6834
:100AC800002B13D07B689B68B3F5804F0ED07B68F2
:100AD8009B68B3F5004F09D07B689B68B3F5404F1E
:100AE80004D04FF4AA713948FFF712FD7B68DB6820
:100AF800002B4FD07B68DB68B3F5807F4AD07B68DA
:100B0800DB68B3F5007F45D07B68DB68B3F5407FD1
:100B180040D07B68DB68B3F5806F3BD07B68DB68CF
:100B2800B3F5A06F36D07B68DB68B3F5C06F31D002
:100B38007B68DB68B3F5E06F2CD07B68DB68B3F5C6
:100B4800006F27D07B68DB68B3F5106F22D07B6815
:100B5800DB68B3F5206F1DD07B68DB68B3F5306FB9
:100B680018D07B68DB68B3F5406F13D07B68DB680F
:100B7800B3F5506F0ED07B68DB68B3F5606F09D0B2
:100B88007B68DB68B3F5706F04D040F255110F48ED
:100B9800FFF7BEFC0E4B5B68FB60FA680D4B134019
:100BA800FB607B681A687B685B681A437B689B6894
:100BB8001A437B68DB681343FA681343FB60044AF3
:100BC800FB68536000BF1037BD4680BDB85E0008A3
:100BD80000230140E030FCFF80B483B000AF7860B0
:100BE8007B6800221A607B6800225A607B680022BA
:100BF8009A607B680022DA6000BF0C37BD465DF85A
:100C0800047B704780B582B000AF78600B46FB70FC
:100C18007B68174A93420CD07B68164A934208D0E7
:100C28007B68154A934204D040F28B111348FFF7B2
:100C38006FFCFB78002B07D0FB78012B04D04FF416
:100C4800C6710E48FFF764FCFB78002B06D07B6862
:100C58009B6843F001027B689A6005E07B689B68AB
:100C680023F001027B689A6000BF0837BD4680BD4B
:100C7800002001400021014000220140B85E000828
:100C880080B584B000AF786039600023FB607B6872
:100C9800214A93420CD07B68204A934208D07B6853
:100CA8001F4A934204D04FF4E3711E48FFF730FC0B
:100CB8003B681D4A93421BD03B681C4A934217D09D
:100CC8003B681B4A934213D03B68B3F5000F0FD023
:100CD8003B68B3F5800F0BD03B68B3F5400F07D0E6
:100CE8003B68002B04D040F2C7110E48FFF710FCF8
:100CF8007B685B68FB60FB6823F4400323F40073A4
:100D0800FB60FA683B681343FB607B68FA685A60CB
:100D180000BF1037BD4680BD0020014000210140C2
:100D280000220140B85E0008000280000002400076
:100D38000002C00080B582B000AF78600B467B80AF
:100D480013463B807B68164A93420CD07B68154A51
:100D5800934208D07B68144A934204D040F2E311CE
:100D68001248FFF7D5FB7B88B3F5805F04D34FF4B7
:100D7800F2710E48FFF7CCFB3B88B3F5805F04D3D4
:100D880040F2E5110948FFF7C3FB7A887B685A628D
:100D98003A887B689A6200BF0837BD4680BD00BFAD
:100DA800002001400021014000220140B85E0008F7
:100DB80080B584B000AF78600B46FB700023FB6001
:100DC8007B68304A93420CD07B682F4A934208D004
:100DD8007B682E4A934204D04FF403712C48FFF7E6
:100DE80097FBFB78002B3AD0FB78012B37D0FB78A8
:100DF800022B34D0FB78032B31D0FB78042B2ED078
:100E0800FB78052B2BD0FB78062B28D0FB78072BFB
:100E180025D0FB78082B22D0FB78092B1FD0FB7834
:100E28000A2B1CD0FB780B2B19D0FB780C2B16D077
:100E3800FB780D2B13D0FB780E2B10D0FB780F2BE3
:100E48000DD0FB78102B0AD0FB78112B07D0FB783C
:100E5800122B04D040F20D210D48FFF759FB7B6897
:100E68005B68FB60FB6823F01F03FB60FB78FA6894
:100E78001343FB607B68FA685A6000BF1037BD46B1
:100E880080BD00BF00200140002101400022014038
:100E9800B85E000880B582B000AF0346FB71FB79ED
:100EA800002B07D0FB79012B04D04FF413710B48AA
:100EB800FFF72EFBFB79002B06D0094B5B68084A2D
:100EC80043F40003536005E0054B5B68044A23F4D0
:100ED8000003536000BF0837BD4680BDB85E0008F8
:100EE8000023014080B582B000AF0346FB71FB7957
:100EF800002B07D0FB79012B04D040F262210B486C
:100F0800FFF706FBFB79002B06D0094B5B68084A04
:100F180043F48003536005E0054B5B68044A23F4FF
:100F28008003536000BF0837BD4680BDB85E000827
:100F38000023014080B584B000AF786008461146B0
:100F48001A460346FB700B46BB7013467B700023A2
:100F5800FB600023BB607B68964A93420CD07B6899
:100F6800954A934208D07B68944A934204D04FF440
:100F780032719348FFF7CCFAFB78002B3AD0FB7814
:100F8800012B37D0FB78022B34D0FB78032B31D0E0
:100F9800FB78042B2ED0FB78052B2BD0FB78062B67
:100FA80028D0FB78072B25D0FB78082B22D0FB789C
:100FB800092B1FD0FB780A2B1CD0FB780B2B19D0E0
:100FC800FB780C2B16D0FB780D2B13D0FB780E2B4F
:100FD80010D0FB780F2B0DD0FB78102B0AD0FB78A4
:100FE800112B07D0FB78122B04D040F2C92174488A
:100FF800FFF78EFABB78002B02D0BB78102B04D9F0
:1010080040F2CA216E48FFF783FA7B78002B19D08B
:101018007B78012B16D07B78022B13D07B78032B9F
:1010280010D07B78042B0DD07B78052B0AD07B78E9
:10103800062B07D07B78072B04D040F2CB216048E1
:10104800FFF766FAFB78092B23D97B68DB68FB601E
:10105800FB78A3F10A0213465B001344072202FA45
:1010680003F3BB60BB68DB43FA681340FB60797825
:10107800FB78A3F10A0213465B00134401FA03F359
:10108800BB60FA68BB681343FB607B68FA68DA6088
:101098001EE07B681B69FB60FA7813465B0013440B
:1010A800072202FA03F3BB60BB68DB43FA6813400C
:1010B800FB607978FA7813465B00134401FA03F36E
:1010C800BB60FA68BB681343FB607B68FA681A6107
:1010D800BB78062B21D87B685B6BFB60BB785A1EFC
:1010E80013469B0013441F2202FA03F3BB60BB683C
:1010F800DB43FA681340FB60F978BB785A1E134645
:101108009B00134401FA03F3BB60FA68BB681343FE
:10111800FB607B68FA685A6347E0BB780C2B21D8E0
:101128007B681B6BFB60BB78DA1F13469B0013447C
:101138001F2202FA03F3BB60BB68DB43FA68134063
:10114800FB60F978BB78DA1F13469B00134401FA59
:1011580003F3BB60FA68BB681343FB607B68FA68FB
:101168001A6322E07B68DB6AFB60BB78A3F10D029F
:1011780013469B0013441F2202FA03F3BB60BB68AB
:10118800DB43FA681340FB60F978BB78A3F10D02E2
:1011980013469B00134401FA03F3BB60FA68BB686B
:1011A8001343FB607B68FA68DA6200BF1037BD46FC
:1011B80080BD00BF00200140002101400022014005
:1011C800B85E000880B582B000AF78607B680D4AD1
:1011D80093420CD07B680C4A934208D07B680B4A38
:1011E800934204D040F23F310948FFF791F97B68F8
:1011F8009B6843F080427B689A6000BF0837BD4611
:1012080080BD00BF002001400021014000220140B4
:10121800B85E000880B584B000AF78600023FB7327
:101228007B68104A93420CD07B680F4A934208D0DF
:101238007B680E4A934204D040F24E310C48FFF7C7
:1012480067F97B689B6803F48003002B02D00123B5
:10125800FB7301E00023FB73FB7B18461037BD4688
:1012680080BD00BF00200140002101400022014054
:10127800B85E000880B582B000AF78600B46FB709E
:101288007B68174A93420CD07B68164A934208D071
:101298007B68154A934204D040F26B311348FFF73C
:1012A80037F9FB78002B07D0FB78012B04D04FF4DB
:1012B8005B710E48FFF72CF9FB78002B06D07B6892
:1012C8009B6843F480627B689A6005E07B689B6852
:1012D80023F480627B689A6000BF0837BD4680BDF2
:1012E800002001400021014000220140B85E0008B2
:1012F80080B582B000AF78600B46FB707B68174AF8
:1013080093420CD07B68164A934208D07B68154AF2
:10131800934204D04FF461711348FFF7F9F8FB7852
:10132800002B07D0FB78012B04D040F285310E4802
:10133800FFF7EEF8FB78002B06D07B689B6843F03C
:1013480002027B689A6005E07B689B6823F00202D2
:101358007B689A6000BF0837BD4680BD0020014009
:101368000021014000220140B85E000880B584B029
:1013780000AF78600B46FB700023FB600023BB6066
:101388007B68184A93420CD07B68174A934208D06E
:101398007B68164A934204D040F2A1311448FFF703
:1013A800B7F8FB78002B02D0FB78082B04D940F261
:1013B800A2310F48FFF7ACF87B685B68FB60FB68FD
:1013C80023F46043FB60FB78013BBB60BB685B03B5
:1013D800FA681343FB607B68FA685A6000BF1037ED
:1013E800BD4680BD0020014000210140002201408F
:1013F800B85E000880B582B000AF78600B46FB701D
:101408007B68174A93420CD07B68164A934208D0EF
:101418007B68154A934204D040F2BE311348FFF767
:1014280077F8FB78002B07D0FB78012B04D040F22B
:10143800BF310E48FFF76CF8FB78002B06D07B68AD
:101448005B6843F400627B685A6005E07B685B6810
:1014580023F400627B685A6000BF0837BD4680BD30
:10146800002001400021014000220140B85E000830
:1014780080B582B000AF78607B680B4A93420CD08D
:101488007B680A4A934208D07B68094A934204D091
:1014980040F2D5310748FFF73BF87B68DB6C9BB21D
:1014A80018460837BD4680BD002001400021014094
:1014B80000220140B85E000880B400AF034B1B68EF
:1014C8001846BD465DF8047B704700BF08230140FD
:1014D80080B582B000AF78600B46FB707B68174A16
:1014E80093420CD07B68164A934208D07B68154A11
:1014F800934204D040F21B411348FFF709F8FB78E8
:10150800002B07D0FB78012B04D040F21C410E4879
:10151800FEF7FEFFFB78002B06D07B689B6843F440
:1015280080727B689A6005E07B689B6823F4807210
:101538007B689A6000BF0837BD4680BD0020014027
:101548000021014000220140B85E000880B582B049
:1015580000AF78600B46FB707B68174A93420CD04B
:101568007B68164A934208D07B68154A934204D098
:1015780040F233411348FEF7CBFFFB78002B07D02E
:10158800FB78012B04D040F234410E48FEF7C0FF2F
:10159800FB78002B06D07B689B6843F400727B685D
:1015A8009A6005E07B689B6823F400727B689A6008
:1015B80000BF0837BD4680BD002001400021014022
:1015C80000220140B85E000880B582B000AF034633
:1015D800FB71FB79002B07D0FB79012B04D040F27B
:1015E8004E410B48FEF794FFFB79002B06D0094BC0
:1015F8005B68084A43F40053536005E0054B5B6899
:10160800044A23F40053536000BF0837BD4680BD29
:10161800B85E00080023014080B586B000AF78604E
:10162800084611461A460346FB700B46BB70134624
:101638007B7000237B6100233B610023FB607B6898
:10164800784A93420CD07B68774A934208D07B68EB
:10165800764A934204D040F2A6417548FEF758FFF7
:10166800FB78002B3AD0FB78012B37D0FB78022B84
:1016780034D0FB78032B31D0FB78042B2ED0FB78A9
:10168800052B2BD0FB78062B28D0FB78072B25D0F1
:10169800FB78082B22D0FB78092B1FD0FB780A2B6C
:1016A8001CD0FB780B2B19D0FB780C2B16D0FB78B1
:1016B8000D2B13D0FB780E2B10D0FB780F2B0DD0F1
:1016C800FB78102B0AD0FB78112B07D0FB78122B54
:1016D80004D040F2A7415648FEF71AFFBB78002B0A
:1016E80002D0BB78042B04D94FF495615048FEF71B
:1016F8000FFF7B78002B19D07B78012B16D07B78D5
:10170800022B13D07B78032B10D07B78042B0DD0C1
:101718007B78052B0AD07B78062B07D07B78072BA4
:1017280004D040F2A9414248FEF7F2FEFB78092BAB
:1017380023D97B68DB687B61FB78A3F10A02134637
:101748005B001344072202FA03F33B613B69DB4366
:101758007A6913407B617978FB78A3F10A02134612
:101768005B00134401FA03F33B617A693B69134355
:101778007B617B687A69DA601EE07B681B697B6144
:10178800FA7813465B001344072202FA03F33B611D
:101798003B69DB437A6913407B617978FA781346B1
:1017A8005B00134401FA03F33B617A693B69134315
:1017B8007B617B687A691A617B689B6B7B617B695B
:1017C8001B0D03F00303FB60FB68DBB2BA78D31A86
:1017D800DBB20233DBB21A4613469B0013441F22C6
:1017E80002FA03F33B613B69DB437A6913407B618F
:1017F800FA78FB68DBB2B978CB1ADBB20233DBB21A
:1018080019460B469B000B4402FA03F33B617A69C5
:101818003B6913437B617B687A699A6300BF183719
:10182800BD4680BD0020014000210140002201404A
:10183800B85E000880B584B000AF78600B46FB70D6
:101848000023FB600023BB607B68184A93420CD0DE
:101858007B68174A934208D07B68164A934204D0A3
:1018680040F2E6411448FEF753FEFB78002B02D005
:10187800FB78042B04D940F2E7410F48FEF748FEF5
:101888007B689B6BFB60FB6823F44013FB60FB7871
:10189800013BBB60BB681B05FA681343FB607B68B0
:1018A800FA689A6300BF1037BD4680BD002001402A
:1018B8000021014000220140B85E000880B584B0D4
:1018C80000AF78600B46FB7013463B800023FB603B
:1018D8007B681C4A93420CD07B681B4A934208D011
:1018E8007B681A4A934204D04FF4A1611848FEF766
:1018F8000FFEFB78142B0DD0FB78182B0AD0FB7841
:101908001C2B07D0FB78202B04D040F2095110483B
:10191800FEF7FEFD3B88B3F5805F04D340F20A5121
:101928000B48FEF7F5FD7B68FB60FA78FB6813440B
:10193800FB60FB681A463B88136000BF1037BD4642
:1019480080BD00BF0020014000210140002201406D
:10195800B85E000880B584B000AF786039600023B5
:10196800FB607B68324A93420CD07B68314A9342D1
:1019780008D07B68304A934204D040F22E512F4859
:10198800FEF7C6FD3B68002B40D03B68B3F5803FAF
:101998003CD03B68B3F5003F38D03B68B3F5403FD7
:1019A80034D03B68B3F5802F30D03B68B3F5A02F17
:1019B8002CD03B68B3F5C02F28D03B68B3F5E02F97
:1019C80024D03B68B3F5002F20D03B68B3F5102F27
:1019D8001CD03B68B3F5202F18D03B68B3F5302FE7
:1019E80014D03B68B3F5402F10D03B68B3F5502FA7
:1019F8000CD03B68B3F5602F08D03B68B3F5702F67
:101A080004D040F22F510D48FEF782FD7B689B6899
:101A1800FB60FB6823F47023FB60FA683B681343A0
:101A2800FB607B68FA689A6000BF1037BD4680BDCE
:101A3800002001400021014000220140B85E00085A
:101A480080B584B000AF786039600023FB607B68A4
:101A58001A4A93420CD07B68194A934208D07B6893
:101A6800184A934204D04FF4AA611748FEF750FD74
:101A78003B68002B10D03B68B3F5801F0CD03B6847
:101A8800B3F5001F08D03B68B3F5401F04D040F2FF
:101A980051510D48FEF73CFD7B689B68FB60FB6875
:101AA80023F44013FB60FA683B681343FB607B68D0
:101AB800FA689A6000BF1037BD4680BD002001401B
:101AC8000021014000220140B85E000880B582B0C4
:101AD80000AF78607B680D4A93420CD07B680C4A53
:101AE800934208D07B680B4A934204D040F2645179
:101AF8000948FEF70DFD7B689B6843F480027B680C
:101B08009A6000BF0837BD4680BD00BF0020014075
:101B18000021014000220140B85E000880B584B071
:101B280000AF78600023FB737B68104A93420CD0A7
:101B38007B680F4A934208D07B680E4A934204D0D0
:101B480040F272510C48FEF7E3FC7B689B6803F493
:101B58008003002B02D00123FB7301E00023FB73F9
:101B6800FB7B18461037BD4680BD00BF00200140F2
:101B78000021014000220140B85E000880B582B013
:101B880000AF78600B46FB707B68174A93420CD015
:101B98007B68164A934208D07B68154A934204D062
:101BA80040F28E511348FEF7B3FCFB78002B07D0A8
:101BB800FB78012B04D040F28F510E48FEF7A8FCA9
:101BC800FB78002B06D07B685B6843F480627B68F7
:101BD8005A6005E07B685B6823F480627B685A6022
:101BE80000BF0837BD4680BD0020014000210140EC
:101BF80000220140B85E000880B582B000AF78606E
:101C08000B46FB707B68174A93420CD07B68164AD8
:101C1800934208D07B68154A934204D04FF4B561CB
:101C28001348FEF775FCFB78002B07D0FB78012BD7
:101C380004D040F2A9510E48FEF76AFCFB78002B4D
:101C480006D07B685B6843F480527B685A6005E085
:101C58007B685B6823F480527B685A6000BF083752
:101C6800BD4680BD00200140002101400022014006
:101C7800B85E000880B584B000AF78600B46FB7092
:101C88000023FB607B68174A93420CD07B68164A96
:101C9800934208D07B68154A934204D040F2C6515B
:101CA8001348FEF735FCFB78142B0DD0FB78182B66
:101CB8000AD0FB781C2B07D0FB78202B04D040F2ED
:101CC800C7510B48FEF724FC7B68FB60FA78FB6879
:101CD80013442833FB60FB681B689BB21846103717
:101CE800BD4680BD00200140002101400022014086
:101CF800B85E000880B584B000AF78600B467B8082
:101D080013467B700023FB607B68284A93420CD003
:101D18007B68274A934208D07B68264A934204D0BE
:101D280040F231612448FEF7F3FB7B78002B07D0A3
:101D38007B78012B04D040F232611F48FEF7E8FBA4
:101D48007B8840F20522934212D07B88B3F5837FCB
:101D58000ED07B8840F20742934209D07B8842F23A
:101D68001A02934204D040F233611348FEF7D0FBC5
:101D78007B88DBB2FB600122FB6802FA03F3FB609D
:101D88007B78002B06D07B685A68FB681A437B680F
:101D98005A6006E07B685A68FB68DB431A407B6838
:101DA8005A6000BF1037BD4680BD00BF002001400B
:101DB8000021014000220140B85E000880B584B0CF
:101DC80000AF78600B46FB700023FB737B681B4AEF
:101DD80093420CD07B681A4A934208D07B68194A10
:101DE800934204D040F256611748FEF791FBFB7806
:101DF800012B13D0FB78022B10D0FB78042B0DD0CD
:101E0800FB78082B0AD0FB78102B07D0FB78202B07
:101E180004D040F257610C48FEF77AFB7B681A68D9
:101E2800FB781340002B02D00123FB7301E0002351
:101E3800FB73FB7B18461037BD4680BD0020014070
:101E48000021014000220140B85E000880B582B040
:101E580000AF78600B46FB707B68124A93420CD047
:101E68007B68114A934208D07B68104A934204D099
:101E78004FF4CF610E48FEF74BFBFB7803F0C0032D
:101E8800002B02D1FB78002B04D140F2796108487D
:101E9800FEF73EFBFB78DA437B681A6000BF083721
:101EA800BD4680BD002001400021014000220140C4
:101EB800B85E000880B586B000AF78600B467B80BE
:101EC8000023FB7500233B610023FB607B68244AE9
:101ED80093420CD07B68234A934208D07B68224AFD
:101EE800934204D04FF4D2612048FEF711FB7B885F
:101EF80040F20522934212D07B88B3F5837F0ED03F
:101F08007B8840F20742934209D07B8842F21A024A
:101F1800934204D040F291611448FEF7F9FA7B88A5
:101F28001B0A9BB23B617B685A687B88DBB2194607
:101F380001238B401340FB607B681A683B691340A0
:101F4800002B05D0FB68002B02D00123FB7501E0B4
:101F58000023FB75FB7D18461837BD4680BD00BFC2
:101F6800002001400021014000220140B85E000825
:101F780080B584B000AF78600B467B800023FB738C
:101F88007B681A4A93420CD07B68194A934208D05E
:101F98007B68184A934204D040F2B7611648FEF7AE
:101FA800B7FA7B8840F20522934212D07B88B3F5BA
:101FB800837F0ED07B8840F20742934209D07B880A
:101FC80042F21A02934204D04FF4D7610A48FEF74E
:101FD8009FFA7B881B0A9BB2FB73FB7BDA437B6807
:101FE8001A6000BF1037BD4680BD00BF0020014009
:101FF8000021014000220140B85E000880B582B08F
:1020080000AF78607B68504A934223D07B684F4A80
:1020180093421FD07B684E4A93421BD07B684D4A3F
:10202800934217D07B684C4A934213D07B684B4A43
:1020380093420FD07B684A4A93420BD07B68494A47
:10204800934207D07B68484A934203D07B21474894
:10205800FEF75EFA7B683C4A934208D101210120D1
:1020680001F02CFD0021012001F028FD68E07B68CB
:10207800364A934208D10121022001F01FFD0021B8
:10208800022001F01BFD5BE07B68314A934208D1D6
:102098000121042001F012FD0021042001F00EFDB1
:1020A8004EE07B682B4A934208D10121082001F0B9
:1020B80005FD0021082001F001FD41E07B68264A6A
:1020C800934208D10121102001F0F8FC00211020D2
:1020D80001F0F4FC34E07B68204A934208D10121E6
:1020E800202001F0EBFC0021202001F0E7FC27E094
:1020F8007B681B4A934208D10121402001F0DEFC95
:102108000021402001F0DAFC1AE07B68154A93426E
:1021180008D10121802001F0D1FC0021802001F0AC
:10212800CDFC0DE07B68104A934209D101214FF4A0
:10213800807001F0C3FC00214FF4807001F0BEFCF8
:1021480000BF0837BD4680BD0000024000040240C1
:1021580000080240000C0240001002400014024037
:1021680000180240001C024000200240105F0008D6
:1021780080B586B000AF7860396000237B610023AA
:102188003B610023FB607B687A4A934223D07B68DB
:10219800794A93421FD07B68784A93421BD07B6868
:1021A800774A934217D07B68764A934213D07B686C
:1021B800754A93420FD07B68744A93420BD07B6870
:1021C800734A934207D07B68724A934203D0BB217B
:1021D8007148FEF79DF93B681B68002B03D1BC21B1
:1021E8006D48FEF795F93B681B79002B0FD03B68CB
:1021F8001B79012B0BD03B681B79022B07D03B685E
:102208001B79032B03D0BD216348FEF781F93B6896
:10221800DB79002B0BD03B68DB79012B07D03B68BF
:10222800DB79022B03D0BE215B48FEF771F900234E
:102238007B6197E001227B6902FA03F33B613B680B
:102248001B683A691340FB60FA683B699A4240F0A0
:1022580086807B681A687B695B00032101FA03F3B7
:10226800DB431A407B681A607B681A683B681B79F5
:1022780019467B695B0001FA03F31A437B681A600D
:102288003B681B79012B03D03B681B79022B4ED18D
:102298003B685B79002B0FD03B685B79012B0BD037
:1022A8003B685B79022B07D03B685B79032B03D033
:1022B800D0213948FEF72CF97B689A687B695B0066
:1022C800032101FA03F3DB431A407B689A607B68B9
:1022D8009A683B685B7919467B695B0001FA03F3EE
:1022E8001A437B689A603B689B79002B07D03B6850
:1022F8009B79012B03D0D7212748FEF709F97B6882
:102308005A687B699BB2194601238B40DB431A400C
:102318007B685A607B685B683A68927911467A698B
:1023280092B201FA02F292B21A437B685A607B6851
:10233800DA687B699BB25B00032101FA03F3DB4394
:102348001A407B68DA607B68DA683B68DB79194693
:102358007B695B0001FA03F31A437B68DA607B69E7
:1023680001337B617B690F2B7FF664AF00BF1837A1
:10237800BD4680BD00000240000402400008024043
:10238800000C0240001002400014024000180240F5
:10239800001C024000200240105F000880B483B097
:1023A80000AF78607B684FF6FF721A607B68002286
:1023B8001A717B6800225A717B6800229A717B68C7
:1023C8000022DA7100BF0C37BD465DF8047B704708
:1023D80080B584B000AF78600B467B804FF48033C3
:1023E800FB607B68234A934224D07B68224A93424D
:1023F80020D07B68214A93421CD07B68204A9342B4
:1024080018D07B681F4A934214D07B681E4A9342B7
:1024180010D07B681D4A93420CD07B681C4A9342BB
:1024280008D07B681B4A934204D04FF482711A4843
:10243800FEF76EF87B88002B04D140F20511164890
:10244800FEF766F87A88FB681343FB60FA687B68D6
:10245800DA617A887B68DA61FA687B68DA617B68B6
:10246800DB69FB607B68DB69FB6000BF1037BD463A
:1024780080BD00BF00000240000402400008024086
:10248800000C0240001002400014024000180240F4
:10249800001C024000200240105F000880B584B094
:1024A80000AF78600B467B800023FB737B683A4A59
:1024B800934224D07B68394A934220D07B68384ABB
:1024C80093421CD07B68374A934218D07B68364ABF
:1024D800934214D07B68354A934210D07B68344AC3
:1024E80093420CD07B68334A934208D07B68324AC7
:1024F800934204D04FF498713048FEF709F87B886E
:10250800012B39D07B88022B36D07B88042B33D023
:102518007B88082B30D07B88102B2DD07B88202BF4
:102528002AD07B88402B27D07B88802B24D07B889F
:10253800B3F5807F20D07B88B3F5007F1CD07B88E3
:10254800B3F5806F18D07B88B3F5006F14D07B8803
:10255800B3F5805F10D07B88B3F5005F0CD07B8823
:10256800B3F5804F08D07B88B3F5004F04D040F214
:1025780031111248FDF7CCFF7B681A697B8813403C
:10258800002B02D00123FB7301E00023FB73FB7BCC
:1025980018461037BD4680BD0000024000040240C6
:1025A80000080240000C02400010024000140240E3
:1025B80000180240001C024000200240105F000882
:1025C80080B582B000AF78607B68174A934224D008
:1025D8007B68164A934220D07B68154A93421CD0E8
:1025E8007B68144A934218D07B68134A934214D0EC
:1025F8007B68124A934210D07B68114A93420CD0F0
:102608007B68104A934208D07B680F4A934204D0F3
:102618004FF4A3710D48FDF77BFF7B681B699BB2E4
:1026280018460837BD4680BD00000240000402403D
:1026380000080240000C0240001002400014024052
:1026480000180240001C024000200240105F0008F1
:1026580080B584B000AF78600B467B800023FB73A5
:102668007B683A4A934224D07B68394A934220D007
:102678007B68384A93421CD07B68374A934218D00B
:102688007B68364A934214D07B68354A934210D00F
:102698007B68344A93420CD07B68334A934208D013
:1026A8007B68324A934204D040F257113048FDF714
:1026B8002FFF7B88012B39D07B88022B36D07B8873
:1026C800042B33D07B88082B30D07B88102B2DD05F
:1026D8007B88202B2AD07B88402B27D07B88802B97
:1026E80024D07B88B3F5807F20D07B88B3F5007F2A
:1026F8001CD07B88B3F5806F18D07B88B3F5006F4A
:1027080014D07B88B3F5805F10D07B88B3F5005F69
:102718000CD07B88B3F5804F08D07B88B3F5004F89
:1027280004D04FF4AC711248FDF7F2FE7B685A6989
:102738007B881340002B02D00123FB7301E00023A8
:10274800FB73FB7B18461037BD4680BD0000024076
:102758000004024000080240000C02400010024041
:102768000014024000180240001C024000200240F1
:10277800105F000880B582B000AF78607B68174AA8
:10278800934224D07B68164A934220D07B68154A2E
:1027980093421CD07B68144A934218D07B68134A32
:1027A800934214D07B68124A934210D07B68114A36
:1027B80093420CD07B68104A934208D07B680F4A3A
:1027C800934204D040F26D110D48FDF7A1FE7B68DD
:1027D8005B699BB218460837BD4680BD00000240C1
:1027E8000004024000080240000C024000100240B1
:1027F8000014024000180240001C02400020024061
:10280800105F000880B582B000AF78600B467B800F
:102818007B681B4A934224D07B681A4A934220D093
:102828007B68194A93421CD07B68184A934218D097
:102838007B68174A934214D07B68164A934210D09B
:102848007B68154A93420CD07B68144A934208D09F
:102858007B68134A934204D040F27F111148FDF778
:1028680057FE7B88002B04D14FF4C0710D48FDF74B
:102878004FFE7B687A881A8300BF0837BD4680BD43
:10288800000002400004024000080240000C024020
:10289800001002400014024000180240001C0240D0
:1028A80000200240105F000880B582B000AF786059
:1028B8000B467B807B681B4A934224D07B681A4A6C
:1028C800934220D07B68194A93421CD07B68184AEF
:1028D800934218D07B68174A934214D07B68164AF3
:1028E800934210D07B68154A93420CD07B68144AF7
:1028F800934208D07B68134A934204D04FF4C971BD
:102908001148FDF705FE7B88002B04D140F2931196
:102918000D48FDF7FDFD7B687A885A8300BF0837AC
:10292800BD4680BD0000024000040240000802408D
:10293800000C02400010024000140240001802403F
:10294800001C024000200240105F000880B582B0E1
:1029580000AF78600B467B8013467B707B683F4AEC
:10296800934224D07B683E4A934220D07B683D4AFC
:1029780093421CD07B683C4A934218D07B683B4A00
:10298800934214D07B683A4A934210D07B68394A04
:1029980093420CD07B68384A934208D07B68374A08
:1029A800934204D04FF4D3713548FDF7B1FD7B88CD
:1029B800012B39D07B88022B36D07B88042B33D06F
:1029C8007B88082B30D07B88102B2DD07B88202B40
:1029D8002AD07B88402B27D07B88802B24D07B88EB
:1029E800B3F5807F20D07B88B3F5007F1CD07B882F
:1029F800B3F5806F18D07B88B3F5006F14D07B884F
:102A0800B3F5805F10D07B88B3F5005F0CD07B886E
:102A1800B3F5804F08D07B88B3F5004F04D040F25F
:102A2800A7111748FDF774FD7B78002B07D07B783A
:102A3800012B04D04FF4D4711148FDF769FD7B7860
:102A4800002B03D07B687A881A8302E07B687A8837
:102A58005A8300BF0837BD4680BD00BF0000024052
:102A68000004024000080240000C0240001002402E
:102A78000014024000180240001C024000200240DE
:102A8800105F000880B582B000AF78600B467B808D
:102A98007B68174A934224D07B68164A934220D019
:102AA8007B68154A93421CD07B68144A934218D01D
:102AB8007B68134A934214D07B68124A934210D021
:102AC8007B68114A93420CD07B68104A934208D025
:102AD8007B680F4A934204D040F2BD110D48FDF7C0
:102AE80017FD7A887B685A6100BF0837BD4680BDEC
:102AF800000002400004024000080240000C0240AE
:102B0800001002400014024000180240001C02405D
:102B180000200240105F000880B582B000AF7860E6
:102B28000B467B807B68194A934224D07B68184AFD
:102B3800934220D07B68174A93421CD07B68164A80
:102B4800934218D07B68154A934214D07B68144A84
:102B5800934210D07B68134A93420CD07B68124A88
:102B6800934208D07B68114A934204D040F2CB11BB
:102B78000F48FDF7CDFC7B685A697B885A407B6813
:102B88005A6100BF0837BD4680BD00BF0000024043
:102B98000004024000080240000C024000100240FD
:102BA8000014024000180240001C024000200240AD
:102BB800105F000880B584B000AF78600B467B805A
:102BC80013467B700023FB600023BB607B68844A4C
:102BD800934224D07B68834A934220D07B68824A00
:102BE80093421CD07B68814A934218D07B68804A04
:102BF800934214D07B687F4A934210D07B687E4A08
:102C080093420CD07B687D4A934208D07B687C4A0B
:102C1800934204D040F217217A48FDF779FC7B886B
:102C2800002B31D07B88012B2ED07B88022B2BD018
:102C38007B88032B28D07B88042B25D07B88052B09
:102C480022D07B88062B1FD07B88072B1CD07B8843
:102C5800082B19D07B88092B16D07B880A2B13D018
:102C68007B880B2B10D07B880C2B0DD07B880D2BF1
:102C78000AD07B880E2B07D07B880F2B04D04FF40B
:102C880006716048FDF744FC7B78002B6DD07B789B
:102C9800092B6AD07B78002B67D07B78002B64D017
:102CA8007B78002B61D07B78002B5ED07B78012B62
:102CB8005BD07B78012B58D07B78022B55D07B7862
:102CC800022B52D07B78022B4FD07B78032B4CD031
:102CD8007B78042B49D07B78042B46D07B78042B57
:102CE80043D07B78052B40D07B78052B3DD07B7873
:102CF800092B3AD07B78062B37D07B78092B34D038
:102D08007B78072B31D07B78072B2ED07B78072B4D
:102D18002BD07B78082B28D07B78082B25D07B7884
:102D2800082B22D07B78092B1FD07B78092B1CD04D
:102D38007B780A2B19D07B780A2B16D07B780B2B43
:102D480013D07B780C2B10D07B780C2B0DD07B7894
:102D58000C2B0AD07B780D2B07D07B780F2B04D057
:102D680040F219212748FDF7D3FB7A787B8803F0D6
:102D780007039B0002FA03F3FB607B88DB089BB226
:102D88001A467B68083253F822207B8803F0070331
:102D98009B000F2101FA03F3DB437988C90889B244
:102DA800084602EA03017B6800F1080243F8221092
:102DB8007B88DB089BB21A467B68083253F82230BE
:102DC800FA681343BB607B88DB089BB21A467B68B2
:102DD8000832B96843F8221000BF1037BD4680BDDD
:102DE800000002400004024000080240000C0240BB
:102DF800001002400014024000180240001C02406B
:102E080000200240105F000880B400AF104B1B6820
:102E18000F4A43F0010313600D4B00229A600C4BDC
:102E28001B680B4A23F0847323F480331360084B28
:102E3800084A5A60064B1B68054A23F4802313602E
:102E4800034B0022DA6000BFBD465DF8047B704783
:102E5800003802401030002480B582B000AF03462D
:102E6800FB71FB79002B09D0FB79012B06D0FB798C
:102E7800052B03D0F0210648FDF74AFB054B00223D
:102E88001A70044AFB79137000BF0837BD4680BD2D
:102E98006C5F00080238024080B582B000AF0023A2
:102EA8003B600023FB710023BB71312001F080F8E7
:102EB8000346BB713B6801333B603B68B3F5A06FC9
:102EC80002D0BB79002BF0D0312001F071F8034615
:102ED800002B02D00123FB7101E00023FB71FB7979
:102EE80018460837BD4680BD80B584B000AF03469C
:102EF800FB710023FB60FB791F2B04D94FF49471FD
:102F08000A48FDF705FB0A4B1B68FB60FB6823F0CA
:102F1800F803FB60FB79DB00FA681343FB60044AA3
:102F2800FB68136000BF1037BD4680BD6C5F0008AA
:102F38000038024080B582B000AF0346FB71FB79D0
:102F4800002B07D0FB79012B04D040F24B11054828
:102F5800FDF7DEFA044AFB79136000BF0837BD4667
:102F680080BD00BF6C5F00080000474280B582B09A
:102F780000AF0346FB71FB79002B0AD0FB79012BCC
:102F880007D0FB79042B04D04FF4B2710D48FDF73C
:102F9800BFFA0D4B00221A700B4B00221A70FB79F6
:102FA800012B02D0042B04D007E0074B01221A7032
:102FB80003E0054B05221A7000BF00BF0837BD4665
:102FC80080BD00BF6C5F00087038024080B582B0D9
:102FD80000AF0346FB71FB79002B07D0FB79012B6F
:102FE80004D04FF4C6710548FDF792FA044AFB79FC
:102FF800136000BF0837BD4680BD00BF6C5F000886
:10300800800E474280B584B000AFF860B9607A603E
:103018003B60FB68002B08D0FB68B3F5800F04D039
:1030280040F2B7112348FDF773FABB683F2B04D968
:103038004FF4DC711F48FDF76BFA7B68BF2B03D98F
:103048007B68B3F5D87F04D940F2B9111948FDF768
:103058005FFA3B68022B0DD03B68042B0AD03B6813
:10306800062B07D03B68082B04D04FF4DD711148BC
:10307800FDF74EFABB69032B02D9BB690F2B04D9A4
:1030880040F2BB110B48FDF743FA7B689A01BB6815
:103098001A433B685B08013B1B041A43FB681A434D
:1030A800BB691B06044913434B6000BF1037BD467C
:1030B80080BD00BF6C5F00080038024080B582B058
:1030C80000AF0346FB71FB79002B07D0FB79012B7E
:1030D80004D04FF4E7710548FDF71AFA044AFB7962
:1030E800136000BF0837BD4680BD00BF6C5F000895
:1030F8006000474280B582B000AF786039607B6875
:10310800BF2B03D97B68B3F5D87F04D94FF4F4718A
:103118000C48FDF7FDF93B68012B02D93B68072BEA
:1031280004D940F2E9110748FDF7F2F97B689A01E2
:103138003B681B0704491343C1F8843000BF0837B4
:10314800BD4680BD6C5F00080038024080B582B083
:1031580000AF0346FB71FB79002B07D0FB79012BED
:1031680004D040F2F7110548FDF7D2F9044AFB797B
:10317800136000BF0837BD4680BD00BF6C5F000804
:103188006800474280B582B000AF0346FB71FB7907
:10319800002B07D0FB79012B04D040F20921054808
:1031A800FDF7B6F9044AFB79136000BF0837BD463E
:1031B80080BD00BF6C5F00084C00474280B584B0FA
:1031C80000AF786039600023FB607B68002B10D06B
:1031D8007B68B3F5001F0CD07B68B3F5800F08D06F
:1031E8007B68B3F5C00F04D04FF409711748FDF799
:1031F8008FF93B68002B14D03B68B3F1806F10D077
:103208003B68B3F1A06F0CD03B68B3F1C06F08D036
:103218003B68B3F1E06F04D040F225210B48FDF77D
:1032280077F90B4B9B68FB60FB6823F0EC63FB6052
:103238007A683B681343FA681343FB60044AFB68E7
:10324800936000BF1037BD4680BD00BF6C5F0008AB
:103258000038024080B584B000AF78603960002340
:10326800FB607B68002B10D07B68B3F1804F0CD0DB
:103278007B68B3F1004F08D07B68B3F1404F04D0AE
:1032880040F24A211748FDF743F93B68002B14D058
:103298003B68B3F1005F10D03B68B3F1205F0CD0FE
:1032A8003B68B3F1405F08D03B68B3F1605F04D07E
:1032B80040F24B210B48FDF72BF90B4B9B68FB6049
:1032C800FB6823F07843FB607A683B681343FA682D
:1032D8001343FB60044AFB68936000BF1037BD4688
:1032E80080BD00BF6C5F00080038024080B584B024
:1032F80000AF78600023FB607B68002B0AD07B68F6
:10330800012B07D07B68022B04D04FF42D710A489B
:10331800FDF7FEF8094B9B68FB60FB6823F003038D
:10332800FB60FA687B681343FB60044AFB689360A0
:1033380000BF1037BD4680BD6C5F000800380240F2
:1033480080B400AF054B9B68DBB203F00C03DBB223
:103358001846BD465DF8047B704700BF0038024040
:1033680080B584B000AF78600023FB607B68002BD9
:103378001CD07B68802B19D07B68902B16D07B687B
:10338800A02B13D07B68B02B10D07B68C02B0DD03E
:103398007B68D02B0AD07B68E02B07D07B68F02BAA
:1033A80004D040F2E9210A48FDF7B2F8094B9B68BE
:1033B800FB60FB6823F0F003FB60FA687B6813434B
:1033C800FB60044AFB68936000BF1037BD4680BDB0
:1033D8006C5F00080038024080B584B000AF7860A8
:1033E8000023FB607B68002B14D07B68B3F5805FFB
:1033F80010D07B68B3F5A05F0CD07B68B3F5C05FD5
:1034080008D07B68B3F5E05F04D040F209310A4880
:10341800FDF77EF8094B9B68FB60FB6823F4E053DB
:10342800FB60FA687B681343FB60044AFB6893609F
:1034380000BF1037BD4680BD6C5F000800380240F1
:1034480080B584B000AF78600023FB607B68002BF8
:1034580014D07B68B3F5805F10D07B68B3F5A05FAC
:103468000CD07B68B3F5C05F08D07B68B3F5E05F2C
:1034780004D04FF44A710B48FDF74AF80A4B9B6891
:10348800FB60FB6823F46043FB607B68DB00FA6841
:103498001343FB60044AFB68936000BF1037BD46C6
:1034A80080BD00BF6C5F00080038024080B489B05E
:1034B80000AF78600023BB6100237B610023FB61C0
:1034C80002233B610023FB600223BB60474B9B68E0
:1034D80003F00C03BB61BB69042B07D0082B09D090
:1034E800002B3DD17B68424A1A603DE07B68414A27
:1034F8001A6039E03D4B5B689B0D03F00103FB60EC
:103508003A4B5B6803F03F03BB60FB68002B0CD0B1
:10351800384ABB68B2FBF3F3344A52689209C2F3E3
:10352800080202FB03F3FB610BE0314ABB68B2FB04
:10353800F3F32E4A52689209C2F3080202FB03F31E
:10354800FB612A4B5B681B0C03F0030301335B0030
:103558003B61FA693B69B2FBF3F27B681A6003E0EE
:103568007B68234A1A6000BF204B9B6803F0F00376
:10357800BB61BB691B09BB611F4ABB6913441B784C
:10358800DBB27B617B681A687B69DA407B685A60CA
:10359800164B9B6803F4E053BB61BB699B0ABB6194
:1035A800154ABB6913441B78DBB27B617B685A6898
:1035B8007B69DA407B689A600C4B9B6803F4604334
:1035C800BB61BB695B0BBB610B4ABB6913441B78CE
:1035D800DBB27B617B685A687B69DA407B68DA60BA
:1035E80000BF2437BD465DF8047B704700380240B1
:1035F8000024F40000127A001800002080B584B07E
:1036080000AF78600023FB607B68B3F5807F00F033
:1036180081807B68B3F5007F7CD07B684F4A9342FA
:1036280078D07B684E4A934274D07B684D4A934267
:1036380070D07B684C4A93426CD07B684B4A93426B
:1036480068D07B684A4A934264D07B68494A93426F
:1036580060D07B68484A93425CD07B68474A934273
:1036680058D07B68464A934254D07B68454A934277
:1036780050D07B68444A93424CD07B68434A93427B
:1036880048D07B68424A934244D07B68414A93427F
:1036980040D07B68404A93423CD07B683F4A934283
:1036A80038D07B683E4A934234D07B683D4A934287
:1036B80030D07B683C4A93422CD07B683B4A93428B
:1036C80028D07B683A4A934224D07B68394A93428F
:1036D80020D07B68384A93421CD07B68374A934293
:1036E80018D07B68364A934214D07B68354A934297
:1036F80010D07B68344A93420CD07B68334A93429B
:1037080008D07B68324A934204D040F2D93131481C
:10371800FCF7FEFE7B6803F44073B3F5407F11D1DC
:103728002D4B9B68FB60FB6823F4F813FB607B68F8
:1037380023F0704323F44073FA681343FB60264A6E
:10374800FB689360244B1A6F7B68C3F30B03224911
:1037580013430B6700BF1037BD4680BD000302004E
:103768000003030000030400000305000003060033
:1037780000030700000308000003090000030A0013
:1037880000030B0000030C0000030D0000030E00F3
:1037980000030F00000310000003110000031200D3
:1037A80000031300000314000003150000031600B3
:1037B80000031700000318000003190000031A0093
:1037C80000031B0000031C0000031D0000031E0073
:1037D80000031F006C5F00080038024080B582B00B
:1037E80000AF0346FB71FB79002B07D0FB79012B57
:1037F80004D040F2F7310548FCF78AFE044AFB7909
:10380800136000BF0837BD4680BD00BF6C5F00086D
:103818003C0E474280B582B000AF0346FB71FB798E
:10382800002B07D0FB79012B04D04FF481610548A8
:10383800FCF76EFE044AFB79136000BF0837BD46EB
:1038480080BD00BF6C5F0008400E474280B582B063
:1038580000AF78607B68002B07D07B68012B04D011
:1038680040F219410448FCF753FE044A7B68136090
:1038780000BF0837BD4680BD6C5F00085C01474249
:1038880080B582B000AF78600B46FB707A68164B43
:103898001340002B02D17B68002B04D14FF48861C0
:1038A8001248FCF735FEFB78002B07D0FB78012B7C
:1038B80004D040F242410D48FCF72AFEFB78002B69
:1038C80006D00B4B1A6B0A497B6813430B6306E05F
:1038D800074B1A6B7B68DB43054913400B6300BF3A
:1038E8000837BD4680BD00BF00EE8B816C5F0008C5
:1038F8000038024080B582B000AF78600B46FB709C
:103908007B6823F0F103002B02D17B68002B04D1E4
:103918004FF48C611148FCF7FBFDFB78002B07D0B6
:10392800FB78012B04D040F261410C48FCF7F0FD14
:10393800FB78002B06D00A4B5A6B09497B68134366
:103948004B6306E0064B5A6B7B68DB430449134024
:103958004B6300BF0837BD4680BD00BF6C5F0008E1
:103968000038024080B582B000AF78600B46FB702B
:103978007B6823F00103002B02D17B68002B04D164
:1039880040F27B411148FCF7C3FDFB78002B07D0C0
:10399800FB78012B04D040F27C410C48FCF7B8FDC1
:1039A800FB78002B06D00A4B9A6B09497B681343B6
:1039B8008B6306E0064B9A6B7B68DB430449134034
:1039C8008B6300BF0837BD4680BD00BF6C5F000831
:1039D8000038024080B582B000AF78600B46FB70BB
:1039E8007A68164B1340002B02D17B68002B04D158
:1039F80040F2AD411248FCF78BFDFB78002B07D055
:103A0800FB78012B04D040F2AE410D48FCF780FD55
:103A1800FB78002B06D00B4B1A6C0A497B681343C2
:103A28000B6406E0074B1A6C7B68DB4305491340BF
:103A38000B6400BF0837BD4680BD00BF003601C912
:103A48006C5F00080038024080B582B000AF786033
:103A58000B46FB707A68164B1340002B02D17B682B
:103A6800002B04D140F2D5411248FCF751FDFB78F8
:103A7800002B07D0FB78012B04D040F2D6410D482B
:103A8800FCF746FDFB78002B06D00B4B5A6C0A4915
:103A98007B6813434B6406E0074B5A6C7B68DB4337
:103AA800054913404B6400BF0837BD4680BD00BFC1
:103AB800CCA0F8FF6C5F00080038024080B582B0E7
:103AC80000AF78600B46FB707A68164B1340002BEA
:103AD80002D17B68002B04D140F2FC411248FCF76C
:103AE80017FDFB78002B07D0FB78012B04D040F2A0
:103AF800FD410D48FCF70CFDFB78002B06D00B4B65
:103B08001A690A497B6813430B6106E0074B1A6977
:103B18007B68DB43054913400B6100BF0837BD468E
:103B280080BD00BF00EE9FDD6C5F000800380240DA
:103B380080B582B000AF78600B46FB707B6823F0DD
:103B4800F103002B02D17B68002B04D140F21951FC
:103B58001148FCF7DDFCFB78002B07D0FB78012B24
:103B680004D040F21A510C48FCF7D2FCFB78002B29
:103B780006D00A4B5A6909497B6813434B6106E032
:103B8800064B5A697B68DB43044913404B6100BF0D
:103B98000837BD4680BD00BF6C5F00080038024092
:103BA80080B582B000AF78600B46FB707B6823F06D
:103BB8000103002B02D17B68002B04D140F2315164
:103BC8001148FCF7A5FCFB78002B07D0FB78012BEC
:103BD80004D040F232510C48FCF79AFCFB78002BD9
:103BE80006D00A4B9A6909497B6813438B6106E042
:103BF800064B9A697B68DB43044913408B6100BF1D
:103C08000837BD4680BD00BF6C5F00080038024021
:103C180080B582B000AF78600B46FB707A68164BAF
:103C28001340002B02D17B68002B04D14FF4AC6108
:103C38001248FCF76DFCFB78002B07D0FB78012BB2
:103C480004D040F261510D48FCF762FCFB78002B70
:103C580006D00B4B1A6A0A497B6813430B6206E0CD
:103C6800074B1A6A7B68DB43054913400B6200BFA8
:103C78000837BD4680BD00BF003601C96C5F00082B
:103C88000038024080B582B000AF78600B46FB7008
:103C98007A68164B1340002B02D17B68002B04D1A5
:103CA80040F284511248FCF733FCFB78002B07D014
:103CB800FB78012B04D040F285510D48FCF728FC15
:103CC800FB78002B06D00B4B5A6A0A497B681343D2
:103CD8004B6206E0074B5A6A7B68DB430549134091
:103CE8004B6200BF0837BD4680BD00BFCCA6F8FFB9
:103CF8006C5F00080038024080B582B000AF786081
:103D08000B46FB707A68164B1340002B02D17B6878
:103D1800002B04D140F2B2511248FCF7F9FBFB78B2
:103D2800002B07D0FB78012B04D040F2B3510D488B
:103D3800FCF7EEFBFB78002B06D00B4B1A6D0A49FB
:103D48007B6813430B6506E0074B1A6D7B68DB4302
:103D5800054913400B6500BF0837BD4680BD00BF4D
:103D6800006E98816C5F00080038024080B582B010
:103D780000AF78600B46FB707B6823F0F103002BE3
:103D880002D17B68002B04D140F2D2511148FCF7D4
:103D9800BFFBFB78002B07D0FB78012B04D040F247
:103DA800D3510C48FCF7B4FBFB78002B06D00A4B28
:103DB8005A6D09497B6813434B6506E0064B5A6DFB
:103DC8007B68DB43044913404B6500BF0837BD4699
:103DD80080BD00BF6C5F00080038024080B582B02B
:103DE80000AF78600B46FB707B6823F00103002B63
:103DF80002D17B68002B04D140F2ED511148FCF749
:103E080087FBFB78002B07D0FB78012B04D040F20E
:103E1800EE510C48FCF77CFBFB78002B06D00A4BD4
:103E28009A6D09497B6813438B6506E0064B9A6DCA
:103E38007B68DB43044913408B6500BF0837BD46E8
:103E480080BD00BF6C5F00080038024080B582B0BA
:103E580000AF78600B46FB707A68164B1340002B56
:103E680002D17B68002B04D140F21F611248FCF795
:103E78004FFBFB78002B07D0FB78012B04D04FF4C5
:103E8800C4610D48FCF744FBFB78002B06D00B4BB4
:103E98001A6E0A497B6813430B6606E0074B1A6ED5
:103EA8007B68DB43054913400B6600BF0837BD46F6
:103EB80080BD00BF003601C96C5F000800380240B1
:103EC80080B582B000AF78600B46FB707A68164BFD
:103ED8001340002B02D17B68002B04D140F24761CC
:103EE8001248FCF715FBFB78002B07D0FB78012B59
:103EF80004D04FF4C9610D48FCF70AFBFB78002B8E
:103F080006D00B4B5A6E0A497B6813434B6606E092
:103F1800074B5A6E7B68DB43054913404B6600BF6D
:103F28000837BD4680BD00BFCCA0F8FF6C5F000815
:103F38000038024080B582B000AF03460A46FB71E4
:103F48001346BB71FB7903F0C003002B02D1FB7948
:103F5800002B04D140F274611348FCF7D9FABB79FD
:103F6800002B07D0BB79012B04D040F275610E48B5
:103F7800FCF7CEFABB79002B08D00C4B1B78DAB2D1
:103F88000A49FB791343DBB20B7009E0074B1B7836
:103F9800DAB2FB79DB43DBB204491340DBB20B70C6
:103FA80000BF0837BD4680BD6C5F00080D38024071
:103FB80080B586B000AF0346FB710023FB60002389
:103FC8007B610023FB74FB79212B28D0FB79312BF3
:103FD80025D0FB79392B22D0FB79412B1FD0FB79D7
:103FE800612B1CD0FB79792B19D0FB797A2B16D051
:103FF800FB797B2B13D0FB797C2B10D0FB797D2BA5
:104008000DD0FB797E2B0AD0FB797F2B07D0FB796B
:104018003B2B04D040F29C611648FCF779FAFB79F7
:104028005B09DBB2FB60FB68012B03D1124B1B68F9
:104038007B6109E0FB68022B03D10F4B1B6F7B618F
:1040480002E00D4B5B6F7B61FB7903F01F03FB60A4
:104058007A69FB6822FA03F303F00103002B02D00C
:104068000123FB7401E00023FB74FB7C184618371E
:10407800BD4680BD6C5F00080038024080B400AFC8
:10408800054B5B6F044A43F08073536700BFBD461E
:104098005DF8047B704700BF0038024080B584B0EB
:1040A80000AF0346FB710023FB73FB79012B16D08D
:1040B800FB79022B13D0FB79042B10D0FB79082B4A
:1040C8000DD0FB79102B0AD0FB79802B07D0FB7918
:1040D800202B04D040F2DA610948FCF719FA094BA1
:1040E800DA68FB791340002B02D00123FB7301E04F
:1040F8000023FB73FB7B18461037BD4680BD00BF0D
:104108006C5F00080038024080B582B000AF0346FB
:10411800FB71FB7903F04003002B02D1FB79002BE4
:1041280004D140F2F9610548FCF7F2F9044AFB7939
:10413800137000BF0837BD4680BD00BF6C5F000824
:104148000E38024080B582B000AF78607B683A4A8A
:10415800934217D07B68394A934213D07B68384A18
:1041680093420FD07B68374A93420BD07B68364A1C
:10417800934207D07B68354A934203D0B52134482F
:10418800FCF7C6F97B682C4A934208D1012110201C
:10419800FFF778FD00211020FFF774FD47E07B68EA
:1041A800264A93420AD101214FF40030FFF730FD2F
:1041B80000214FF40030FFF72BFD38E07B68204AE0
:1041C80093420AD101214FF48020FFF721FD0021FD
:1041D8004FF48020FFF71CFD29E07B68194A9342C1
:1041E8000AD101214FF40020FFF712FD00214FF4FE
:1041F8000020FFF70DFD1AE07B68134A93420AD1AD
:1042080001214FF48010FFF703FD00214FF48010C7
:10421800FFF7FEFC0BE07B680C4A934207D10121B3
:104228002020FFF72FFD00212020FFF72BFD00BFE6
:104238000837BD4680BD00BF001001400044004063
:1042480000480040004C004000500040001401406D
:10425800C45F000880B58AB000AF78603960002379
:104268007B6200233B620023FB610023BB617B6808
:10427800974A934217D07B68964A934213D07B683B
:10428800954A93420FD07B68944A93420BD07B683F
:10429800934A934207D07B68924A934203D0EB211A
:1042A8009148FCF735F93B681B68002B04D03B6844
:1042B8001B688E4A934203D9EC218B48FCF728F9F6
:1042C8003B689B88002B08D03B689B88B3F5805FD0
:1042D80003D0ED218448FCF71BF93B68DB88002BF1
:1042E80012D03B68DB88B3F5805F0DD03B68DB8874
:1042F800B3F5005F08D03B68DB88B3F5405F03D0B7
:10430800EE217948FCF704F93B681B89002B0DD096
:104318003B681B89B3F5806F08D03B681B89B3F5F0
:10432800C06F03D0EF217048FCF7F2F83B685B8957
:104338001A464FF6F3731340002B03D13B685B8991
:10434800002B03D1F0216848FCF7E2F83B689B8911
:10435800002B12D03B689B89B3F5807F0DD03B685A
:104368009B89B3F5007F08D03B689B89B3F5407FF4
:1043780003D0F1215C48FCF7CBF83B689B89002B04
:1043880013D07B68524A93420FD07B68514A9342BC
:104398000BD07B68504A934207D07B68514A9342BE
:1043A80003D0F6215048FCF7B3F87B681B8A9BB210
:1043B8007B627B6A23F440537B623B68DB881A4646
:1043C8007B6A13437B627B6A9AB27B681A827B683A
:1043D8009B899BB27B627B6A23F4B05323F00C0366
:1043E8007B623B689A883B681B8913439AB23B6897
:1043F8005B8913439BB21A467B6A13437B627B6AD1
:104408009AB27B689A817B689B8A9BB27B627B6A43
:1044180023F440737B623B689B891A467B6A13438B
:104428007B627B6A9AB27B689A8207F10803184616
:10443800FFF73CF87B68264A934203D07B68294AF9
:10444800934202D17B693B6201E03B693B627B6836
:104458009B899BB21BB2002B0CDA3A6A13469B006D
:1044680013449A001A443B681B685B00B2FBF3F3E1
:10447800FB610BE03A6A13469B0013449A001A4406
:104488003B681B689B00B2FBF3F3FB61FB69184AAE
:10449800A2FB03235B091B017B627B6A1B09642265
:1044A80002FB03F3FA69D31ABB617B689B899BB251
:1044B8001BB2002B1EDABB69DB0032330C4AA2FBAD
:1044C80003235B0903F007037A6A13437B621DE049
:1044D800001001400044004000480040004C0040EB
:1044E8000050004000140140C45F0008E0707200F2
:1044F8001F85EB51BB691B013233084AA2FB03231A
:104508005B0903F00F037A6A13437B627B6A9AB2F2
:104518007B681A8100BF2837BD4680BD1F85EB51D7
:1045280080B483B000AF78607B684FF416521A608D
:104538007B6800229A807B680022DA807B680022F0
:104548001A817B680C225A817B6800229A8100BFFD
:104558000C37BD465DF8047B704780B584B000AF6A
:10456800786039600023FB607B68374A934210D03B
:104578007B68364A93420CD07B68354A934208D010
:104588007B68344A934204D04FF4B6713248FBF743
:10459800BFFF3B681B88002B09D03B681B88B3F51D
:1045A800006F04D040F26D112B48FBF7B1FF3B6858
:1045B8005B88002B09D03B685B88B3F5806F04D01B
:1045C8004FF4B7712448FBF7A3FF3B689B88002B87
:1045D80009D03B689B88B3F5007F04D040F26F1187
:1045E8001D48FBF795FF3B68DB88002B09D03B682B
:1045F800DB88B3F5807F04D04FF4B8711648FBF719
:1046080087FF7B681B8A9BB2FB60FB6823F470639F
:10461800FB603B681A883B685B8813439AB23B6827
:104628009B8813439AB23B68DB8813439BB21A46B4
:10463800FB681343FB60FB689AB27B681A8200BF71
:104648001037BD4680BD00BF001001400044004047
:104658000048004000140140C45F000880B483B0E3
:1046680000AF78607B6800221A807B6800225A803D
:104678007B6800229A807B680022DA8000BF0C37B2
:10468800BD465DF8047B704780B582B000AF7860A6
:104698000B46FB707B681F4A934218D07B681E4A02
:1046A800934214D07B681D4A934210D07B681C4A01
:1046B80093420CD07B681B4A934208D07B681A4A05
:1046C800934204D040F29B111848FBF721FFFB7876
:1046D800002B07D0FB78012B04D04FF4CE71134880
:1046E800FBF716FFFB78002B08D07B689B899BB2F1
:1046F80043F400539AB27B689A8107E07B689B89F0
:104708009BB223F400539AB27B689A8100BF0837A2
:10471800BD4680BD001001400044004000480040F4
:10472800004C00400050004000140140C45F0008E5
:1047380080B582B000AF78600B46FB707B68184A82
:10474800934218D07B68174A934214D07B68164A64
:10475800934210D07B68154A93420CD07B68144A68
:10476800934208D07B68134A934204D040F2B511B3
:104778001148FBF7CDFE7B681B8B9BB223F0FF0330
:104788009AB27B681A837B681B8B9AB2FB789BB2C0
:1047980013439AB27B681A8300BF0837BD4680BDB1
:1047A800001001400044004000480040004C004018
:1047B8000050004000140140C45F000880B582B07A
:1047C80000AF78600B46FB707B68204A934218D094
:1047D8007B681F4A934214D07B681E4A934210D0CC
:1047E8007B681D4A93420CD07B681C4A934208D0D0
:1047F8007B681B4A934204D04FF4E5711948FBF7D4
:1048080087FEFB78002B07D0FB78012B04D040F201
:10481800CB111448FBF77CFEFB78002B0AD07B6891
:104828009B899BB26FEA43436FEA53439AB27B6812
:104838009A8107E07B689B899BB2C3F30E039AB207
:104848007B689A8100BF0837BD4680BD00100140D3
:104858000044004000480040004C00400050004028
:1048680000140140C45F000880B582B000AF7860D2
:104878000B46FB707B681F4A934218D07B681E4A20
:10488800934214D07B681D4A934210D07B681C4A1F
:1048980093420CD07B681B4A934208D07B681A4A23
:1048A800934204D04FF4F2711848FBF731FEFB78BD
:1048B800002B07D0FB78012B04D040F2E5111348F8
:1048C800FBF726FEFB78002B08D07B689B8A9BB2FF
:1048D80043F400639AB27B689A8207E07B689B8AFC
:1048E8009BB223F400639AB27B689A8200BF0837B0
:1048F800BD4680BD00100140004400400048004013
:10490800004C00400050004000140140C45F000803
:1049180080B582B000AF78600B467B807B68174A11
:10492800934218D07B68164A934214D07B68154A84
:10493800934210D07B68144A93420CD07B68134A88
:10494800934208D07B68124A934204D040F21D215A
:104958001048FBF7DDFD7B88B3F5007F04D340F2F8
:104968001E210C48FBF7D4FD7B88C3F308039AB2D9
:104978007B689A8000BF0837BD4680BD00100140A3
:104988000044004000480040004C004000500040F7
:1049980000140140C45F000880B582B000AF7860A1
:1049A8007B68134A934218D07B68124A934214D00A
:1049B8007B68114A934210D07B68104A93420CD00E
:1049C8007B680F4A934208D07B680E4A934204D012
:1049D80040F22D210C48FBF79BFD7B689B889BB21E
:1049E800C3F308039BB218460837BD4680BD00BF15
:1049F800001001400044004000480040004C0040C6
:104A08000050004000140140C45F000880B582B027
:104A180000AF78600B46FB707B681C4A934218D045
:104A28007B681B4A934214D07B681A4A934210D081
:104A38007B68194A93420CD07B68184A934208D085
:104A48007B68174A934204D04FF418711548FBF756
:104A58005FFDFB780F2B04D940F261211148FBF769
:104A680057FD7B681B8A9BB223F00F039AB27B68C1
:104A78001A827B681B8A9AB2FB789BB213439AB25C
:104A88007B681A8200BF0837BD4680BD0010014010
:104A98000044004000480040004C004000500040E6
:104AA80000140140C45F000880B582B000AF786090
:104AB8000B46FB707B681F4A934218D07B681E4ADE
:104AC800934214D07B681D4A934210D07B681C4ADD
:104AD80093420CD07B681B4A934208D07B681A4AE1
:104AE800934204D04FF41D711848FBF711FDFB7871
:104AF800002B07D0FB78012B04D040F27521134816
:104B0800FBF706FDFB78002B08D07B689B899BB2DE
:104B180043F002039AB27B689A8107E07B689B891D
:104B28009BB223F002039AB27B689A8100BF0837D0
:104B3800BD4680BD001001400044004000480040D0
:104B4800004C00400050004000140140C45F0008C1
:104B580080B582B000AF78600B467B807B681E4AC8
:104B6800934218D07B681D4A934214D07B681C4A34
:104B7800934210D07B681B4A93420CD07B681A4A38
:104B8800934208D07B68194A934204D040F28F219F
:104B98001748FBF7BDFC7B88002B08D07B88B3F552
:104BA800006F04D04FF424711148FBF7B1FC7B6807
:104BB8009B899BB223F400639AB27B689A817B68D5
:104BC8009B899AB27B8813439AB27B689A8100BF0B
:104BD8000837BD4680BD00BF0010014000440040BA
:104BE80000480040004C00400050004000140140C4
:104BF800C45F000880B582B000AF78600B467B8048
:104C08007B681D4A934218D07B681C4A934214D093
:104C18007B681B4A934210D07B681A4A93420CD097
:104C28007B68194A934208D07B68184A934204D09B
:104C38004FF435711648FBF76BFC7B88002B07D0C7
:104C48007B88202B04D040F2D5211148FBF760FC6B
:104C58007B681B8A9BB223F020039AB27B681A8276
:104C68007B681B8A9AB27B8813439AB27B681A8244
:104C780000BF0837BD4680BD001001400044004019
:104C880000480040004C0040005000400014014023
:104C9800C45F000880B582B000AF78600B46FB7037
:104CA8007B681F4A934218D07B681E4A934214D0EF
:104CB8007B681D4A934210D07B681C4A93420CD0F3
:104CC8007B681B4A934208D07B681A4A934204D0F7
:104CD80040F2E6211848FBF71BFCFB78002B07D0B5
:104CE800FB78012B04D040F2E7211348FBF710FCB6
:104CF800FB78002B08D07B681B8A9BB243F4804367
:104D08009AB27B681A8207E07B681B8A9BB223F4FD
:104D180080439AB27B681A8200BF0837BD4680BDBF
:104D2800001001400044004000480040004C004092
:104D38000050004000140140C45F000880B582B0F4
:104D480000AF78607B68144A934218D07B68134A96
:104D5800934214D07B68124A934210D07B68114A60
:104D680093420CD07B68104A934208D07B680F4A64
:104D7800934204D040F2FE210D48FBF7C9FB7B6843
:104D88009B899BB243F001039AB27B689A8100BF6A
:104D98000837BD4680BD00BF0010014000440040F8
:104DA80000480040004C0040005000400014014002
:104DB800C45F000880B582B000AF78600B46FB7016
:104DC8007B681F4A934218D07B681E4A934214D0CE
:104DD8007B681D4A934210D07B681C4A93420CD0D2
:104DE8007B681B4A934208D07B681A4A934204D0D6
:104DF80040F233311848FBF78BFBFB78002B07D0C8
:104E0800FB78012B04D04FF44D711348FBF780FB5E
:104E1800FB78002B08D07B689B8A9BB243F0080381
:104E28009AB27B689A8207E07B689B8A9BB223F0E0
:104E380008039AB27B689A8200BF0837BD4680BDD6
:104E4800001001400044004000480040004C004071
:104E58000050004000140140C45F000880B582B0D3
:104E680000AF78600B46FB707B68154A934210D000
:104E78007B68144A93420CD07B68134A934208D04B
:104E88007B68124A934204D04FF462711048FBF7D2
:104E98003FFB7B681B8B9BB2DBB29AB27B681A83A1
:104EA8007B681B8B9AB2FB789BB21B029BB21343A5
:104EB8009AB27B681A8300BF0837BD4680BD00BF21
:104EC8000010014000440040004800400014014028
:104ED800C45F000880B582B000AF78600B46FB70F5
:104EE8007B681B4A934210D07B681A4A93420CD0C5
:104EF8007B68194A934208D07B68184A934204D0C9
:104F080040F29B311648FBF703FBFB78002B07D0D8
:104F1800FB78012B04D04FF467711148FBF7F8FABE
:104F2800FB78002B08D07B689B8A9BB243F0200358
:104F38009AB27B689A8207E07B689B8A9BB223F0CF
:104F480020039AB27B689A8200BF0837BD4680BDAD
:104F58000010014000440040004800400014014097
:104F6800C45F000880B582B000AF78600B46FB7064
:104F78007B681B4A934210D07B681A4A93420CD034
:104F88007B68194A934208D07B68184A934204D038
:104F98004FF46D711648FBF7BBFAFB78002B07D06E
:104FA800FB78012B04D040F2B5311148FBF7B0FA79
:104FB800FB78002B08D07B689B8A9BB243F01003D8
:104FC8009AB27B689A8207E07B689B8A9BB223F03F
:104FD80010039AB27B689A8200BF0837BD4680BD2D
:104FE8000010014000440040004800400014014007
:104FF800C45F000880B582B000AF78600B467B8044
:105008007B681D4A934218D07B681C4A934214D08F
:105018007B681B4A934210D07B681A4A93420CD093
:105028007B68194A934208D07B68184A934204D097
:1050380040F2FB311648FBF76BFA7B88042B07D04C
:105048007B88002B04D04FF47F711148FBF760FA7E
:105058007B689B8A9BB223F004039AB27B689A828E
:105068007B689B8A9AB27B8813439AB27B689A8240
:1050780000BF0837BD4680BD001001400044004015
:1050880000480040004C004000500040001401401F
:10509800C45F000880B582B000AF78600B46FB7033
:1050A8007B681F4A934218D07B681E4A934214D0EB
:1050B8007B681D4A934210D07B681C4A93420CD0EF
:1050C8007B681B4A934208D07B681A4A934204D0F3
:1050D80040F20D411848FBF71BFAFB78002B07D06C
:1050E800FB78012B04D040F20E411348FBF710FA6D
:1050F800FB78002B08D07B689B8A9BB243F00203A5
:105108009AB27B689A8207E07B689B8A9BB223F0FD
:1051180002039AB27B689A8200BF0837BD4680BDF9
:10512800001001400044004000480040004C00408E
:105138000050004000140140C45F000880B582B0F0
:1051480000AF78600B467B8013467B707B68274AEC
:10515800934218D07B68264A934214D07B68254A2C
:10516800934210D07B68244A93420CD07B68234A30
:10517800934208D07B68224A934204D040F23B41D4
:105188002048FBF7C5F97A884FF63F731340002B88
:1051980002D17B88002B04D140F23C411948FBF72F
:1051A800B7F97B78002B07D07B78012B04D040F22D
:1051B8003D411448FBF7ACF97B78002B08D07B689D
:1051C8009B8A9AB27B8813439AB27B689A8209E0D9
:1051D8007B689B8A9AB27B88DB439BB213409AB266
:1051E8007B689A8200BF0837BD4680BD0010014029
:1051F8000044004000480040004C0040005000407F
:1052080000140140C45F000880B586B000AF786024
:105218000B467B8013467B7000233B610023FB60B9
:105228000023BB6000237B617B68504A934218D0FF
:105238007B684F4A934214D07B684E4A934210D001
:105248007B684D4A93420CD07B684C4A934208D005
:105258007B684B4A934204D040F2BD414948FBF772
:1052680057F97B88282B25D07B8840F227729342F8
:1052780020D07B8840F2266293421BD07B8840F284
:105288002552934216D07B8840F22442934211D093
:105298007B8840F6460293420CD07B8840F66A121F
:1052A800934207D07B88602B04D040F2BE4135483A
:1052B800FBF72EF97B78002B07D07B78012B04D0E5
:1052C80040F2BF412F48FBF723F97B8840F66A126A
:1052D800934214D17B68254A934210D07B68244AB4
:1052E80093420CD07B68234A934208D07B68244AB7
:1052F800934204D040F2C4412248FBF709F97B6885
:105308007B617B88DBB25B09DBB23B617B8803F0A6
:105318001F03FB600122FB6802FA03F3BB603B69D1
:10532800012B03D17B690C337B6109E03B69022BBC
:1053380003D17B6910337B6102E07B6914337B61A5
:105348007B78002B06D07B6919687B69BA680A43A9
:105358001A6006E07B691968BB68DA437B690A4012
:105368001A6000BF1837BD4680BD00BF001001405D
:105378000044004000480040004C004000500040FD
:1053880000140140C45F000880B584B000AF7860A5
:105398000B467B800023FB737B68364A934218D008
:1053A8007B68354A934214D07B68344A934210D0C4
:1053B8007B68334A93420CD07B68324A934208D0C8
:1053C8007B68314A934204D040F2FC412F48FBF7F6
:1053D8009FF87B88012B21D07B88802B1ED07B886F
:1053E800402B1BD07B88202B18D07B88102B15D006
:1053F8007B88B3F5807F11D07B88B3F5007F0DD013
:105408007B88082B0AD07B88042B07D07B88022B4B
:1054180004D040F2FD411D48FBF77AF87B88B3F5CC
:10542800007F14D17B68134A934210D07B68124ADC
:1054380093420CD07B68114A934208D07B68124A89
:10544800934204D040F202511048FBF761F87B68A0
:105458001B889AB27B8813409BB2002B02D0012391
:10546800FB7301E00023FB73FB7B18461037BD4636
:1054780080BD00BF001001400044004000480040CB
:10548800004C00400050004000140140C45F000878
:1054980080B582B000AF78600B467B807B68264A77
:1054A800934218D07B68254A934214D07B68244ADB
:1054B800934210D07B68234A93420CD07B68224ADF
:1054C800934208D07B68214A934204D040F22C5181
:1054D8001F48FBF71DF87A884FF69F431340002BAF
:1054E80002D17B88002B04D140F22D511848FBF7DC
:1054F8000FF87B8803F40073002B14D07B680E4AE6
:10550800934210D07B680D4A93420CD07B680C4ABA
:10551800934208D07B680D4A934204D040F232513E
:105528000B48FAF7F5FF7B88DB439AB27B681A8051
:1055380000BF0837BD4680BD001001400044004050
:1055480000480040004C004000500040001401405A
:10555800C45F000880B586B000AF78600B467B80DA
:105568000023FB6000237B610023BB600023FB74E6
:105578007B685E4A934218D07B685D4A934214D098
:105588007B685C4A934210D07B685B4A93420CD09C
:105598007B685A4A934208D07B68594A934204D0A0
:1055A8004FF4AA615748FAF7B3FF7B88282B37D006
:1055B8007B8840F22772934232D07B8840F2266281
:1055C80093422DD07B8840F22552934228D07B8885
:1055D80040F22442934223D07B8840F6460293420D
:1055E8001ED07B8840F66A12934219D07B88B3F5A7
:1055F800587F15D07B8840F22532934210D07B88A3
:10560800B3F5587F0CD07B88B3F5187F08D07B881A
:10561800B3F5B07F04D040F251513A48FAF778FF19
:105628007B8840F66A12934214D17B682F4A9342D2
:1056380010D07B682E4A93420CD07B682D4A934247
:1056480008D07B682E4A934204D040F256512D4828
:10565800FAF75EFF7B88DBB25B09DBB2BB607B8855
:1056680003F01F037B6101227B6902FA03F37B616C
:10567800BB68012B07D17B689B899BB21A467B6963
:1056880013407B6111E0BB68022B07D17B681B8A42
:105698009BB21A467B6913407B6106E07B689B8A54
:1056A8009BB21A467B6913407B617B881B0A9BB2BD
:1056B800FB600122FB6802FA03F3FB607B681B882E
:1056C8009BB21A46FB681340FB607B69002B05D030
:1056D800FB68002B02D00123FB7401E00023FB745C
:1056E800FB7C18461837BD4680BD00BF001001403E
:1056F8000044004000480040004C0040005000407A
:1057080000140140C45F000880B584B000AF786021
:105718000B467B800023FB810023BB817B68304ADA
:10572800934218D07B682F4A934214D07B682E4A44
:10573800934210D07B682D4A93420CD07B682C4A48
:10574800934208D07B682B4A934204D040F2995187
:105758002948FAF7DDFE7B8840F22662934213D08F
:105768007B8840F2255293420ED07B8840F6460251
:10577800934209D07B8840F66A12934204D040F2E3
:105788009A511D48FAF7C4FE7B8840F66A12934284
:1057980014D17B68124A934210D07B68114A934215
:1057A8000CD07B68104A934208D07B68114A934218
:1057B80004D040F29F511048FAF7AAFE7B881B0AD2
:1057C800FB81FB89012202FA03F3BB81BB89DB431E
:1057D8009AB27B681A8000BF1037BD4680BD00BFF3
:1057E800001001400044004000480040004C0040C8
:1057F8000050004000140140C45F000880B582B02A
:1058080000AF78607B68B3F5E06F13D07B68B3F5C1
:10581800C06F0FD07B68B3F5A06F0BD07B68B3F572
:10582800806F07D07B68B3F5407F03D073210748AA
:10583800FAF76EFE064A7B6843F0BF6343F4003311
:10584800D36000BF0837BD4680BD00BF2060000898
:1058580000ED00E080B584B000AF78600023FB73F2
:105868000023BB730F237B737B68DB78002B07D087
:105878007B68DB78012B03D087213248FAF748FE92
:105888007B685B780F2B03D988212E48FAF740FEF6
:105898007B689B780F2B03D989212A48FAF738FEB1
:1058A8007B68DB78002B39D0274BDB68DB431B0A8E
:1058B800DBB203F00703FB73FB7BC3F10403BB7389
:1058C8007A7BFB7B42FA03F37B737B685B781A462F
:1058D800BB7B02FA03F3FB737B689A787B7B1340EC
:1058E800DAB2FB7B1343FB73FB7B1B01FB73174A89
:1058F8007B681B781344FA7B83F800237B681B784A
:1059080003F01F0311497A6812785209D2B210467F
:10591800012202FA03F341F820300FE07B681B787C
:1059280003F01F0309497A6812785209D2B2104667
:1059380001229A4000F1200341F8232000BF1037CC
:10594800BD4680BD2060000800ED00E000E100E0F9
:1059580080B582B000AF786039607B68B3F1005FD2
:1059680007D07B68B3F1006F03D0B1210B48FAF779
:10597800CFFD3B680A4A934203D9B2210748FAF798
:10598800C7FD3B6823F0604323F07F0305497A682D
:1059980013438B6000BF0837BD4680BD20600008F8
:1059A800FEFF0F0000ED00E080B582B000AF0346B7
:1059B8000A46FB711346BB71FB79102B09D0FB79A2
:1059C800042B06D0FB79022B03D0C4211048FAF728
:1059D8009FFDBB79002B06D0BB79012B03D0C521D5
:1059E8000B48FAF795FDBB79002B06D0094B1A69CD
:1059F800FB79084913430B6106E0064B1A69FB79EA
:105A0800DB43044913400B6100BF0837BD4680BD26
:105A18002060000800ED00E080B582B000AF78603B
:105A28007B68042B07D07B6813F1050F03D0DC21BA
:105A38000B48FAF76DFD7B68042B06D1094B1B68F0
:105A4800084A43F00403136005E0064B1B68054A47
:105A580023F00403136000BF0837BD4680BD00BFB4
:105A68002060000810E000E0CC6000080000002082
:105A78005C0400205C0400200C050020002103E0E9
:105A88000B4B5B58435004310A480B4B42189A425F
:105A9800F6D30A4A02E0002342F8043B084B9A4234
:105AA800F9D3FAF73BFD00F01FF8FAF7F9FC704755
:105AB800CC600008000000205C0400205C0400208A
:105AC8000C050020FEE7000008B50021044600F0A0
