:020000040800F2
:1000000000000220492700089127000891270008D6
:1000100091270008912700089127000800000000A0
:100020000000000000000000000000009127000810
:100030009127000800000000912700089127000880
:1000400091270008912700089127000891270008B0
:1000500091270008912700089127000891270008A0
:100060009127000891270008912700089127000890
:100070009127000891270008912700089127000880
:1000800091270008912700083D02000891270008E9
:100090009127000891270008912700089127000860
:1000A0009127000891270008912700089127000850
:1000B0009127000891270008912700089127000840
:1000C0009127000891270008912700089127000830
:1000D0009127000891270008912700089127000820
:1000E0009127000891270008912700089127000810
:1000F0009127000891270008912700089127000800
:1001000091270008912700089127000891270008EF
:1001100091270008912700089127000891270008DF
:1001200091270008912700089127000891270008CF
:1001300091270008912700089127000891270008BF
:1001400091270008912700089127000891270008AF
:10015000912700089127000891270008912700089F
:10016000912700089127000891270008912700088F
:10017000912700089127000891270008912700087F
:080180009127000891270008F7
:1001880010B5054C237833B9044B13B10448AFF3C9
:1001980000800123237010BD5C04002000000000D3
:1001A800142C000808B5034B1BB103490348AFF3EF
:1001B800008008BD0000000060040020142C000826
:1001C800154B002B08BF134B9D46A3F5803A002121
:1001D8008B460F461348144A121A02F00BFB0F4BBA
:1001E800002B00D098470E4B002B00D098470020DA
:1001F800002104000D000D48002802D00C4802F030
:10020800C1FB02F0D3FA2000290002F081FA02F0C3
:10021800BDFA00BF00000800000000000000000058
:10022800000000005C0400203C0600208D29000826
:100238009929000808B540F20521084802F026F976
:1002480000B908BD40F20521044802F059F90348F5
:1002580001F022FE024B188008BD00BF00200140BB
:100268007804002070B5204C204E0121082000F0B1
:10027800C9FB204600F0AAFE1D4B19684FF4004246
:1002880001250223204600240A604B710D718C71F0
:1002980000F026FF29464FF4807000F04FFC01F073
:1002A800D3FA144B196830460C714C71C1E90344F8
:1002B8000D7501F0D7FA2946304601F0A9FB2A4608
:1002C800304640F2052102F04DF84FF4E06002F0AC
:1002D80047F9094B18681223447084700370C5707D
:1002E800BDE8704002F05AB9000C024000200140FD
:1002F800100600207C04002014060020FEE700BF42
:100308003849394BD1F88820384842F47002C1F88E
:1003180088201A68002142F001021A6099601A6860
:1003280022F0847222F480321A6058601A6882B00F
:1003380022F480221A60D960009101911A6842F46F
:1003480080321A601A4603E0009BB3F5A06F09D00B
:10035800136803F400330193009B01330093019B5E
:10036800002BF1D0204B1B6813F4003318BF012376
:100378000193019B012B05D01A4B4FF000629A6044
:1003880002B07047184B1A491A6C1A4842F080524A
:100398001A640A6842F480420A609A689A609A6805
:1003A80042F400429A609A6842F4A0529A605860F7
:1003B8001A6842F080721A601A689201FCD50E49D8
:1003C800094A40F205600860996821F003019960C4
:1003D800996841F002019960936803F00C03082BB7
:1003E800FAD1C9E700ED00E00038024010300024DF
:1003F8000070004019544007003C0240154A9368B9
:1004080003F00C03042B23D0082B09D0124B114AFC
:1004180012499268C2F303128A5CD3400B61704799
:100428005068516852684302C2F3881201F03F01D4
:100438004CBF0B4B084BB3FBF1F303FB02F3054A2C
:100448005268C2F3014201325200B3FBF2F3DEE715
:10045800034BDCE7003802400024F40004000020CD
:1004680000127A000A4B0B481A68002142F0010278
:100478001A6099601A6822F0847222F480321A6035
:1004880058601A6822F480221A60D960704700BF49
:100498000038024010300024012810B5044605D960
:1004A800052803D0F0210448FFF728FF034B00225A
:1004B8001A701C7010BD00BFB42A00080238024030
:1004C80082B00023094A0193136813F4003F019B8B
:1004D80003F101030193019B02D1B3F5A06FF3D19E
:1004E800024B1868C0F3404002B070470038024021
:1004F8001F2810B5044604D94FF494710548FFF736
:10050800FDFE054B186820F0F80040EAC4001860AA
:1005180010BD00BFB42A000800380240012810B5F9
:10052800044604D940F24B110248FFF7E7FE024B9C
:100538001C6010BDB42A000800004742012810B50D
:1005480004460ED9042807D10B4B00221A701A70E2
:10055800094B05221A7010BD4FF4B2710748FFF716
:10056800CDFE054B0022012C1A701A7002D0042C03
:10057800EED010BD1C7010BD70380240B42A0008BF
:10058800012810B5044604D94FF4C6710248FFF794
:10059800B5FE024B1C6010BDB42A0008800E47420D
:1005A8002DE9F0411D4630F4800306460C4690467E
:1005B800069F04D040F2B7111B48FFF79FFE3F2C5F
:1005C8002BD8A8F1C003F02B21D8082D19D94FF446
:1005D800DD711548FFF792FE3B1F0B2B04D940F243
:1005E800BB111148FFF78AFE44EA88106D0840EAFB
:1005F8000760013D40EA05400C4B30435860BDE8B8
:10060800F0814FF4AA73EB40DB07E5D4DFE740F253
:10061800B9110548FFF772FED7E74FF4DC710248BD
:10062800FFF76CFECDE700BFB42A0008003802408F
:10063800012810B5044604D94FF4E7710248FFF7C2
:100648005DFE024B1C6010BDB42A000860004742E2
:1006580038B5A0F1C003F02B05460C460ED8A31EF2
:10066800052B04D940F2E9110748FFF747FE240794
:10067800064B44EA8514C3F8844038BD4FF4F4713E
:100688000148FFF73BFEEAE7B42A000800380240B9
:10069800012810B5044604D940F2F7110248FFF7C3
:1006A8002DFE024B1C6010BDB42A000868004742AA
:1006B800012810B5044604D940F209210248FFF781
:1006C8001DFE024B1C6010BDB42A00084C004742B6
:1006D80038B530F4C00304460D4604D04FF4097110
:1006E8000D48FFF70BFE35F080630CD025F0007342
:1006F800B3F1A06F07D0B5F1C06F04D040F2252147
:100708000548FFF7FBFD054B996821F0EC6129438B
:100718002143996038BD00BFB42A00080038024060
:1007280038B530F0404304460D4604D040F24A2123
:100738000D48FFF7E3FD35F000530CD025F080534A
:10074800B3F1205F07D0B5F1405F04D040F24B21F0
:100758000548FFF7D3FD054B996821F078412943F7
:100768002143996038BD00BFB42A00080038024010
:10077800022810B5044604D94FF42D710448FFF738
:10078800BDFD044A936823F003031C43946010BD25
:10079800B42A000800380240024B986800F00C00A8
:1007A800704700BF0038024030F0800310B504469F
:1007B80012D020F02003902B0ED020F04003A02B65
:1007C8000AD020F01003C02B06D0F02804D040F245
:1007D800E9210548FFF792FD044A936823F0F003E6
:1007E8001C43946010BD00BFB42A000800380240C2
:1007F80030F4805310B504460CD020F40063B3F5F0
:10080800A05F07D0B0F5C05F04D040F209310548B9
:10081800FFF774FD044A936823F4E0531C43946083
:1008280010BD00BFB42A00080038024030F48053DD
:1008380010B504460CD020F40063B3F5A05F07D0D0
:10084800B0F5C05F04D04FF44A710548FFF756FD74
:10085800044B986820F4604040EAC400986010BDDA
:10086800B42A0008003802401F4A936803F00C03BA
:10087800042B10B434D0082B19D01C4B03601A4A2F
:100888001B499468C4F303140C5DE3404360946807
:10089800C4F382240C5D23FA04F4846092685DF842
:1008A800044BC2F342328A5CD340C3607047546839
:1008B800516852686302C2F3881201F03F014CBFCD
:1008C8000C4B0A4BB3FBF1F303FB02F3064A5268E5
:1008D800C2F3014201325200B3FBF2F30360CEE7E8
:1008E800044B0360CBE700BF003802400024F4004B
:1008F8001800002000127A00B0F5807F10B5044679
:1009080032D0B0F5007F2FD0204B20F4A0229A429D
:1009180020F480312FD01E4B20F410229A422AD086
:100928001C4A20F44033934225D002F5C02220F41B
:10093800881090421FD002F5003293421BD002F576
:100948008022934217D002F58022934213D0124B93
:10095800994210D040F2D9311048FFF7CFFC04F487
:100968004073B3F5407F06D00D4B1A6FC4F30B04E8
:1009780014431C6710BD0A498A6824F0704322F4A6
:10098800F81223F4407313438B60EDE70003020071
:10099800000304000003080000031C00B42A000838
:1009A80000380240012810B5044604D940F2F73156
:1009B8000248FFF7A3FC024B1C6010BDB42A0008D4
:1009C8003C0E4742012810B5044604D94FF4816112
:1009D8000248FFF793FC024B1C6010BDB42A0008C4
:1009E800400E4742012810B5044604D940F2194187
:1009F8000248FFF783FC024B1C6010BDB42A0008B4
:100A08005C01474238B5104B034004460D464BB9CC
:100A180040B1012D0DD88DB90C4A136B23EA04049B
:100A2800146338BD4FF488610948FFF767FC012D4E
:100A3800F1D940F242410648FFF760FC034A136BC4
:100A48001C43146338BD00BF00EE8B8100380240A0
:100A5800B42A000838B530F0F10304460D4609D130
:100A680040B1012D0DD88DB90B4A536B23EA04040C
:100A7800546338BD4FF48C610848FFF73FFC012DE3
:100A8800F1D940F261410548FFF738FC024A536B3F
:100A98001C43546338BD00BF00380240B42A000824
:100AA80038B530F0010304460D4609D140B1012D97
:100AB8000DD88DB90B4A936B23EA0404946338BDAF
:100AC80040F27B410848FFF719FC012DF1D940F2AB
:100AD8007C410548FFF712FC024A936B1C43946360
:100AE80038BD00BF00380240B42A000838B5104BA2
:100AF800184204460D4609D140B1012D0DD88DB9D3
:100B08000C4A136C23EA0404146438BD40F2AD4166
:100B18000948FFF7F3FB012DF1D940F2AE41064831
:100B2800FFF7ECFB034A136C1C43146438BD00BF89
:100B3800003601C900380240B42A000838B5104B05
:100B4800034004460D464BB940B1012D0DD88DB96F
:100B58000C4A536C23EA0404546438BD40F2D5416E
:100B68000948FFF7CBFB012DF1D940F2D6410648E1
:100B7800FFF7C4FB034A536C1C43546438BD00BFE1
:100B8800CCA0F8FF00380240B42A000838B5104B52
:100B9800034004460D464BB940B1012D0DD88DB91F
:100BA8000C4A136923EA0404146138BD40F2FC417D
:100BB8000948FFF7A3FB012DF1D940F2FD41064892
:100BC800FFF79CFB034A13691C43146138BD00BF3F
:100BD80000EE9FDD00380240B42A000838B530F036
:100BE800F10304460D4609D140B1012D0DD88DB948
:100BF8000B4A536923EA0404546138BD40F2195181
:100C08000848FFF77BFB012DF1D940F21A5105483E
:100C1800FFF774FB024A53691C43546138BD00BF97
:100C280000380240B42A000838B530F00103044601
:100C38000D4609D140B1012D0DD88DB90B4A9369E4
:100C480023EA0404946138BD40F231510848FFF7A3
:100C580055FB012DF1D940F232510548FFF74EFB03
:100C6800024A93691C43946138BD00BF00380240B2
:100C7800B42A000838B5104B184204460D4609D16D
:100C880040B1012D0DD88DB90C4A136A23EA04042A
:100C9800146238BD4FF4AC610948FFF72FFB012DF2
:100CA800F1D940F261510648FFF728FB034A136A5D
:100CB8001C43146238BD00BF003601C90038024029
:100CC800B42A000838B5104B034004460D464BB90A
:100CD80040B1012D0DD88DB90C4A536A23EA04049A
:100CE800546238BD40F284510948FFF707FB012DD3
:100CF800F1D940F285510648FFF700FB034A536AD1
:100D08001C43546238BD00BFCCA6F8FF003802402F
:100D1800B42A000838B5104B034004460D464BB9B9
:100D280040B1012D0DD88DB90C4A136D23EA040486
:100D3800146538BD40F2B2510948FFF7DFFA012DBA
:100D4800F1D940F2B3510648FFF7D8FA034A136DB8
:100D58001C43146538BD00BF006E988100380240FE
:100D6800B42A000838B530F0F10304460D4609D11D
:100D780040B1012D0DD88DB90B4A536D23EA0404F7
:100D8800546538BD40F2D2510848FFF7B7FA012D33
:100D9800F1D940F2D3510548FFF7B0FA024A536D32
:100DA8001C43546538BD00BF00380240B42A00080F
:100DB80038B530F0010304460D4609D140B1012D84
:100DC8000DD88DB90B4A936D23EA0404946538BD98
:100DD80040F2ED510848FFF791FA012DF1D940F2A0
:100DE800EE510548FFF78AFA024A936D1C43946551
:100DF80038BD00BF00380240B42A000838B5104B8F
:100E0800184204460D4609D140B1012D0DD88DB9BF
:100E18000C4A136E23EA0404146638BD40F21F61BD
:100E28000948FFF76BFA012DF1D94FF4C461064860
:100E3800FFF764FA034A136E1C43146638BD00BFFB
:100E4800003601C900380240B42A000838B5104BF2
:100E5800034004460D464BB940B1012D0DD88DB95C
:100E68000C4A536E23EA0404546638BD40F24761C5
:100E78000948FFF743FA012DF1D94FF4C961064833
:100E8800FFF73CFA034A536E1C43546638BD00BF53
:100E9800CCA0F8FF00380240B42A000810F0C00FB8
:100EA80038B504460D4609D140B1012D0DD88DB98C
:100EB8000B4A137823EA0404147038BD40F27461B5
:100EC8000848FFF71BFA012DF1D940F27561054872
:100ED800FFF714FA024A13781C43147038BD00BF98
:100EE8000D380240B42A000800F0EF03212B10B59A
:100EF80004460BD0392809D0412819D061281FD0C1
:100F0800A0F17903062B1BD93B2807D1104B186891
:100F180004F01F04E04000F0010010BD40F29C61A5
:100F28000C48FFF7EBF96309012BEFD0022B07D12F
:100F3800074B186F04F01F04E04000F0010010BDDB
:100F4800034B586F04F01F04E04000F0010010BD8F
:100F580000380240B42A0008024A536F43F08073F5
:100F68005367704700380240431EDBB21F2B10B591
:100F7800044607D980280AD040F2DA610748FFF70B
:100F8800BDF904E0064A22FA03F3DB07F4D5054B62
:100F9800DB681C4214BF0120002010BDB42A0008E1
:100FA8008B80008000380240430610B5044600D408
:100FB80020B940F2F9610348FFF7A0F9024B1C7011
:100FC80010BD00BFB42A00080E38024008B5424BD5
:100FD80098422FD003F58063984221D003F58063AF
:100FE800984247D003F5806398424DD003F580635B
:100FF800984229D003F5806398424FD003F5806367
:10100800984255D003F5806398425BD003F580631E
:10101800984223D07B213148BDE80840FFF76EB9DC
:1010280001210220FFF7B2FD00210220BDE808409F
:10103800FFF7ACBD01210846FFF7A8FD00210120FC
:10104800BDE80840FFF7A2BD01211020FFF79EFD73
:1010580000211020BDE80840FFF798BD01214FF49A
:101068008070FFF793FD00214FF48070BDE80840C1
:10107800FFF78CBD01210420FFF788FD0021042023
:10108800BDE80840FFF782BD01210820FFF77EFD7B
:1010980000210820BDE80840FFF778BD0121202085
:1010A800FFF774FD00212020BDE80840FFF76EBD62
:1010B80001214020FFF76AFD00214020BDE80840DB
:1010C800FFF764BD01218020FFF760FD002180202B
:1010D800BDE80840FFF75ABD000002400C2B00088D
:1010E8002DE9F84F4C4B984205460E4623D003F5A0
:1010F800806398421FD003F5806398421BD003F5A4
:101108008063984217D003F58063984213D003F5A3
:10111800806398420FD003F5806398420BD003F5A3
:101128008063984207D003F58063984203D0BB21BF
:101138003A48FFF7E3F83368002B68D03379032B7C
:1011480060D8F379022B58D8344F00244FF00108A7
:101158004FF0030902E00134102C26D0326808FA57
:1011680004F39343F7D14FEA440A2A68337909FA1A
:101178000AFB6FEA0B0B02EA0B022A60296803FAE2
:101188000AF2013B0A43012B2A6010D9EA68F37975
:1011980009FA0AF122EA0102EA60EA6803FA0AF3A4
:1011A80001341343102CEB60D8D1BDE8F88F717966
:1011B80003291CD8AA68B3790BEA0202AA60AA68B4
:1011C80001FA0AF11143012BA96004D9D721384645
:1011D800FFF794F8B3796A6808FA04F122EA010281
:1011E8006A606A68A3409BB213436B60CEE7D02164
:1011F8003846FFF783F87179DCE7BE210748FFF727
:101208007DF8A1E7BD210548FFF778F899E7BC21EB
:101218000248FFF773F891E7000002400C2B000822
:1012280000234FF6FF720260037143718371C3712B
:10123800704700BF30B5214B83B04FF480329842DD
:1012480004460D46019224D003F58063984220D0CD
:1012580003F5806398421CD003F58063984218D048
:1012680003F58063984214D003F58063984210D048
:1012780003F5806398420CD003F58063984208D048
:1012880003F58063984204D04FF482710C48FFF74D
:1012980035F825B940F205110948FFF72FF8019BE9
:1012A8002B430193019BE361E561019BE361E369E2
:1012B8000193E369019303B030BD00BF0000024011
:1012C8000C2B000838B52D4B984204460D4624D007
:1012D80003F58063984220D003F5806398421CD0C0
:1012E80003F58063984218D003F58063984214D0C0
:1012F80003F58063984210D003F5806398420CD0C0
:1013080003F58063984208D003F58063984204D0BF
:101318004FF498711A48FEF7F1FF6B1E9BB21F2B12
:1013280021D9402D24D0802D22D0B5F5807F1FD023
:10133800B5F5007F1CD0B5F5806F19D0B5F5006FF5
:1013480016D0B5F5805F13D0B5F5005F10D0B5F5B0
:10135800804F0DD0B5F5004F0AD040F23111084842
:10136800FEF7CCFF04E0074A22FA03F3DB07DAD5DD
:1013780023691D4214BF0120002038BD000002402F
:101388000C2B00088B800080164B984210B5044641
:1013980024D003F58063984220D003F580639842F7
:1013A8001CD003F58063984218D003F580639842F7
:1013B80014D003F58063984210D003F580639842F7
:1013C8000CD003F58063984208D003F580639842F7
:1013D80004D04FF4A3710448FEF790FF206980B24F
:1013E80010BD00BF000002400C2B000838B52D4B83
:1013F800984204460D4624D003F58063984220D0D5
:1014080003F5806398421CD003F58063984218D096
:1014180003F58063984214D003F58063984210D096
:1014280003F5806398420CD003F58063984208D096
:1014380003F58063984204D040F257111A48FEF72A
:101448005DFF6B1E9BB21F2B21D9402D24D0802D10
:1014580022D0B5F5807F1FD0B5F5007F1CD0B5F53B
:10146800806F19D0B5F5006F16D0B5F5805F13D031
:10147800B5F5005F10D0B5F5804F0DD0B5F5004F2C
:101488000AD04FF4AC710848FEF738FF04E0074A69
:1014980022FA03F3DB07DAD563691D4214BF012082
:1014A800002038BD000002400C2B00088B80008013
:1014B800164B984210B5044624D003F58063984231
:1014C80020D003F5806398421CD003F580639842CE
:1014D80018D003F58063984214D003F580639842CE
:1014E80010D003F5806398420CD003F580639842CE
:1014F80008D003F58063984204D040F26D11044887
:10150800FEF7FCFE606980B210BD00BF000002401B
:101518000C2B000838B5194B984204460D4624D0C8
:1015280003F58063984220D003F5806398421CD06D
:1015380003F58063984218D003F58063984214D06D
:1015480003F58063984210D003F5806398420CD06D
:1015580003F58063984208D003F58063984204D06D
:1015680040F27F110648FEF7C9FE25B94FF4C07155
:101578000348FEF7C3FE258338BD00BF00000240C4
:101588000C2B000838B5194B984204460D4624D058
:1015980003F58063984220D003F5806398421CD0FD
:1015A80003F58063984218D003F58063984214D0FD
:1015B80003F58063984210D003F5806398420CD0FD
:1015C80003F58063984208D003F58063984204D0FD
:1015D8004FF4C9710648FEF791FE25B940F2931100
:1015E8000348FEF78BFE658338BD00BF000002404C
:1015F8000C2B000830B5344B984283B004460D4696
:1016080026D003F58063984222D003F58063984280
:101618001ED003F5806398421AD003F58063984280
:1016280016D003F58063984212D003F58063984280
:101638000ED003F5806398420AD003F58063984280
:1016480006D04FF4D37121480192FEF757FE019A54
:101658006B1E9BB21F2B23D9402D26D0802D24D062
:10166800B5F5807F21D0B5F5007F1ED0B5F5806F28
:101678001BD0B5F5006F18D0B5F5805F15D0B5F55E
:10168800005F12D0B5F5804F0FD0B5F5004F0CD0E4
:1016980040F2A7110D480192FEF730FE019A04E0CE
:1016A8000B4921FA03F3DB07D8D5012A03D83AB945
:1016B800658303B030BD4FF4D4710448FEF71EFEB5
:1016C800258303B030BD00BF000002400C2B00088A
:1016D8008B80008038B5164B984204460D4624D0BE
:1016E80003F58063984220D003F5806398421CD0AC
:1016F80003F58063984218D003F58063984214D0AC
:1017080003F58063984210D003F5806398420CD0AB
:1017180003F58063984208D003F58063984204D0AB
:1017280040F2BD110348FEF7E9FD656138BD00BF11
:10173800000002400C2B000838B5174B98420446AD
:101748000D4624D003F58063984220D003F58063CA
:1017580098421CD003F58063984218D003F5806343
:10176800984214D003F58063984210D003F5806343
:1017780098420CD003F58063984208D003F5806343
:10178800984204D040F2CB110448FEF7B7FD6369D4
:101798005D40656138BD00BF000002400C2B0008A9
:1017A800274B984270B504460D46164624D003F5DB
:1017B8008063984220D003F5806398421CD003F5DB
:1017C8008063984218D003F58063984214D003F5DB
:1017D8008063984210D003F5806398420CD003F5DB
:1017E8008063984208D003F58063984204D040F2A1
:1017F80017211448FEF782FD0F2D1AD80D2E06D991
:101808000F2E04D040F219210E48FEF777FDEB08A1
:1018180004EB830405F00705236AAD000F22AA40F4
:1018280023EA02032362226A06FA05F515432562B4
:1018380070BD4FF406710348FEF760FDDEE700BF98
:10184800000002400C2B000808B501214FF48070FD
:10185800FFF738FA00214FF48070BDE80840FFF721
:1018680031BA00BFF8B53A4B984205460C460BD042
:1018780003F58073984207D003F58073984203D02C
:10188800E9213448FEF73AFD236833F0407303D06A
:10189800EA213048FEF732FD2379012B03D9EB21E9
:1018A8002C48FEF72BFD6379012B03D9EC2129483D
:1018B800FEF724FDA36833F0405303D0ED212548FB
:1018C800FEF71CFDE36833F040730CD0B3F1806F72
:1018D80009D0B3F1006F06D0B3F1406F03D0EE2109
:1018E8001C48FEF70BFD236933F4006303D0EF2196
:1018F8001848FEF703FD227D013AD2B20F2A06D915
:10190800F0211448FEF7FAFC227D013AD2B2686849
:10191800267921682369D4F80CC0A76820F04070A4
:1019280020F4807041EA062101436960AE6860795D
:10193800094943EA0C033B43314043EA40030B4364
:10194800AB60EB6A23F4700343EA0252EA62F8BD23
:1019580000200140682B0008FDF7FFC0002301228A
:101968000275036003714371C0E902330361704774
:101978000268192A70B5044636D94FF4A9711D4872
:10198800FEF7BCFC636833F4403304D040F25311D3
:101998001848FEF7B3FCA36833F4404304D04FF46F
:1019A800AA711448FEF7AAFCE26832F440730ED01C
:1019B800B3F5806F0BD0B3F5006F08D0B3F5406F67
:1019C80005D040F255110B48FEF798FCE2680A482A
:1019D8000A494668D4E900353140A4682B430B43D3
:1019E80023431343436070BD054BD340DB07C9D481
:1019F800C3E700BF682B000800230140E030FCFF6C
:101A0800E702E6020023C0E90033C0E90233704769
:101A180038B5124B984204460D460CD003F5807336
:101A2800984208D003F58073984204D040F28B1195
:101A38000B48FEF763FC012D05D84DB9A36823F0C8
:101A48000103A36038BD4FF4C6710548FEF756FC84
:101A5800A36843F00103A36038BD00BF0020014024
:101A6800682B000838B5184B984205460C460CD030
:101A780003F58073984208D003F58073984204D028
:101A88004FF4E3711148FEF739FC114B24F40002BE
:101A98009A420AD024F40073B3F5000F05D0B4F5C8
:101AA800400F02D034F4800307D1696821F4400163
:101AB80021F400712143696038BD40F2C711034821
:101AC800FEF71CFCF1E700BF00200140682B00086E
:101AD80000024000134B984270B504460E46154666
:101AE8000CD003F58073984208D003F580739842B0
:101AF80004D040F2E3110C48FEF700FCB6F5805F15
:101B08000AD2B5F5805F04D340F2E5110648FEF726
:101B1800F5FB6662A56270BD4FF4F2710248FEF7EC
:101B2800EDFBEEE700200140682B000838B50F4BAD
:101B3800984204460D460CD003F58073984208D0AD
:101B480003F58073984204D04FF403710848FEF7F8
:101B5800D5FB122D04D940F20D210548FEF7CEFB26
:101B6800636823F01F031D43656038BD00200140F2
:101B7800682B0008012808B506D850B9084A5368E8
:101B880023F40003536008BD4FF413710548FEF7B2
:101B9800B5FB034A536843F40003536008BD00BF14
:101BA80000230140682B0008012808B506D850B961
:101BB800084A536823F48003536008BD40F2622149
:101BC8000548FEF79BFB034A536843F480035360C0
:101BD80008BD00BF00230140682B00082DE9F04133
:101BE8003C4EB04205460F46144698460BD03A4B39
:101BF800984208D003F58073984204D04FF43271AC
:101C08003648FEF77BFB122F5DD8661EF3B20F2B0A
:101C180053D8B8F1070F4AD8092F1FD9A7F10A03DB
:101C280003EB4303EA680721994008FA03F322EA21
:101C3800010843EA0803062CEB601DD90C2C28D9AF
:101C48000D3C04EB8402EB6A1F21914007FA02F471
:101C580023EA01031C43EC62BDE8F08107EB47016E
:101C68002B6907228A4008FA01F823EA020348EAA6
:101C78000303062C2B61E1D806EB86066C6B1F2349
:101C8800B34024EA030407FA06F626436E63BDE868
:101C9800F081073C04EB84042B6B1F22A24007FA57
:101CA80004F423EA02073C432C63BDE8F08140F2C8
:101CB800CB210A48FEF722FBAEE740F2CA210748CB
:101CC800FEF71CFBA5E740F2C9210448FEF716FB06
:101CD8009BE700BF0020014000210140682B00085D
:101CE8000B4B984210B504460CD003F5807398420C
:101CF80008D003F58073984204D040F23F3105487C
:101D0800FEF7FCFAA36843F08043A36010BD00BF50
:101D180000200140682B00080A4B984210B5044681
:101D28000CD003F58073984208D003F5807398426D
:101D380004D040F24E310448FEF7E0FAA068C0F340
:101D4800805010BD00200140682B000838B5124BA8
:101D5800984204460D460CD003F58073984208D08B
:101D680003F58073984204D040F26B310B48FEF7BC
:101D7800C5FA012D05D84DB9A36823F48063A36083
:101D880038BD4FF45B710548FEF7B8FAA36843F411
:101D98008063A36038BD00BF00200140682B0008A5
:101DA80038B5124B984204460D460CD003F58073A3
:101DB800984208D003F58073984204D04FF46171BB
:101DC8000B48FEF79BFA012D05D84DB9A36823F0FF
:101DD8000203A36038BD40F285310548FEF78EFA4C
:101DE800A36843F00203A36038BD00BF0020014090
:101DF800682B000838B5114B984204460D460CD0A4
:101E080003F58073984208D003F58073984204D094
:101E180040F2A1310A48FEF771FA013DEBB2072BF7
:101E280004D940F2A2310648FEF768FA616821F445
:101E3800604141EA4531616038BD00BF0020014082
:101E4800682B000838B5124B984204460D460CD052
:101E580003F58073984208D003F58073984204D044
:101E680040F2BE310B48FEF749FA012D05D84DB9AD
:101E7800636823F40063636038BD40F2BF310548EE
:101E8800FEF73CFA636843F40063636038BD00BF43
:101E980000200140682B00080A4B984210B5044600
:101EA8000CD003F58073984208D003F580739842EC
:101EB80004D040F2D5310448FEF720FAE06C80B235
:101EC80010BD00BF00200140682B0008014B1868B6
:101ED800704700BF0823014038B5124B98420446AA
:101EE8000D460CD003F58073984208D003F5807333
:101EF800984204D040F21B410B48FEF7FFF9012D30
:101F080005D84DB9A36823F48073A36038BD40F2A7
:101F18001C410548FEF7F2F9A36843F48073A360F7
:101F280038BD00BF00200140682B000838B5124BAF
:101F3800984204460D460CD003F58073984208D0A9
:101F480003F58073984204D040F233410B48FEF702
:101F5800D5F9012D05D84DB9A36823F40073A36002
:101F680038BD40F234410548FEF7C8F9A36843F488
:101F78000073A36038BD00BF00200140682B000833
:101F8800012808B506D850B9084A536823F4005305
:101F9800536008BD40F24E410548FEF7AFF9034AC9
:101FA800536843F40053536008BD00BF0023014049
:101FB800682B0008DFF8B8C06045F8B506460D463E
:101FC80014461F460BD0284B984208D003F580735F
:101FD800984204D040F2A6412448FEF78FF9122D0A
:101FE8003BD8631E032B32D8072F2AD8092D1AD8BD
:101FF80005EB4501336907228A408F4023EA020333
:102008001F433761B36B0234C3F30152A41AE4B21D
:1020180004EB84041F22A24023EA020305FA04F415
:102028001C43B463F8BDA5F10A0303EB4303F2684C
:102038000721994007FA03F322EA01073B43F360BB
:10204800E0E740F2A9410948FEF758F9CEE74FF416
:1020580095610648FEF752F9C6E740F2A7410348E2
:10206800FEF74CF9BDE700BF00210140682B0008CE
:102078000020014038B5114B984204460D460CD05B
:1020880003F58073984208D003F58073984204D012
:1020980040F2E6410A48FEF731F9013DEBB2032B65
:1020A80004D940F2E7410648FEF728F9A16B21F46C
:1020B800401141EA0551A16338BD00BF002001402D
:1020C800682B000870B51B4B054682B000209D4266
:1020D8000C46164601900CD003F580739D4208D03B
:1020E80003F580739D4204D04FF4A1611248FEF7B6
:1020F80005F9A4F11403DBB20C2B14D940F20951F1
:102108000D48FEF7FBF8B6F5805F04D340F20A519C
:102118000948FEF7F3F80195019B1C440194019BC3
:102128001E6002B070BD41F2111121FA03F3DB0702
:10213800E9D4E3E700200140682B000838B5144BC8
:10214800984205460C460CD003F58073984208D097
:1021580003F58073984204D040F22E510D48FEF7E3
:10216800CDF834F440330DD0B3F5802F0AD0B3F551
:10217800002F07D0B3F5402F04D040F22F51054867
:10218800FEF7BCF8AB6823F470231C43AC6038BD81
:1021980000200140682B000838B5104B98420446CF
:1021A8000D460CD003F58073984208D003F5807370
:1021B800984204D04FF4AA610948FEF79FF835F415
:1021C800401304D040F251510548FEF797F8A36830
:1021D80023F440131D43A56038BD00BF0020014013
:1021E800682B00080B4B984210B504460CD003F539
:1021F8008073984208D003F58073984204D040F267
:1022080064510548FEF77AF8A36843F48003A36095
:1022180010BD00BF00200140682B00080A4B9842FF
:1022280010B504460CD003F58073984208D003F526
:102238008073984204D040F272510448FEF75EF869
:10224800A068C0F3805010BD00200140682B000832
:1022580038B5124B984204460D460CD003F58073EE
:10226800984208D003F58073984204D040F28E510A
:102278000B48FEF743F8012D05D84DB9636823F4E0
:102288008063636038BD40F28F510548FEF736F829
:10229800636843F48063636038BD00BF0020014079
:1022A800682B000838B5124B984204460D460CD0EE
:1022B80003F58073984208D003F58073984204D0E0
:1022C8004FF4B5610B48FEF719F8012D05D84DB943
:1022D800636823F48053636038BD40F2A951054810
:1022E800FEF70CF8636843F48053636038BD00BFA1
:1022F80000200140682B000830B5184B83B000223D
:10230800984204460D4601920CD003F5807398421A
:1023180008D003F58073984204D040F2C6511048A3
:10232800FDF7ECFFA5F11403DBB20C2B0ED940F23C
:10233800C7510B48FDF7E2FF019401992831294460
:102348000191019B186880B203B030BD41F21112AF
:1023580022FA03F3DB07EFD4E9E700BF00200140CE
:10236800682B00081E4B984270B505460C46164669
:102378000CD003F58073984208D003F58073984217
:1023880004D040F231611748FDF7B8FF012E04D997
:1023980040F232611348FDF7B1FF40F205239C4239
:1023A8000AD0B4F5837F07D040F207439C4203D09C
:1023B80042F21A039C420CD10123E4B203FA04F45A
:1023C8006B681EB923EA04046C6070BD1C436C6022
:1023D80070BD40F233610348FDF790FFECE700BFA2
:1023E80000200140682B000838B5134B984204467A
:1023F8000D460CD003F58073984208D003F580731E
:10240800984204D040F256610C48FDF777FF6B1EE6
:10241800DBB21F2B0AD940F257610848FDF76EFF5F
:1024280023681D4214BF0120002038BD044A22FA47
:1024380003F3DB07F4D4EEE700200140682B000823
:102448008B80008038B50F4B984205460C460CD05F
:1024580003F58073984208D003F58073984204D03E
:102468004FF4CF610848FDF749FF14F0C00F00D1C1
:1024780024B940F279610448FDF740FFE4432C6039
:1024880038BD00BF00200140682B000838B51A4B42
:10249800984205460C460CD003F58073984208D044
:1024A80003F58073984204D04FF4D2611348FDF7C6
:1024B80025FF40F205239C420AD0B4F5837F07D05C
:1024C80040F207439C4203D042F21A039C420DD1CA
:1024D8006A68286810EA142007D00123E4B203FAD6
:1024E80004F4144214BF1846002038BD40F291612C
:1024F8000248FDF703FFEBE700200140682B0008C6
:1025080038B5154B984205460C460CD003F5807338
:10251800984208D003F58073984204D040F2B7611E
:102528000E48FDF7EBFE40F205239C420FD0B4F5B0
:10253800837F0CD040F207439C4208D042F21A0332
:102548009C4204D04FF4D7610448FDF7D7FE6FEAE8
:1025580014242C6038BD00BF00200140682B0008FF
:10256800B0F5C06F10B504460DD020F48073B3F5F4
:10257800806F08D020F48063B3F5407F03D07321C7
:102588000448FDF7BBFE44F0BF64034B44F4003439
:10259800DC6010BDC02B000800ED00E0F8B5C37882
:1025A800012B044603D987211C48FDF7A7FE637851
:1025B8000F2B2DD8A3780F2B25D82178E37801F09D
:1025C8001F02012090404D0923B92035144B43F8D0
:1025D8002500F8BD134B6678DB68A278104FDC4302
:1025E800C4F30224C4F10403DBB29E400F23234149
:1025F800F6B2134033431B013944DBB281F8003390
:1026080047F82500F8BD89210448FDF777FED4E78F
:1026180088210248FDF772FECCE700BFC02B0008F6
:1026280000E100E000ED00E0B0F1005F38B50546DC
:102638000C4602D0B0F1006F0ED10A4B9C4203D970
:10264800B2210948FDF75AFE24F0604121F07F01CC
:10265800064B2943996038BDB1210348FDF74EFE6A
:10266800EBE700BFFEFF0F00C02B000800ED00E005
:10267800102838B504460D4615D9C4210C48FDF775
:102688003DFE012D06D84DB90A4A136923EA040410
:10269800146138BDC5210648FDF730FE054A1369A7
:1026A8001C43146138BD044BC340DB07E9D4E4E79D
:1026B800C02B000800ED00E014000100042808B554
:1026C80011D0053005D10B4A136823F004031360B9
:1026D80008BDDC210848FDF711FE064A136823F0FF
:1026E80004031360F4E7034A136843F00403136018
:1026F80008BD00BF10E000E0C02B0008442C000813
:10270800000000205C0400205C0400203C0600203F
:1027180008B5FDF7A7FD084D084C01231A461946D0
:102728002846FFF75BFA2846FFF7DAFA636983F46D
:1027380000536361F1E700BF00200140000C024034
:10274800002103E00B4B5B58435004310A480B4B04
:1027580042189A42F6D30A4A02E0002342F8043BA0
:10276800084B9A42F9D3FDF7CBFD00F01FF8FFF7AD
:10277800CFFF7047442C0008000000205C040020B4
:102788005C0400203C060020FEE7000008B500219C
:10279800044600F083F8044B1868C36B03B19847EC
:1027A800204600F041FA00BF102C000870B50D4E0D
:1027B8000D4D761BB61006D00024013455F8043BA5
:1027C8009847A642F9D1094E094D761B00F020FA28
:1027D800B61006D00024013455F8043B9847A642A9
:1027E800F9D170BD382C0008382C0008402C00089E
:1027F800382C0008F0B4860743D0541E002A3ED077
:10280800CAB2034602E014F1FF3438D303F8012BAF
:102818009D07F8D1032C2BD9CDB245EA05250F2CFD
:1028280045EA054516D9A4F110073F0903F120062A
:1028380006EB071603F1100242E9045542E9025576
:102848001032B242F8D104F00F040137032C03EB25
:1028580007130DD91E462246043A032A46F8045B9C
:10286800FAD8221F22F003020432134404F00304AE
:102878002CB1C9B21C4403F8011B9C42FBD1F0BC2B
:10288800704714460346C5E7024B13B1024800F0EF
:1028980079B8704700000000992900082DE9F04F29
:1028A800354B85B00F460390186800F095F8334B08
:1028B8001B68019303F5A4730293B946019BD3F8EF
:1028C80048613EB3DDF808A04FF001087468651E42
:1028D8000FD4013406EB84040027B9F1000F20D08F
:1028E800D4F800314B451CD0013D6B1CA4F1040405
:1028F800F3D1234B73B1D6E90032002A34D1002B2F
:1029080032D03046CAF80030AFF30080DAF8006001
:10291800002EDBD1184B186805B0BDE8F04F00F069
:1029280063B873682268013BAB420CBF75602760CF
:10293800002AD9D0D6F88811D6F804B008FA05F3D9
:102948000B4208D1904773685B45B7D1DAF800307D
:10295800B342C9D0B2E7D6F88C01D4F8801003424C
:1029680007D103989047EEE7B2461E46002EADD138
:10297800D0E708469047E6E758040020102C0008E6
:1029880000000000002301461A46184600F02EB841
:1029980038B50A4C0A4D641BA4100AD004F18043D0
:1029A800013B05EB8305013C55F804399847002C99
:1029B800F9D1BDE8384000F031B900BF442C000817
:1029C800402C0008704700BF704700BF704700BF29
:1029D800704700BF704700BF704700BF01207047B5
:1029E80001207047704700BF704700BF2DE9F843CA
:1029F8002B4D0646286898460F469146FFF7ECFF90
:102A0800284B1C68D4F84831002B3DD05A681F2A3F
:102A18000DDC02F1010C16BB0232C3F804C02868B1
:102A280043F82270FFF7E0FF0020BDE8F8831E4B53
:102A38007BB34FF4C870AFF30080034648B3D4F8B3
:102A480048210021C0E900214FF0010CC4F84801D9
:102A58000A46C0F88811C0F88C11002EDCD003EBB0
:102A680082010124C1F88890D3F88801944020435A
:102A7800022EC3F88801C1F80881CDD1D3F88C1192
:102A88000C43C3F88C41C7E704F5A673C4F8483172
:102A9800BCE72868FFF7A8FF4FF0FF30C5E700BF85
:102AA80058040020102C0008000000002E2E2F5380
:102AB800544D333246342D446973636F76657279A9
:102AC8005F46575F56312E312E302F4C6962726146
:102AD800726965732F53544D3332463478785F5397
:102AE80074645065726970685F4472697665722FA4
:102AF8007372632F73746D3332663478785F7263E0
:102B0800632E63002E2E2F53544D333246342D44FA
:102B18006973636F766572795F46575F56312E31F8
:102B28002E302F4C69627261726965732F53544D50
:102B38003332463478785F537464506572697068CC
:102B48005F4472697665722F7372632F73746D3385
:102B580032663478785F6770696F2E630000000012
:102B68002E2E2F53544D333246342D446973636FE0
:102B7800766572795F46575F56312E312E302F4C6D
:102B880069627261726965732F53544D33324634EA
:102B980078785F5374645065726970685F447269CD
:102BA8007665722F7372632F73746D33326634785F
:102BB800785F6164632E63002E2E2F53544D333299
:102BC80046342D446973636F766572795F46575F43
:102BD80056312E312E302F4C6962726172696573DD
:102BE8002F53544D3332463478785F5374645065AC
:102BF800726970685F4472697665722F7372632FA9
:102C08006D6973632E63000030000020000000002F
:102C1800F8B500BFF8BC08BC9E467047F8B500BFC1
:082C2800F8BC08BC9E46704791
:082C300098D5FF7F01000000B0
:082C380091280008AD0100081D
:042C400089010008FE
:102C44000000000000000000000000000102030476
:102C540006070809007A030A0000000001020304C1
:102C640001020304060708093000002000000000E8
:102C7400000000001C03002084030020EC0300205B
:102C84000000000000000000000000000000000040
:102C94000000000000000000000000000000000030
:102CA4000000000000000000000000000000000020
:102CB4000000000000000000000000000000000010
:102CC4000000000000000000000000000000000000
:102CD40000000000000000000000000000000000F0
:102CE40000000000000000000000000000000000E0
:102CF40000000000000000000000000000000000D0
:102D040000000000000000000000000000000000BF
:102D140000000000000000000100000000000000AE
:102D24000E33CDAB34126DE6ECDE05000B00000073
:102D3400000000000000000000000000000000008F
:102D4400000000000000000000000000000000007F
:102D5400000000000000000000000000000000006F
:102D6400000000000000000000000000000000005F
:0C309400000000000000000018060020F2
:04000005080027497F
:00000001FF
